:100000003DC0000043C0000041C0000019C1000015
:10001000EBC00000B5C0000039C0000037C00000D0
:1000200035C0000033C0000031C000002FC0000008
:100030002DC000002BC0000029C0000027C0000018
:1000400025C0000023C0000021C000001FC0000028
:100050001DC000001BC0000019C0000017C0000038
:1000600015C0000013C0000011C000000FC0000048
:100070000DC000000BC0000009C0000011241FBE0D
:10008000CFEFCDBFDFE3DEBFE1D070C1B9CF90913C
:10009000040895FFFCCF90E4909304088093020835
:1000A0000895319B0EC086B185FB882780F988238F
:1000B00061F082E180930002419883E080939B018C
:1000C000089586B180958170F2CF82E3809300021B
:1000D000419A85E0F3CF059A10929B0182E18093CB
:1000E00000024198429801981092C00188E48093E0
:1000F000060888EB92E2809308089093090880E054
:10010000C6DF8091040886FFFCCF80EB90E08093EF
:10011000080890930908529BFECF85E5B8DF88EC6C
:10012000B6DF89E5B4DF90E080E014990FC09C0150
:100130002F5F3F4F892B41F48091130480588093A7
:10014000130481E090E0F1CFC901EFCF84E8809300
:10015000130485E59CDF88EC9ADF80E098DF85E575
:1001600096DF83EC94DF84E092DF8091040886FFC1
:10017000FCCF1092060881E48093C001059891CFCE
:100180001F920F920FB60F9211242F933F934F930C
:100190005F936F937F938F939F93AF93BF93CF930F
:1001A000EF93FF93C1E0C093490496B186B191FFEC
:1001B00017C085FF03C08FDFC0932904FF91EF9123
:1001C000CF91BF91AF919F918F917F916F915F91EF
:1001D0004F913F912F910F900FBE0F901F90189548
:1001E000059A00000598EACF1F920F920FB60F9262
:1001F00011242F933F934F935F936F937F938F932C
:100200009F93AF93BF93EF93FF9381E08093290473
:10021000349904C098ED94BF8093410042DFFF9170
:10022000EF91BF91AF919F918F917F916F915F916E
:100230004F913F912F910F900FBE0F901F901895E7
:100240004ADF88ED91E084BF9093410088ED21E082
:1002500030E084BF209361008BE080933404349BB2
:10026000FECF88E0809311048093120494E8909369
:1002700013049DE090931404809315048093160456
:1002800094E09093170429E0209330048093310484
:100290009093320490933304809335043BE0309381
:1002A00050048093510480935304039A079A229A2E
:1002B00082E18093000281E08093010230E130937B
:1002C0008201809383013CE03093840132E03093DB
:1002D000850146E04093940143E04093950190935B
:1002E0009D0140EB50E040930808509309089AE0C4
:1002F000909305089BE2909307089FE09093000A73
:1003000040E951E040935C0A50935D0A91E190937B
:10031000540A96E59093510A95E49093500A9EEE04
:100320009093C80193E49093C6018093C5013093E4
:10033000CC0185E08093CA012093C90181E48093B8
:10034000C001AFDE789480915000897F82608093F5
:10035000500080915000816080935000789488957F
:10036000809150008E7F80935000EDCFF894FFCFA6
:00000001FF
