:1000000067C0000081C000007FC000007DC000000C
:100010007BC0000079C0000024C7000055C7000065
:1000200073C0000071C000006FC000006DC0000010
:100030006BC000000BC7000067C0000065C0000077
:1000400063C0000061C000005FC000005DC0000030
:100050005BC0000059C0000057C0000055C0000040
:1000600053C0000051C000004FC000004DC0000050
:100070004BC0000049C00000860102350702022281
:100080000602000000000000555044493441565219
:10009000000000000000001B418D204710230812C3
:1000A00004B6025B01DA0A0401AE0057002B0039E6
:1000B000019C00000000000B01C800A00085006446
:1000C00000500043003C0028001B0014000D0000FD
:1000D00011241FBECFEFCDBFDFE3DEBF18E3A0E0EA
:1000E000B8E3E4EEF5E102C005900D92AE34B1073D
:1000F000D9F72AE3AEE4B8E301C01D92AE3AB207E5
:10010000E1F707D70C94F00A7BCF8091040887FFB2
:10011000FCCF8091010880588FBB809100088EBB76
:100120000895CF93C82F8091040885FFFCCF80E409
:1001300080930408C09302088091040886FFFCCFD6
:10014000E4DF982F81E09C1380E09C1711F09FB3AF
:100150009FBBCF9108950F931F93CF93C62F8C0110
:10016000F80181918F01DDDF882311F0C150C1F7C3
:10017000CF911F910F910895EAE1F8E3806C81839C
:10018000628363E0CF01E7CF0F931F93CF93C42F18
:1001900060934A3870934B3880934C3890934D3825
:1001A0008FEF840F8093453884E68093473865E06D
:1001B00088E498E3D0DF8823E1F0A7DF8034C9F436
:1001C0006BE082E0D9DF8823A1F065E083E498E367
:1001D000C2DF882371F002EA18E3F80181918F01F0
:1001E000A0DFC150D1F763E082E0CF911F910F9162
:1001F000C3CF80E0CF911F910F9108951F93CF93AC
:10020000DF9360934A3870934B3880934C389093C7
:100210004D3856954795142F41504093453885E603
:100220008093473865E088E498E395DF8823F1F010
:100230006CDF8034D9F46BE082E09EDF8823B1F07C
:1002400065E083E498E387DF882381F0C0E9D8E3A1
:100250008A8967DF8B8965DF115022961111F8CFEB
:1002600063E082E0DF91CF911F9186CF80E0DF9144
:10027000CF911F91089580688093193862E088E1DA
:1002800098E369DF42CFCF93C42F60930E38709309
:100290000F38809310389093113865E08CE098E324
:1002A0005ADF811102C090E00BC02FDF8034D9F7F4
:1002B0008C2F37DF8823B9F328DF91E0803499F75A
:1002C000892FCF91089560934A3870934B3880936B
:1002D0004C3890934D3821502093453844604093DA
:1002E000473865E088E498E336DF882339F00DDF8E
:1002F000803421F465E083E498E32DCF80E0089515
:10030000FF920F931F93CF93DF93F42ED52FC22F1D
:1003100040E6D9DF882369F00F2D1D2FF801819168
:100320008F01FFDE882329F0F0DE803411F4C15004
:10033000A9F781E0C11180E0DF91CF911F910F916A
:10034000FF9008958091040885FFFCCF80EC94E431
:10035000809308089093090880E0E3DE80EB90E04A
:100360008093080890930908E698089560931438DC
:100370007093153865E082E198E3EDDE811102C0EB
:10038000E1DFF8CFC2CE60E0811169E588E0F4CE0C
:10039000CF93119B0BC0C82FD5DF66E080E098E3B8
:1003A000C11102C086E098E3CF91D5CE80E0CF9115
:1003B000089590916538981781F08093653860931F
:1003C0009C0A70939D0A10929A0A10929B0A8FE4DD
:1003D0008093900A81E08093A90108958FB7F894E3
:1003E0001092800A91E09093860A8FBF1895089525
:1003F000482F60E070E180E090E045CFCF93C82FB8
:1004000060E070E180E090E0B1DF8C1303C081E038
:10041000CF91089580E0ECDF8823D1F3CC23B9F3AA
:100420008C2FCF91E5CFE0E9F8E324E030E023839F
:10043000348380878CB381878DB382878EB3838723
:1004400008958627082E8295807F8025092E982F73
:1004500082958F700826869598278927880F880FA0
:10046000880F80250895AF92BF92CF92DF92EF92CE
:10047000FF920F931F93CF93DF9300D0CDB7DEB7DA
:100480008FEF9FEF89839A83E0909338F0909438B0
:100490008701085F1F4F80E9C82E88E3D82E5601D8
:1004A00081E0E81AF108A7EFEA16AFEFFA0649F083
:1004B000F50161915F0189819A81C3DF89839A8304
:1004C000EFCFF801E057F74C898180838A818183DF
:1004D0002FB7F894329690E4CE16DF0671F42FBF52
:1004E0000F900F90DF91CF911F910F91FF90EF90A0
:1004F000DF90CF90BF90AF900895D6018D916D01A0
:100500003091240835FFFCCF909324088093220873
:10051000E3CF1F93CF93DF93182FD0E0C0E087E0A5
:10052000AADE8123181759F086EA8A95F1F700C0F0
:100530002197A9F780E0DF91CF911F91089581E085
:10054000FACF6AE08DE198E306DE882311F080E1BE
:10055000E0CF80E008951F93CF93DF93182FD0E072
:10056000C0E08BE088DE8123181759F086EA8A956F
:10057000F1F700C02197A9F780E0DF91CF911F919B
:10058000089581E0FACF1F93CF93DF93182FEB01EB
:100590008BE071DE812318130BC086EA8A95F1F790
:1005A00000C02197A9F780E0DF91CF911F910895B6
:1005B00081E0FACF809168388D7F803309F038C0B0
:1005C0008093010A219A86EA8A95F1F700C0219862
:1005D0008FEC97E00197F1F700C000008091683838
:1005E000803311F50E9A8FEC97E00197F1F700C078
:1005F0000000809168388033C9F40E981092010A87
:1006000088EE93E0809308089093090880E089DDE4
:1006100080EB90E08093080890930908E698E39AAD
:1006200070E060E080E2AFCF2D9ADDCF2D98E6CF6D
:1006300008950F931F93CF93219881111DC0E49BC0
:1006400061C0B8DF64EF71E080E29DDF68E083E0C5
:1006500093DD811102C0C0E066C073DF8823D9F347
:1006600081E091DE8823B9F380E08DDE882399F361
:1006700070E060E080E287DFE09965C068E083E0D9
:100680007BDD882341F363E082E076DD882319F384
:100690008FEF9FEFDC0180936D3890936E38A093BD
:1006A0006F38B09370388BE0E6DD85FD2DC062E0D9
:1006B00087E298E350DDC82F00E718E3882359F25A
:1006C00024DDF80181938F01F8E300391F07C1F79A
:1006D00090917A38909369388EE180936D3880914B
:1006E000703880936E3890936F38813439F0A8F465
:1006F000803209F0B0CF81E480936E389333D1F427
:10070000ED9A1BC01FDEB8CF80E03DDE64EF71E0E4
:1007100080E239DF8111CBCF9ECF8D3649F084370F
:1007200009F099CFE09A8C2FCF911F910F910895E6
:10073000EF9AF8CF943319F4EC9AEE9AF3CF9533FD
:10074000E1F7EB9ADDCFC1E0EECF66E070E180E04B
:1007500090E00CDE837029F086EA8A95F1F700C0FC
:10076000F4CF8EB30895CF93C82FEFDF8C2FCF91A6
:1007700045CE62E070E180E090E0F8DD837029F022
:1007800086EA8A95F1F700C0F4CF8EB30895A89554
:100790009091010190FDFCCF98ED94BF80930001F2
:1007A0000895AF92BF92CF92DF92EF92FF920F9394
:1007B0001F93CF93DF93CDB7DEB72697CDBFDEBFB4
:1007C0008E831D828EE498E3CBD6892B09F0F1C08D
:1007D0009FB7F89410928A0A10928B0A28EC30E0A6
:1007E00020938C0A30938D0A81E08093850A809350
:1007F000860A8FE08093800A9FBF8E81833009F440
:1008000067C2843009F4ADC2E0E9F8E3823009F44C
:1008100070C022853385668577858089918942E815
:100820004087A901415051094115E2E05E0730F4CB
:100830002130F1E03F0740F020FF06C083EA90E05E
:10084000F2DD81E08D83B5C0A0E9B8E3F90131960E
:100850001396ED93FC9314972130310581F4E199BF
:100860000EC01996EC911997E43B49F46370E62F9A
:10087000F0E0EA59F74C878119968C93E2CFE19921
:1008800008C0E9E9F8E38FEF819321503109E1F7DE
:10089000D8CF452F5527452BE1F036952795F22ED9
:1008A00041E211DD00E918E3811102C080E0CACF06
:1008B0002CDCF801818729DCF8018287FA940E5F2D
:1008C0001F4FF110F5CF9FB381E0992309F4BACF00
:1008D000EDCF122F40E2F7DC882341F3E9E9EE2E59
:1008E000E8E3FE2E12DCF70181937F011150D1F76E
:1008F000EACF818502851385C684D784E088F18894
:100900004F2D552766277727452B462B472B19F068
:10091000EE24FF2480E2E09B62C0853C09F05FC0CA
:100920000115110529F0C8018F719927892B29F02C
:1009300083EA8093983811E03BC06AE089E298E34B
:100940000ADC811102C010E033C080E2E2DD8823BE
:10095000D1F381E018DD8823B1F380E014DD882332
:1009600091F370E060E080E20EDE84E0F4DD402F81
:10097000C701B60109DC63E08AE0FEDB68EC70E0E9
:1009800084E001DE60E287E0F7DBE19926C081E0E8
:10099000FADC8823C1F280E0F6DC182F882399F274
:1009A00070E060E080E2EFDDE19B02C088E0D3DD33
:1009B0001D8314DD88EC80930608A8958D8126960A
:1009C000CDBFDEBFDF91CF911F910F91FF90EF90D0
:1009D000DF90CF90BF90AF900895B3DDD8CFE19B6B
:1009E000B2CF803B39F008F4CCC090E4980F92303D
:1009F00008F0C7C080916A3890916B389C0102174B
:100A0000130709F4B6C13695279522303105B8F79A
:100A100080EA90E0BFC00197969587959C0120954C
:100A20003095D701C601B695A795979587958223EE
:100A3000932321E0409133385091343848175907B7
:100A400009F420E08093333890933438EC9B2DC028
:100A500021110EC082E087DE882309F474CF0130B3
:100A6000110591F44091A238C701B6010CDC16C003
:100A700088E079DE882309F466CF4FEFC701B6011D
:100A800002DC8111E7CF5FCFC8010197892F992739
:100A9000892B31F0A801C701B601B0DB80E020C08E
:100AA000402FC701B60170DBF9CFED9B22C0222396
:100AB000C9F04BDE4FEFC701B601E5DB882309F42F
:100AC00042CF88E050DE882309F43DCF3EDE01307E
:100AD000110551F44091A238C701B601D4DB84E07E
:100AE00042DE83C08FE0EECF402FC701B6014CDB62
:100AF000F6CFEE9B31C021110FC03BDE82E07EDCE1
:100B0000882309F420CF0130110599F44091A238CF
:100B1000C701B601B8DB17C02CDE88E06FDC882384
:100B200009F411CF4FEFC701B601ADDB8111E5CF5D
:100B30000ACFC8010197892F9927892B41F0A80175
:100B4000C701B6015BDB15DE80E058DC4EC0402FEC
:100B5000C701B60119DBF7CF21110DC00ADE013044
:100B6000110509F0B0C04091A238C701B6018BDB76
:100B700083E03EDC3AC0FDDD84E03ADC8111EECF5B
:100B8000E2CE9801215031092F3F310529F020F0A4
:100B900083EA90E048DCCFCE813B29F0C8F4803274
:100BA000F1F08232C9F4EC9B56C00330110580F796
:100BB00083E1D9DD882309F4C6CE0130110509F49B
:100BC00051CF22E042EA58E3C701B60199DB66CF74
:100BD000843B68F0843C39F382EA90E0DBCF202F3D
:100BE00042EA58E3C701B6018BDB182FE1CEED993D
:100BF000DACFEE99D8CFC8018057974C5C0100E955
:100C000018E3F601E059F8436F01F801828990E09A
:100C100089839A83C601800F911F8B839C83A9DDF2
:100C200024E0AE014F5F5F4F66E070E180E090E04E
:100C300067DB882309F487CE87E0DADB882309F4B1
:100C400082CE97DD877009F07ECE0F5F1F4FA01612
:100C5000B106D9F670CEED9B1AC00930110508F027
:100C600097CF8FE180DD882309F46DCE0130110527
:100C700039F44091A238C701B60105DB85E130CFD8
:100C8000202F42EA58E3C701B6013ADBF7CFEE9BCB
:100C900015C00330110508F07BCF6BDD83E1AEDBBF
:100CA000882309F450CE0130110509F42FCF22E03A
:100CB00042EA58E3C701B60123DB45CF01341105F1
:100CC00008F44CCF65CF402FC701B6015DDA50CF95
:100CD0008091993881116DCEE09B41C06AE085E337
:100CE00098E339DA882309F4E1CD88E012DC88231F
:100CF00009F4DCCD81E047DB882309F4D7CD80E01F
:100D000042DB882309F4D2CD70E060E081E03BDC77
:100D100010E000E087E0AFDA83FF07C0F6EAFA955B
:100D2000F1F700C001501109A9F7E29A0ADC882303
:100D300009F4BCCD81E027DB882309F4B7CD80E03E
:100D400022DB882309F4B2CD70E060E081E01BDC97
:100D500088E001DCE098E19A81E06BDC73CD2ADC6D
:100D6000BDCF81E015DB882309F46CCD80E010DB7A
:100D700069CDE29B50CE20E069CECF93DF9300D0C7
:100D8000CDB7DEB78A8384E08983898181508983E6
:100D9000882309F43AC0E19938C08981823019F476
:100DA0002A81211108C08981813031F4809168380D
:100DB000813311F0539BE49A8EE498E3D1D3892BCD
:100DC00011F58FB7F894EAE8FAE0108211822FE16A
:100DD00030E0ECE8FAE02083318321E0E5E8FAE056
:100DE0002083E6E8FAE020832FE0E0E8FAE02083C1
:100DF0008FBF80E01EDC882331F0E19904C0F39BB3
:100E00000CC0E09AE19AEADAC0CF8CB38695817083
:100E10000F900F90DF91CF910895F099F4CF87E074
:100E20002ADA84FF0FC081E0AEDA882361F380E024
:100E3000AADA882341F370E060E080E2A4DB88E076
:100E40008ADBDFCF7EDB8111EECFDDCF1124109264
:100E5000800A81E08093860A62E070E08EE498E385
:100E60009FD31F920F920FB60F9211242F933F938F
:100E70004F935F936F937F938F939F93AF93BF93A2
:100E8000EF93FF9385E083DC88E080931204E0E039
:100E9000F4E081858187489A69EA78E082E089DA1E
:100EA00081E076DA219AFF91EF91BF91AF919F9106
:100EB0008F917F916F915F914F913F912F910F9003
:100EC0000FBE0F901F90189588E061DC65E174E01B
:100ED00084E06FDA119BFECF85E059DC81E058DABF
:100EE00088E0809306088FEC97E00197F1F700C047
:100EF0000000019A109211040998219A69EA75E597
:100F000083E057DA80E043DC309BFECF81E03FDCBA
:100F1000FFCFCF93DF9300D0CDB7DEB7F89424E0B6
:100F2000E0E1F4E083E098E021939A95E9F7789680
:100F30008A95C9F788ED41E050E084BF4093610095
:100F40008CE08093310488EF8093010480E28093E9
:100F5000210481E0809341048093E00598E0909320
:100F6000E10530EA3093050445E04093E2059093B3
:100F7000520490935104909311042093130434E885
:100F8000309314043DE03093300439E03093120480
:100F9000909353041CBA1DBA90E1909390013AE0EB
:100FA0003093910191E1909392019DE4909393018C
:100FB00092E09093B1019093B3012093A00120930C
:100FC000A2012093CB0193E09093CA0120EC2093DF
:100FD000C9018093C80126E02093CF019093CE01F0
:100FE0002AEC2093CD018093CC012FE72093D701E9
:100FF0004093D60128E52093D50121E42093D40124
:101000002093C001809350018093030A29E8209324
:10101000260A25E42093280A8093270A8093290A28
:1010200080932B0A8FE88093000A87E08093910ACF
:10103000EDE9F0E045915491409328085093290838
:10104000109225089093270888E88093260880EB63
:1010500090E08093080890930908309305088BE28C
:101060008093070888EC80930608E69880914000FA
:1010700083FF02C080E08CD98091400080934000C3
:1010800080915000897F8260809350008091090494
:10109000882329F08091090480930904F7CF78947C
:1010A00012990FC069EA78E082E083D9129906C0EC
:1010B00080915000816080935000F8CF81E067DB21
:1010C000FFCF80916538813099F081E08093653859
:1010D0008AE895E480939C0A90939D0A10929A0A5C
:1010E00010929B0A85E48093900A83E08093A90183
:1010F00080915000816080935000F2E0AF2EB12CBF
:10110000A3E08A2E912CB5E02B2E312C1DE1412E2F
:10111000512C05EB602E08E3702E8091240887FF88
:10112000FCCF809120088B31C1F780939038E1E9A2
:10113000F8E38091240887FFFCCF809120088193F9
:1011400028E3E839F207A9F7809197388E3029F71C
:101150008091933890919438A0919538B0919638B9
:1011600085319240A105B105C0F608E918E3680190
:101170008EEF9FEF20919338309194388217930728
:101180005CF42091240827FFFCCF20912008D60191
:101190002D936D010196EECFE0E9EE2EE8E3FE2EF1
:1011A0008FEF9FEFEC14FD0429F0F70161917F01AF
:1011B00048D9F8CF892B09F0B0CFA89580919838FD
:1011C00021E030E0209393383093943830E8309326
:1011D00098388B3009F43AC108F04CC0833009F4D8
:1011E000BFC008F03DC0813009F468C008F4A8C150
:1011F00080919938853009F046C0D0909A388EEFAA
:101200008D0D883108F0A8C08D2D90E0FC01EE0F07
:10121000FF1FEB56FF4F0591149178010115110541
:1012200009F49AC080933F38909340381CD980913C
:10123000240886FFFCCF0034110530F48AEC80933B
:1012400026087801EE0CFF1CE0922808F09229088D
:10125000B5E0DB1619F0E8E1DE125FCFE59A5DCF6D
:10126000853009F413C108F418C1883061F080EAB0
:1012700090E074C0863148F4843128F48C3009F44D
:1012800028C18F30A1F7EFD848CF8633E1F38535F9
:1012900009F43CC1843359F7209191383091923848
:1012A00080914138909142382817390761F383E0E3
:1012B00078DA811102C18DEA90E050C08BE067DAE4
:1012C00088E08093120480916538882341F0109261
:1012D000653881E88093000A1092A9010F9881E097
:1012E00057D8219A489A429A1092520488EC8093D7
:1012F00026084092933850929438E8E7F0E08491C1
:10130000D8018D938D0131966A167B06C1F78091C5
:1013100007119091031189279091041189278093D7
:10132000A23880910811909105118927909106119A
:1013300089278093A338809109118093A4388091E4
:101340000A118093A53880910B118093A638809163
:101350000C118093A73897CF86EA90E064D893CF9A
:1013600080919938833081F138F4813079F082307E
:10137000B9F081EA90E0F2CF863071F18D3109F455
:1013800051C08530B1F780913F381FC082E0809313
:10139000993880939A38809293389092943810C0FC
:1013A00085E38093993887E080939A3882E280932E
:1013B0009B3886E080939C38209293383092943802
:1013C00081E8809398385FCF85E580939938A09223
:1013D0009338B0929438F4CFF1E0F0930006109275
:1013E000010684E58093020681E18093080691E37B
:1013F00090930C0680930A068091050681FFFCCF2E
:1014000080911406909115069C0136952795880FBA
:10141000991F10920006820F931F80939938909322
:101420009A38B9CFE09BA5CFE0E7F8E3A9E9B8E3A4
:1014300081918D9320E938E32E173F07C9F781E2A8
:1014400090E08093933890939438BACFE7991BCF6C
:1014500090919938892F8073803329F4909368385C
:1014600081E0913309F480E088DCE59B09C069EAFA
:1014700075E583E00E94D90180E089D9E79A03CF1E
:1014800065E174E084E00E94D901F8CF81E089D958
:101490008111F9CE8BEA90E061CF209191383091A3
:1014A000923880914138909142382817390709F4D1
:1014B000EACE82E076D9882349F0809191389091E4
:1014C00092388093413890934238DDCE85EA90E09F
:1014D00045CF80918C3990918D3980936A38909363
:1014E0006B3880918E3980936C3890918939292F8F
:1014F0002073203319F490936838C5CE803220F4DD
:1015000082E380936838BFCE80E3FBCFA9E9B8E3DC
:10151000A983BA8380919938853509F0B4CE90912A
:101520009A38993208F0AFCEDE011396E8E6F8E378
:1015300080E0891709F4A7CE2D9121938F5FF9CF11
:101540000E9433028091240886FFFCCFE19B02C0F9
:1015500084E027D988EDB1E084BFB093410087CE05
:10156000DC012D923D924D925D926D927D928D9215
:101570009D92AD92BD92CD92DD92ED92FD920D9332
:101580001D93CD93DD93FF91EF918DB78D938EB722
:101590008D938FB78D93ED93FD93882799270994A9
:1015A000DC01CB0181309105811D2D903D904D9046
:1015B0005D906D907D908D909D90AD90BD90CD9003
:1015C000DD90ED90FD900D911D91CD91DD91ED910E
:1015D000FD910D900FBEEDBFFEBFED91FD91099401
:0415E000F894FFCFAD
:1015E40055C85955C30855C80055C304554800008B
:1015F4000000550800000000550055000055E0208B
:10160400676F72504D564E55E655E0657426735516
:101614004D564EFFFF55E065736172454D564E04BD
:0E16240000FFFF55A0005504556A00000000AD
:00000001FF
