:1000000067C0000081C000007FC000007DC000000C
:100010007BC0000079C0000007C7000036C70000A1
:1000200073C0000071C000006FC000006DC0000010
:100030006BC00000EEC6000067C0000065C0000095
:1000400063C0000061C000005FC000005DC0000030
:100050005BC0000059C0000057C0000055C0000040
:1000600053C0000051C000004FC000004DC0000050
:100070004BC0000049C00000860102350702022281
:100080000602000000000000555044493441565219
:10009000000000000000001B418D204710230812C3
:1000A00004B6025B01DA0A0401AE0057002B0039E6
:1000B000019C00000000000B01C800A00085006446
:1000C00000500043003C0028001B0014000D0000FD
:1000D00011241FBECFEFCDBFDFE3DEBF18E3A0E0EA
:1000E000B8E3E6EFF5E102C005900D92A634B10742
:1000F000D9F72AE3A6E4B8E301C01D92AC3AB207EF
:10010000E1F7F5D60C94F90A7BCF8091040887FFBC
:10011000FCCF8091010880588FBB809100088EBB76
:100120000895CF93C82F8091040885FFFCCF80E409
:1001300080930408C09302088091040886FFFCCFD6
:10014000E4DF982F81E09C1380E09C1711F09FB3AF
:100150009FBBCF9108950F931F93CF93C62F8C0110
:10016000F80181918F01DDDF882311F0C150C1F7C3
:10017000CF911F910F910895E3E1F8E3806C8183A3
:10018000628363E0CF01E7CF0F931F93CF93C42F18
:100190006093413870934238809343389093443849
:1001A0008FEF840F80933C3884E680933E3865E07F
:1001B0008FE398E3D0DF8823E1F0A7DF8034C9F430
:1001C0006EE082E0D9DF8823A1F065E08AE398E35E
:1001D000C2DF882371F000EA18E3F80181918F01F2
:1001E000A0DFC150D1F766E082E0CF911F910F915F
:1001F000C3CF80E0CF911F910F91089580688093C5
:10020000123862E081E198E3A6DF7FCFCF93C42F5D
:1002100060930738709308388093093890930A38B0
:1002200065E085E098E397DF811102C090E00BC0A4
:100230006CDF8034D9F78C2F74DF8823B9F365DF46
:1002400091E0803499F7892FCF91089560934138D8
:1002500070934238809343389093443821502093D0
:100260003C38446040933E3865E08FE398E373DFA9
:10027000882339F04ADF803421F465E08AE398E38B
:100280006ACF80E00895FF920F931F93CF93DF937F
:10029000F42ED52FC22F40E6D9DF882369F00F2D29
:1002A0001D2FF80181918F013CDF882329F02DDF7C
:1002B000803411F4C150A9F781E0C11180E0DF91D1
:1002C000CF911F910F91FF900895CF93DF93C0E0DE
:1002D000D8E080EC94E48887998780E022DF80EB87
:1002E00090E088879987E698DF91CF910895609391
:1002F0000D3870930E3865E08BE098E32CDF8111A8
:1003000002C0E3DFF8CF01CF60E0811169E588E04A
:1003100033CFCF93C82FD9DF80E0C11189E5809317
:10032000023865E080E098E3CF9115CF8091613885
:10033000823099F082E08093613889EA98E0809376
:100340009C0A90939D0A10929A0A10929B0A8FE43D
:100350008093900A81E08093A90108958FB7F89463
:100360001092800A91E09093860A8FBF18950895A5
:100370009091010190FDFCCF98ED94BF8093000116
:10038000089581E0809300061092010684E5809331
:10039000020681E18093080691E390930C06809316
:1003A0000A068091050681FFFCCF2091140630914A
:1003B0001506C90196958795220F331F10920006E6
:1003C000820F931F0895482F60E070E180E090E075
:1003D0001DCFCF93C82F60E070E180E090E087DF11
:1003E0008C1303C081E0CF91089580E0ECDF882377
:1003F000D1F3CC23B9F38C2FCF91E5CFEEE8F8E31E
:1004000044E050E060E070E043835483658376838A
:1004100080878CB381878DB382878EB3838708955D
:100420008627082E8295807F8025092E982F829519
:100430008F700826869598278927880F880F880F40
:1004400080250895AF92BF92CF92DF92EF92FF92F4
:100450000F931F93CF93DF9300D0CDB7DEB78FEF0D
:100460009FEF89839A83E0909138F09092388701CA
:10047000085F1F4F8EE8C82E88E3D82E560181E012
:10048000E81AF108A7EFEA16AFEFFA0649F0F5010E
:1004900061915F0189819A81C3DF89839A83EFCF5C
:1004A000F801E257F74C898180838A8181832FB7D5
:1004B000F894329690E4CE16DF0671F42FBF0F90B9
:1004C0000F90DF91CF911F910F91FF90EF90DF90F0
:1004D000CF90BF90AF900895D6018D916D0130916E
:1004E000240835FFFCCF9093240880932208E3CFA3
:1004F0001F93CF93DF93182FD0E0C0E087E07EDE1C
:100500008123181759F086EA8A95F1F700C02197E0
:10051000A9F780E0DF91CF911F91089581E0FACF94
:100520006AE086E198E317DE882311F080E1E0CFEE
:1005300080E008951F93CF93DF93182FD0E0C0E0A1
:100540008BE05CDE8123181759F086EA8A95F1F773
:1005500000C02197A9F780E0DF91CF911F91089506
:1005600081E0FACF1F93CF93DF93182FEB018BE03D
:1005700045DE812318130BC086EA8A95F1F700C087
:100580002197A9F780E0DF91CF911F91089581E035
:10059000FACF809164388D7F803309F038C0809322
:1005A000010A219A86EA8A95F1F700C021988FEC1A
:1005B00097E00197F1F700C0000080916438803324
:1005C00011F50E9A8FEC97E00197F1F700C000004B
:1005D000809164388033C9F40E981092010A88EE35
:1005E00093E0809308089093090880E09ADD80EBFF
:1005F00090E08093080890930908E698E39A70E0E9
:1006000060E080E2AFCF2D9ADDCF2D98E6CF089540
:100610000F931F93CF93DF93219810926938109214
:100620006A3810926B3881111FC0E49B59C0B1DF4A
:1006300064EF71E080E296DF8FEF809369388093FA
:100640006A3880936B386CDF811102C080E06BC028
:1006500081E05ADE8823D1F380E056DE8823B1F3AF
:1006600070E060E080E27EDFE09950C066E082E00A
:1006700083DD882359F38FEF8093693880936A383C
:1006800080936B388BE0BADD85FD2CC062E080E2A0
:1006900098E361DDCEE6D8E30EE818E38823B1F2F3
:1006A00034DD89930C171D07D9F790917838909312
:1006B00065388EE18093693880916E3880936A380E
:1006C00090936B38813421F0B0F4803209F0BECFC2
:1006D00081E480936A38933369F5ED9AEE9A10C0FD
:1006E000F4DDC2CF80E015DE64EF71E080E23ADF36
:1006F0008111CCCFABCF8D36D9F0843709F0A6CF9E
:10070000E09A3FDE8A39904108F08CB389E076DDCB
:100710008370823099F488E590E080930808909384
:100720000908E69A81E0DF91CF911F910F9108951A
:10073000EF9AE6CF953391F6EB9ACFCF80EB90E02E
:100740008093080890930908E698ECCF66E070E182
:1007500080E090E0CCDD837029F086EA8A95F1F79D
:1007600000C0F4CF8EB3089562E070E180E090E0C5
:10077000BEDD837029F086EA8A95F1F700C0F4CFD8
:100780008EB30895AF92BF92CF92DF92EF92FF9215
:100790000F931F93CF93DF93CDB7DEB72697CDBFCF
:1007A000DEBF8E831D8286E498E3E3D6892B09F0B1
:1007B000F1C09FB7F89410928A0A10928B0A28EC25
:1007C00030E020938C0A30938D0A81E08093850A73
:1007D0008093860A8FE08093800A9FBF8E8183304A
:1007E00009F41FC2843009F465C2EEE8F8E38230F0
:1007F00009F470C022853385668577858089918963
:1008000042E84087A901415051094115E2E05E07E5
:1008100030F42130F1E03F0740F020FF06C083EACA
:1008200090E0ECDD81E08D83B5C0AEE8B8E3F9017E
:1008300031961396ED93FC9314972130310581F492
:10084000E1990EC01996EC911997E43B49F4637055
:10085000E62FF0E0EE59F74C878119968C93E2CFA2
:10086000E19908C0E7E9F8E38FEF8193215031095E
:10087000E1F7D8CF452F5527452BE1F03695279541
:10088000F22E41E2E3DC0EE818E3811102C080E0C1
:10089000CACF3BDCF801818738DCF8018287FA9403
:1008A0000E5F1F4FF110F5CF9FB381E0992309F43C
:1008B000BACFEDCF122F40E2C9DC882341F367E9BC
:1008C000E62E68E3F62E21DCF70181937F011150BB
:1008D000D1F7EACF818502851385C684D784E08865
:1008E000F1884F2D552766277727452B462B472B19
:1008F00019F0EE24FF2480E2E09B62C0853C09F001
:100900005FC00115110529F0C8018F719927892B46
:1009100029F083EA8093963811E03BC06AE082E2D6
:1009200098E319DC811102C010E033C080E2E0DD01
:100930008823D1F381E0E8DC8823B1F380E0E4DCB4
:10094000882391F370E060E080E20CDE84E0F2DD69
:10095000402FC701B60118DC63E08AE00DDC68ECCB
:1009600070E084E0FFDD60E287E006DCE19926C00C
:1009700081E0CADC8823C1F280E0C6DC182F88231E
:1009800099F270E060E080E2EDDDE19B02C088E07A
:10099000D1DD1D83E3DC88EC80930608A8958D816A
:1009A0002696CDBFDEBFDF91CF911F910F91FF90B3
:1009B000EF90DF90CF90BF90AF900895B1DDD8CF8A
:1009C000E19BB2CF803B39F008F497C090E4980FD8
:1009D000923008F092C080916638909167389C01FF
:1009E0000217130709F46EC1369527952230310599
:1009F000B8F780EA90E08AC0A9DE8FE091C1402F6D
:100A0000C701B601C1DB9AC1EE9B62C081110FC064
:100A1000ABDE82E0DEDC882309F486CF01301105ED
:100A200099F44091A038C701B601F0DB49C09CDEC3
:100A300088E0CFDC882309F477CF4FEFC701B601F8
:100A4000E5DB8111E5CF70CFC8010197892F992788
:100A5000892B09F438C0C0924138D0924238E092D4
:100A60004338F092443816950795F02EEAE3F8E300
:100A70000150028385E6848365E08FE398E36BDBB6
:100A80008823F1F042DB8034D9F46EE082E074DB3D
:100A90008823B1F065E08AE398E35DDB882381F089
:100AA0000EE818E3F80182893CDBF801838939DB21
:100AB000FA940E5F1F4FF110F5CF66E082E05CDB29
:100AC00053DE80E03DC1402FC701B6015DDBF8CFAA
:100AD00081110DC049DE0130110509F09DC0409122
:100AE000A038C701B60192DB83E06DDC3CC03CDE80
:100AF00084E069DC8111EECF17CF980121503109D4
:100B00002F3F310529F020F083EA90E077DC04CF15
:100B1000813B29F0D8F4803201F18232D9F4ED9B87
:100B20005FC00930110580F711DE8FE152DC8823A8
:100B300009F4FACE0130110509F04BC04091A038FC
:100B4000C701B60163DB02DE85E1FAC0843B68F0D1
:100B5000843C29F382EA90E0D9CF202F40EA58E381
:100B6000C701B60190DB182F14CFED99D8CFEE99BD
:100B7000D6CFC8018257974C5C010EE818E3F60106
:100B8000EE58F8436F01F801828990E089839A83D7
:100B9000C601800F911F8B839C83E6DD24E0AE01AC
:100BA0004F5F5F4F66E070E180E090E06CDB882390
:100BB00009F4BACE87E007DC882309F4B5CED4DD8A
:100BC000877009F0B1CE0F5F1F4FA016B106D9F69E
:100BD000A3CE202F40EA58E3C701B60154DBB3CFC0
:100BE000EE9B15C00330110508F08ECFBDDD83E10B
:100BF000F0DB882309F498CE0130110509F411CFF8
:100C000022E040EA58E3C701B6013DDB59CF013489
:100C1000110508F45FCF78CF402FC701B601B4DAD1
:100C200063CF809197388111B5CEE09B41C06AE0D7
:100C30008CE298E390DA882309F429CE88E058DC26
:100C4000882309F424CE81E05FDB882309F41FCEDA
:100C500080E05ADB882309F41ACE70E060E081E07E
:100C600081DC10E000E087E0C9DA83FF07C0F6EA24
:100C7000FA95F1F700C001501109A9F7E29A50DC8A
:100C8000882309F404CE81E03FDB882309F4FFCDFB
:100C900080E03ADB882309F4FACD70E060E081E07F
:100CA00061DC88E047DCE098E19A81E0B1DCBBCD13
:100CB00070DCBDCF81E02DDB882309F4B4CD80E06A
:100CC00028DBB1CDE29914C040915D3850915E3877
:100CD00060915F3870916038C416D506E606F70655
:100CE00039F001979C012C213D2181E0232B09F053
:100CF00080E0C0925D38D0925E38E0925F38F0922A
:100D00006038ED9B81CE882309F476CE1FDD4FEF4E
:100D1000C701B6017BDA882309F406CE17DD88E027
:100D200058DB882309F400CE11DD0130110509F0EC
:100D300066CE4091A038C701B60168DA07DD84E0CD
:100D400048DB11CFCF93DF931F92CDB7DEB784E09E
:100D50008983898181508983882311F0E19B07C0B1
:100D60008CB3869581700F90DF91CF91089586E4C2
:100D700098E3FFD3892B31F58FB7F894EAE8FAE0CE
:100D8000108211822FE130E0ECE8FAE02083318319
:100D900021E0E5E8FAE02083E6E8FAE020832FE0AE
:100DA000E0E8FAE020838FBF80E032DC882351F056
:100DB000E19908C070E060E080E2D4DBF39B10C0F2
:100DC000E09AE19ACBDA8981823008F0C2CF809133
:100DD0006438813309F4BDCF5399BBCFE49AB9CFBE
:100DE000F099F0CF87E00ADA84FF0FC081E08CDA57
:100DF000882341F380E088DA882321F370E060E003
:100E000080E2B0DB88E096DBDBCF8ADB8111EECFBE
:100E1000D9CF11241092800A81E08093860A62E083
:100E200070E086E498E3C5D31F920F920FB60F923D
:100E300011242F933F934F935F936F937F938F93DF
:100E40009F93AF93BF93EF93FF93A89586E090DABB
:100E500088E080931204E0E0F4E081858187489A7D
:100E600065DA81E056DA219AFF91EF91BF91AF9157
:100E70009F918F917F916F915F914F913F912F91B2
:100E80000F900FBE0F901F901895A89586E070DA0E
:100E90004DDA81E03EDA88E0809306088FEC97E037
:100EA0000197F1F700C00000019A1092110409980F
:100EB000219A80916138833099F083E08093613882
:100EC00089EA95E580939C0A90939D0A10929A0A6C
:100ED00010929B0A8FE48093900A81E08093A9018D
:100EE00080E046DA309BFECF81E042DAFFCFCF933D
:100EF000DF9300D0CDB7DEB7F89424E0E0E1F4E072
:100F000083E098E021939A95E9F778968A95C9F756
:100F100088ED41E050E084BF409361008CE0809315
:100F2000310488EF8093010480E28093210481E002
:100F3000809341048093E00598E09093E10530EAC6
:100F40003093050445E04093E2059093520490935A
:100F50005104909311042093130434E83093140443
:100F60003DE03093300439E0309312049093530401
:100F70001CBA1DBA90E1909390013AE03093910130
:100F800091E1909392019DE49093930192E090936C
:100F9000B1019093B3012093A0012093A20120936B
:100FA000CB0193E09093CA0120EC2093C901809378
:100FB000C80126E02093CF019093CE012AEC209324
:100FC000CD018093CC012FE72093D7014093D60128
:100FD00028E52093D50121E42093D4012093C0017A
:100FE000809350018093030A29E82093260A25E480
:100FF0002093280A8093270A8093290A80932B0A3A
:101000008FE88093000A87E08093910AEDE9F0E091
:10101000459154914093280850932908109225082F
:101020009093270888E88093260880EB90E08093CF
:10103000080890930908309305088BE2809307080D
:1010400088EC80930608E6988091400083FF02C0F8
:1010500080E05FD9809140008093400080915000F3
:10106000897F82608093500080910904882329F051
:101070008091090480930904F7CF789412990CC0E9
:1010800055D9129906C0809150008160809350001C
:10109000F8CF81E06DD9FFCF80916138813099F030
:1010A00081E0809361388AE895E480939C0A90936C
:1010B0009D0A10929A0A10929B0A85E48093900AE6
:1010C00083E08093A901809150008160809350005B
:1010D00043E0242E312C44244A94542C32016DE1F7
:1010E000862E912CA12CB12C8091240887FFFCCF57
:1010F000809120088B31C1F780938E38EFE8F8E3B8
:101100008091240887FFFCCF80912008819328E3F9
:10111000E639F207A9F7809195388E3029F780914A
:10112000913890919238A0919338B091943885314C
:101130009240A105B105C0F606E918E368018EEFFB
:101140009FEF2091913830919238821793075CF489
:101150002091240827FFFCCF20912008D6012D9351
:101160006D010196EECF3EE8E32E38E3F32E8FEFCC
:101170009FEFEC14FD0429F0F70161917F0150D934
:10118000F8CF892B09F0B0CFA8958091963821E04F
:1011900030E040E050E02093913830939238409313
:1011A00093385093943890E8909396388B3009F4A4
:1011B00034C108F04CC0833009F4CDC008F03DC004
:1011C000813009F468C008F4C4C180919738853033
:1011D00009F046C0D09098388EEF8D0D883108F018
:1011E000B6C08D2D90E0FC01EE0FFF1FEB56FF4FB8
:1011F0000591149178010115110509F4A8C0809397
:101200003638909337381ED98091240886FFFCCF5A
:101210000034110530F48AEC809326087801EE0C36
:10122000FF1CE0922808F092290835E0D31619F047
:1012300048E1D41259CFE59A57CF853009F42FC130
:1012400008F434C1883061F080EA90E082C08631D1
:1012500048F4843128F48C3009F444C18F30A1F76C
:10126000F1D842CF8633E1F3853509F458C1843390
:1012700059F720918F38309190388091383890917B
:1012800039382817390761F383E07CDA81111EC1F0
:101290008DEA90E05EC08BE06BD888E0809312040A
:1012A00080916138882341F01092613881E8809301
:1012B000000A1092A9010F9881E02BD8219A489A30
:1012C000429A1092520488EC8093260840925D382E
:1012D00050925E3860925F38709260388092913898
:1012E00090929238A0929338B0929438E8E7F0E068
:1012F0008491D8018D938D01319623EB38E32A1721
:101300003B07B1F7809107119091031189279091C4
:10131000041189278093A0388091081190910511BC
:1013200089279091061189278093A138809109110E
:101330008093A23880910A118093A33880910B1179
:101340008093A43880910C118093A53889CF86EAC8
:1013500090E054D885CF809197388330C9F138F424
:101360008130B1F08230F1F081EA90E0F2CF863046
:10137000C9F18D31F1F18530B9F78091363880931C
:101380009738E2E0F0E0E0939138F09392381CC097
:1013900082E08093973880939838209291383092E9
:1013A000923812C085E38093973887E0809398380D
:1013B00082E28093993886E080939A3885E090E0C5
:1013C000809391389093923881E88093963848CFF3
:1013D00085E580939738A2E0B0E0A0939138B09370
:1013E0009238F2CF0E94C101809397389093983839
:1013F000D4CFE09BB9CFEEE6F8E3A7E9B8E381915B
:101400008D932EE838E32E173F07C9F741E250E0ED
:101410004093913850939238D7CFE79921CF80915C
:101420009738982F9073903329F4809364388133E0
:1014300009F0E49A87DC80916138E59B1AC083301B
:1014400099F083E08093613889EA95E580939C0A5E
:1014500090939D0A10929A0A10929B0A8FE48093AF
:10146000900A81E08093A90180E00E94B801E79A88
:10147000F7CE8430E1F384E080936138A5E1B4E0F5
:10148000A0939C0AB0939D0A10929A0A10929B0A0C
:101490008FE48093900A81E08093A901E8CF81E0F6
:1014A00071D98111DDCE8BEA90E053CF20918F3836
:1014B0003091903880913838909139382817390711
:1014C00009F4CECE82E05ED9882349F080918F382E
:1014D000909190388093383890933938C1CE85EA0E
:1014E00090E037CF80918A3990918B39809366381C
:1014F0009093673880918C398093683890918739C0
:10150000292F2073203319F490936438A9CE8032A8
:1015100020F482E380936438A3CE80E3FBCFE7E935
:10152000F8E3E983FA8380919738853509F098CEFE
:10153000909198389B3208F093CEDE011396E4E642
:10154000F8E380E0981709F48BCE2D9121938F5FFB
:10155000F9CF0E9422028091240886FFFCCFE19BF4
:1015600002C084E00FD988ED91E084BF90934100E0
:101570006BCEDC012D923D924D925D926D927D92EB
:101580008D929D92AD92BD92CD92DD92ED92FD92A3
:101590000D931D93CD93DD93FF91EF918DB78D93B7
:1015A0008EB78D938FB78D93ED93FD9388279927F1
:1015B0000994DC01CB0181309105811D2D903D9076
:1015C0004D905D906D907D908D909D90AD90BD9073
:1015D000CD90DD90ED90FD900D911D91CD91DD911F
:1015E000ED91FD910D900FBEEDBFFEBFED91FD9110
:0615F0000994F894FFCFFE
:1015F60055C800C304554800000000550800000007
:1016060000550055000055E020676F72504D564E4C
:1016160055E655E065742673554D564E55E065738F
:101626006172454D564E0400FFFF55A00055045506
:061636006A000000000044
:00000001FF
