:1000000067C0000081C000007FC000007DC000000C
:100010007BC0000079C00000CAC60000FBC600001B
:1000200073C0000071C000006FC000006DC0000010
:100030006BC00000B1C6000067C0000065C00000D2
:1000400063C0000061C000005FC000005DC0000030
:100050005BC0000059C0000057C0000055C0000040
:1000600053C0000051C000004FC000004DC0000050
:100070004BC0000049C00000860102350702022281
:100080000602000000000000555044493441565219
:10009000000000000000001B418D204710230812C3
:1000A00004B6025B01DA0A0401AE0057002B0039E6
:1000B000019C00000000000B01C800A00085006446
:1000C00000500043003C0028001B0014000D0000FD
:1000D00011241FBECFEFCDBFDFE3DEBF18E3A0E0EA
:1000E000B8E3EAE3F5E102C005900D92A634B1074A
:1000F000D9F72AE3A6E4B8E301C01D92AA3AB207F1
:10010000E1F7A9D60C949B0A7BCF8091040887FF66
:10011000FCCF8091010880588FBB809100088EBB76
:100120000895CF93C82F8091040885FFFCCF80E409
:1001300080930408C09302088091040886FFFCCFD6
:10014000E4DF982F81E09C1380E09C1711F09FB3AF
:100150009FBBCF9108950F931F93CF93C62F8C0110
:10016000F80181918F01DDDF882311F0C150C1F7C3
:10017000CF911F910F910895E3E1F8E3806C8183A3
:10018000628363E0CF01E7CF0F931F93CF93C42F18
:100190006093413870934238809343389093443849
:1001A0008FEF840F80933C3884E680933E3865E07F
:1001B0008FE398E3D0DF8823E1F0A7DF8034C9F430
:1001C0006EE082E0D9DF8823A1F065E08AE398E35E
:1001D000C2DF882371F00EE918E3F80181918F01E5
:1001E000A0DFC150D1F766E082E0CF911F910F915F
:1001F000C3CF80E0CF911F910F91089580688093C5
:10020000123862E081E198E3A6DF7FCFCF93C42F5D
:1002100060930738709308388093093890930A38B0
:1002200065E085E098E397DF811102C090E00BC0A4
:100230006CDF8034D9F78C2F74DF8823B9F365DF46
:1002400091E0803499F7892FCF91089560934138D8
:1002500070934238809343389093443821502093D0
:100260003C38446040933E3865E08FE398E373DFA9
:10027000882339F04ADF803421F465E08AE398E38B
:100280006ACF80E00895FF920F931F93CF93DF937F
:10029000F42ED52FC22F40E6D9DF882369F00F2D29
:1002A0001D2FF80181918F013CDF882329F02DDF7C
:1002B000803411F4C150A9F781E0C11180E0DF91D1
:1002C000CF911F910F91FF9008958091040885FFB1
:1002D000FCCF80EC94E4809308089093090880E0B8
:1002E00020DF80EB90E08093080890930908E6985F
:1002F000089560930D3870930E3865E08BE098E3B5
:100300002ADF811102C0E1DFF8CFFFCE60E081116A
:1003100069E588E031CFCF93119B0CC0C82FD5DFA2
:1003200080E0C11189E58093023865E080E098E3C0
:10033000CF9111CF80E0CF910895909161389817B7
:1003400081F08093613860939C0A70939D0A1092AB
:100350009A0A10929B0A8FE48093900A81E080931E
:10036000A90108958FB7F8941092800A91E09093B4
:10037000860A8FBF18950895482F60E070E180E0ED
:1003800090E044CFCF93C82F60E070E180E090E030
:10039000B0DF8C1303C081E0CF91089580E0ECDFE3
:1003A0008823D1F3CC23B9F38C2FCF91E5CFECE8A0
:1003B000F8E324E030E02383348380878CB38187A3
:1003C0008DB382878EB3838708958627082E829502
:1003D000807F8025092E982F82958F70082686951C
:1003E00098278927880F880F880F80250895AF9256
:1003F000BF92CF92DF92EF92FF920F931F93CF9312
:10040000DF9300D0CDB7DEB78FEF9FEF89839A835C
:10041000E0908F38F09090388701085F1F4F8CE88C
:10042000C82E88E3D82E560181E0E81AF108A7EF1C
:10043000EA16AFEFFA0649F0F50161915F01898193
:100440009A81C3DF89839A83EFCFF801E457F74C91
:10045000898180838A8181832FB7F894329690E4D2
:10046000CE16DF0671F42FBF0F900F90DF91CF9162
:100470001F910F91FF90EF90DF90CF90BF90AF90C2
:100480000895D6018D916D013091240835FFFCCF80
:100490009093240880932208E3CF1F93CF93DF9398
:1004A000182FD0E0C0E087E0A9DE8123181759F0AB
:1004B00086EA8A95F1F700C02197A9F780E0DF91DD
:1004C000CF911F91089581E0FACF6AE086E198E329
:1004D00042DE882311F080E1E0CF80E008951F9391
:1004E000CF93DF93182FD0E0C0E08BE087DE81232D
:1004F000181759F086EA8A95F1F700C02197A9F7F5
:1005000080E0DF91CF911F91089581E0FACF1F9392
:10051000CF93DF93182FEB018BE070DE812318134C
:100520000BC086EA8A95F1F700C02197A9F780E011
:10053000DF91CF911F91089581E0FACF0F931F9320
:10054000CF9366E082E018DE811102C0C0E049C0AE
:100550008FEF9FEFDC018093693890936A38A09306
:100560006B38B0936C388BE049DE85FD2BC062E0C0
:1005700084E398E3F0DDC82F0CE618E3882331F319
:10058000C4DDF80181938F01F8E30C381F07C1F730
:1005900090917638909365388EE180936938809198
:1005A0006C3880936A3890936B38813431F098F4CA
:1005B000803261F681E480936A389333C9F4ED9A0E
:1005C000EE9A0EC080E0A7DE64EF71E080E29FDF6C
:1005D0008111CDCFBBCF8D3649F0843709F0B6CF2E
:1005E000E09A8C2FCF911F910F910895EF9AF8CF39
:1005F000953331F7EB9AE3CF809164388D7F803368
:1006000009F038C08093010A219A86EA8A95F1F7A9
:1006100000C021988FEC97E00197F1F700C000002F
:1006200080916438803311F50E9A8FEC97E0019732
:10063000F1F700C00000809164388033C9F40E984F
:100640001092010A88EE93E08093080890930908BD
:1006500080E067DD80EB90E08093080890930908C4
:10066000E698E39A70E060E080E251CF2D9ADDCF0A
:100670002D98E6CF089566E070E180E090E039DEE5
:10068000837029F086EA8A95F1F700C0F4CF8EB323
:10069000089562E070E180E090E02BDE837029F045
:1006A00086EA8A95F1F700C0F4CF8EB30895A89535
:1006B0009091010190FDFCCF98ED94BF80930001D3
:1006C0000895CF93DF9300D0CDB7DEB78A8384E05F
:1006D0008983898181508983882309F44CC0E199F9
:1006E0004AC08981823019F42A81211108C0898188
:1006F000813031F480916438813311F0539BE49A56
:1007000086E498E3D8D6892BA1F58FB7F894EAE868
:10071000FAE0108211822FE130E0ECE8FAE0208369
:10072000318321E0E5E8FAE02083E6E8FAE020837F
:100730002FE0E0E8FAE020838FBF2198E49B23C0FC
:100740005BDF64EF71E080E2E2DEBFDE882389F0E8
:1007500081E0DCDD882369F080E0D8DD882349F082
:1007600070E060E080E2D3DEE0990FC0E7DE811147
:100770000CC0F8DDAECF8CB3869581700F900F90D2
:10078000DF91CF910895A1DDEFCFE199F2CF70E035
:1007900060E080E2BCDEF39B03C0E09AE19AE9CF1F
:1007A000F099E7CF87E02ADD84FF0FC081E0AEDD5E
:1007B0008823F9F280E0AADD8823D9F270E060E0B6
:1007C00080E2A5DE88E08BDEE8CF7FDE8111EECF10
:1007D000D0CFAF92BF92CF92DF92EF92FF920F9362
:1007E0001F93CF93DF93CDB7DEB72697CDBFDEBF84
:1007F0008E831D8286E498E35ED6892B09F0F1C0D2
:100800009FB7F89410928A0A10928B0A28EC30E075
:1008100020938C0A30938D0A81E08093850A80931F
:10082000860A8FE08093800A9FBF8E81833009F40F
:100830001FC2843009F468C2ECE8F8E3823009F49E
:1008400070C022853385668577858089918942E8E5
:100850004087A901415051094115E2E05E0730F49B
:100860002130F1E03F0740F020FF06C083EA90E02E
:100870009EDD81E08D83B5C0ACE8B8E3F901319627
:100880001396ED93FC9314972130310581F4E1998F
:100890000EC01996EC911997E43B49F46370E62F6A
:1008A000F0E0EE59F74C878119968C93E2CFE199ED
:1008B00008C0E5E9F8E38FEF819321503109E1F7B2
:1008C000D8CF452F5527452BE1F036952795F22EA9
:1008D00041E2BCDC0CE818E3811102C080E0CACF21
:1008E00014DCF801818711DCF8018287FA940E5F2D
:1008F0001F4FF110F5CF9FB381E0992309F4BACFD0
:10090000EDCF122F40E2A2DC882341F365E9E62E09
:1009100068E3F62EFADBF70181937F011150D1F7DE
:10092000EACF818502851385C684D784E088F18863
:100930004F2D552766277727452B462B472B19F038
:10094000EE24FF2480E2E09B62C0853C09F05FC09A
:100950000115110529F0C8018F719927892B29F0FC
:1009600083EA8093943811E03BC06AE080E298E328
:10097000F2DB811102C010E033C080E28EDD8823FB
:10098000D1F381E0C3DC8823B1F380E0BFDC8823AE
:1009900091F370E060E080E2BADD84E0A0DD402FFA
:1009A000C701B601F1DB63E08AE0E6DB68EC70E0EA
:1009B00084E0ADDD60E287E0DFDBE19926C081E025
:1009C000A5DC8823C1F280E0A1DC182F882399F2EE
:1009D00070E060E080E29BDDE19B02C088E07FDDAB
:1009E0001D83C0DC88EC80930608A8958D8126962F
:1009F000CDBFDEBFDF91CF911F910F91FF90EF90A0
:100A0000DF90CF90BF90AF9008955FDDD8CFE19B8E
:100A1000B2CF803B39F008F497C090E4980F923041
:100A200008F092C080916638909167389C01021757
:100A3000130709F471C13695279522303105B8F7AF
:100A400080EA90E08AC017DE8FE094C1402FC70192
:100A5000B6019ADB9DC1EE9B62C081110FC019DE09
:100A600082E090DC882309F486CF0130110599F4E7
:100A700040919E38C701B601C9DB49C00ADE88E053
:100A800081DC882309F477CF4FEFC701B601BEDBC5
:100A90008111E5CF70CFC8010197892F9927892B44
:100AA00009F438C0C0924138D0924238E0924338BD
:100AB000F092443816950795F02EEAE3F8E30150DA
:100AC000028385E6848365E08FE398E344DB882333
:100AD000F1F01BDB8034D9F46EE082E04DDB88233B
:100AE000B1F065E08AE398E336DB882381F00CE817
:100AF00018E3F801828915DBF801838912DBFA9487
:100B00000E5F1F4FF110F5CF66E082E035DBC1DDEF
:100B100080E040C1402FC701B60136DBF8CF81111C
:100B20000DC0B7DD0130110509F09DC040919E3820
:100B3000C701B6016BDB83E01FDC3CC0AADD84E0AB
:100B40001BDC8111EECF17CF9801215031092F3FC7
:100B5000310529F020F083EA90E029DC04CF813BC5
:100B600029F0D8F4803201F18232D9F4ED9B5FC0D4
:100B70000930110580F77FDD8FE104DC882309F45B
:100B8000FACE0130110509F04BC040919E38C701E3
:100B9000B6013CDB70DD85E1FDC0843B68F0843C40
:100BA00029F382EA90E0D9CF202F4EE958E3C7011C
:100BB000B60169DB182F14CFED99D8CFEE99D6CFB7
:100BC000C8018457974C5C010CE818E3F601EC5817
:100BD000F8436F01F801828990E089839A83C60106
:100BE000800F911F8B839C8354DD24E0AE014F5F07
:100BF0005F4F66E070E180E090E045DB882309F418
:100C0000BACE87E0B9DB882309F4B5CE42DD877020
:100C100009F0B1CE0F5F1F4FA016B106D9F6A3CED3
:100C2000202F4EE958E3C701B6012DDBB3CFEE9B71
:100C300015C00330110508F08ECF2BDD83E1A2DB58
:100C4000882309F498CE0130110509F411CF22E070
:100C50004EE958E3C701B60116DB59CF013411053F
:100C600008F45FCF78CF402FC701B6018DDA63CF8C
:100C7000809195388111B5CEE09B44C06AE08AE24C
:100C800098E369DA882309F476CE88E006DC8823C5
:100C900009F471CE81E03ADB882309F46CCE80E060
:100CA00035DB882309F467CE70E060E081E02FDC5B
:100CB00010E000E087E0A2DA83FF07C0F6EAFA95C9
:100CC000F1F700C001501109A9F7E29AFEDB882371
:100CD00009F451CE81E01ADB882309F44CCE80E080
:100CE00015DB182F882309F446CE70E060E081E020
:100CF0000EDC88E0F4DBE098E19A2198E09970CE70
:100D00001DDC58CF79DCBACF81E005DB882309F4FC
:100D1000B1CD80E000DBAECDE29914C040915D38EA
:100D200050915E3860915F3870916038C416D50676
:100D3000E606F70639F001979C012C213D2181E060
:100D4000232B09F080E0C0925D38D0925E38E092AB
:100D50005F38F0926038ED9B7ECE882309F473CE25
:100D60008ADC4FEFC701B60151DA882309F403CEBC
:100D700082DC88E007DB882309F4FDCD7CDC0130D0
:100D8000110509F063CE40919E38C701B6013EDAE5
:100D900072DC84E0F7DA0ECF11241092800A81E031
:100DA0008093860A62E070E086E498E3A4D31F9201
:100DB0000F920FB60F9211242F933F934F935F938F
:100DC0006F937F938F939F93AF93BF93EF93FF9313
:100DD00087E06DDC88E080931204E0E0F4E0818538
:100DE0008187489A69EA78E082E0A7DA81E093DABD
:100DF000219AFF91EF91BF91AF919F918F917F9138
:100E00006F915F914F913F912F910F900FBE0F9077
:100E10001F90189587E04BDC69EA78E082E08DDA74
:100E200081E079DA88E0809306088FEC97E00197FB
:100E3000F1F700C00000019A109211040998219A5C
:100E400069EA75E583E079DA80E031DC309BFECF3A
:100E500081E02DDCFFCFCF93DF9300D0CDB7DEB79D
:100E6000F89424E0E0E1F4E083E098E021939A959F
:100E7000E9F778968A95C9F788ED41E050E084BF9C
:100E8000409361008CE08093310488EF80930104EB
:100E900080E28093210481E0809341048093E00507
:100EA00098E09093E10530EA3093050445E04093E3
:100EB000E20590935204909351049093110420936F
:100EC000130434E8309314043DE03093300439E0E7
:100ED00030931204909353041CBA1DBA90E190937E
:100EE00090013AE03093910191E1909392019DE459
:100EF0009093930192E09093B1019093B30120936A
:100F0000A0012093A2012093CB0193E09093CA010A
:100F100020EC2093C9018093C80126E02093CF01E3
:100F20009093CE012AEC2093CD018093CC012FE742
:100F30002093D7014093D60128E52093D50121E4E1
:100F40002093D4012093C001809350018093030A21
:100F500029E82093260A25E42093280A8093270A6B
:100F60008093290A80932B0A8FE88093000A87E0F8
:100F70008093910AEDE9F0E045915491409328085F
:100F800050932908109225089093270888E88093A9
:100F9000260880EB90E0809308089093090830932E
:100FA00005088BE28093070888EC80930608E69892
:100FB0008091400083FF02C080E0ADD98091400065
:100FC0008093400080915000897F82608093500020
:100FD00080910904882329F08091090480930904F1
:100FE000F7CF789412990FC069EA78E082E0A5D92A
:100FF000129906C080915000816080935000F8CF14
:1010000081E055DBFFCF80916138813099F081E03C
:10101000809361388AE895E480939C0A90939D0AB6
:1010200010929A0A10929B0A85E48093900A83E0BA
:101030008093A90180915000816080935000F0E876
:10104000AF2EBB24B394A2E02A2E312CB3E08B2E1A
:10105000912C44244A94542C32018091240887FF17
:10106000FCCF809120088B31C1F780938C38EDE85C
:10107000F8E38091240887FFFCCF809120088193BA
:1010800028E3E439F207A9F7809193388E3029F7E5
:1010900080918F3890919038A0919138B09192388A
:1010A00085319240A105B105C0F604E918E3680155
:1010B0008EEF9FEF20918F383091903882179307F1
:1010C0005CF42091240827FFFCCF20912008D60152
:1010D0002D936D010196EECFECE8EE2EE8E3FE2EA7
:1010E0008FEF9FEFEC14FD0429F0F70161917F0170
:1010F0006CD9F8CF892B09F0B0CFA895809194389E
:1011000021E030E020938F3830939038A0929438CB
:101110008B3009F447C108F04CC0833009F4CBC0D0
:1011200008F03DC0813009F468C008F4B5C1809171
:101130009538853009F046C0D09096388EEF8D0DE9
:10114000883108F0B4C08D2D90E0FC01EE0FFF1F38
:10115000EB56FF4F0591149178010115110509F423
:10116000A6C0809336389093373841D980912408AF
:1011700086FFFCCF0034110530F48AEC80932608FA
:101180007801EE0CFF1CE0922808F092290835E067
:10119000D31619F088E1D81260CFE59A5ECF85307A
:1011A00009F420C108F425C1883061F080EA90E09C
:1011B00080C0863148F4843128F48C3009F435C17C
:1011C0008F30A1F714D949CF8633E1F3853509F47F
:1011D00049C1843359F720918D3830918E388091F0
:1011E0003838909139382817390761F383E0F1DAFC
:1011F00081110FC18DEA90E05CC08BE058DA88E085
:101200008093120480916138882341F010926138F4
:1012100081E88093000A1092A9010F9881E07BD8A1
:10122000219A489A429A1092520488EC8093260898
:1012300040925D3850925E3860925F3870926038AC
:101240008DE190E080938F3890939038E8E7F0E05C
:101250008491D8018D938D01319621EB38E32A17C3
:101260003B07B1F780910711909103118927909165
:101270000411892780939E3880910811909105115F
:10128000892790910611892780939F3880910911B1
:101290008093A03880910A118093A13880910B111E
:1012A0008093A23880910C118093A3388BCF86EA6B
:1012B00090E07DD887CF80919538833091F138F4D4
:1012C000813079F08230B9F081EA90E0F2CF863057
:1012D00081F18D3109F452C08530B1F780913638F3
:1012E00021C082E0809395388093963880928F3821
:1012F0009092903812C085E38093953887E0809370
:10130000963882E28093973886E080939838A5E0FB
:10131000B0E0A0938F38B093903881E880939438F0
:1013200051CF85E58093953820928F383092903850
:10133000F4CFB09200061092010684E58093020675
:1013400081E18093080691E390930C0680930A064E
:101350008091050681FFFCCF8091140690911506BF
:101360009C0136952795880F991F10920006820FD1
:10137000931F8093953890939638B8CFE09BA4CF75
:10138000ECE6F8E3A5E9B8E381918D932CE838E326
:101390002E173F07C9F781E290E080938F38909332
:1013A0009038BBCFE7990ECF90919538892F8073F5
:1013B000803329F49093643881E0913309F480E01C
:1013C00080D9E59B09C069EA75E583E00E949D012B
:1013D00080E06DD9E79AF6CE65E174E084E00E9482
:1013E0009D01F8CF81E0F5D98111ECCE8BEA90E038
:1013F00060CF20918D3830918E388091383890911F
:1014000039382817390709F4DDCE82E0E2D988237C
:1014100049F080918D3890918E3880933838909330
:101420003938D0CE85EA90E044CF809188399091C8
:101430008939809366389093673880918A39809390
:10144000683890918539292F2073203319F49093AF
:101450006438B8CE803220F482E380936438B2CE10
:1014600080E3FBCFA5E9B8E3A983BA8380919538DF
:10147000853509F0A7CE90919638993208F0A2CE22
:10148000DE011396E4E6F8E380E0891709F49ACECA
:101490002D9121938F5FF9CF0E94F701809124084D
:1014A00086FFFCCFE19B02C084E093D988ED84BF26
:1014B000B09241007BCEDC012D923D924D925D9227
:1014C0006D927D928D929D92AD92BD92CD92DD9264
:1014D000ED92FD920D931D93CD93DD93FF91EF91CE
:1014E0008DB78D938EB78D938FB78D93ED93FD93BD
:1014F000882799270994DC01CB0181309105811D52
:101500002D903D904D905D906D907D908D909D9033
:10151000AD90BD90CD90DD90ED90FD900D911D9121
:10152000CD91DD91ED91FD910D900FBEEDBFFEBF10
:0A153000ED91FD910994F894FFCFAE
:10153A0055C800C3045548000000005508000000C3
:10154A0000550055000055E020676F72504D564E09
:10155A0055E065742673554D564E55E065736172B4
:10156A00454D564E55E60400FFFF55A0005504555B
:06157A006A000000000001
:00000001FF
