:1000000067C0000081C000007FC000007DC000000C
:100010007BC0000079C00000F5C700000C943808D0
:1000200073C0000071C000006FC000006DC0000010
:100030006BC00000DCC7000067C0000065C00000A6
:1000400063C0000061C000005FC000005DC0000030
:100050005BC0000059C0000057C0000055C0000040
:1000600053C0000051C000004FC000004DC0000050
:100070004BC0000049C000008601010102010135AA
:1000800007010000000000004A5441474943452051
:100090006D6B49490000001B418D20471023081259
:1000A00004B6025B01DA0A0401AE0057002B0039E6
:1000B000019C00000000000B01C800A00085006446
:1000C00000500043003C0028001B0014000D0000FD
:1000D00011241FBECFEFCDBFDFE3DEBF18E3A0E0EA
:1000E000B8E3E8EAF7E102C005900D92A833B10742
:1000F000D9F72AE3A8E3B8E301C01D92A437B207F9
:10010000E1F7CFD70C94C80B7BCF8091040887FF11
:10011000FCCF8091010880588FBB809100088EBB76
:100120000895CF93C82F8091040885FFFCCF80E409
:1001300080930408C09302088091040886FFFCCFD6
:10014000E4DF982F81E09C1380E09C13FD9ACF910F
:1001500008950F931F93CF93DF93EB018C01F80168
:1001600081918F01DEDF882311F02197C1F781E0B3
:10017000CD2B09F080E0DF91CF911F910F91089571
:10018000811189E598EC909336388093373863E095
:1001900070E085E398E3DDCFE5E3F8E382EC81836B
:1001A00086E0828363E070E0CF01D3CF0F931F938B
:1001B000CF9362E070E081E398E3CBDFC82F882320
:1001C00061F10AE618E388E30A37180729F09DDF92
:1001D000F80181938F01F7CF80916A388D3679F0DD
:1001E000843701F1813419F580917438833309F42F
:1001F000EA9AE99A80E090E0A0E8B0E005C0E89AC9
:1002000080E090E4A0E0B0E08093513890935238C1
:10021000A0935338B0935438E09A8C2FCF911F910C
:100220000F91089580E090E8A0E0B0E0EDCFC0E04D
:10023000F4CFCF93C42F6093123870931338809308
:1002400014389093153865E070E080E198E381DF21
:10025000811102C090E00BC058DF8034D9F78C2F99
:1002600060DF8823B9F351DF91E0803499F7892F5B
:10027000CF91089540930C3850930D3860930E3809
:1002800070930F3821502093073884608093093889
:1002900065E070E08AE098E35CDF882341F035DFB9
:1002A000803429F465E070E085E098E352CF80E087
:1002B0000895CF93DF93C0E0D8E080EC94E4888782
:1002C000998780E02EDF80EB90E088879987DF9127
:1002D000CF910895CF93C62F806880931D3862E038
:1002E00070E08CE198E335DF811102C0E2DFF7CFE7
:1002F0000CDF982F9C2381E09C1380E0CF91089520
:10030000609318387093193865E070E086E198E3DF
:1003100020DF811102C0CDDFF7CFF7CECF93C82FFA
:10032000C8DF80E0C11189E58093023865E070E0A4
:1003300080E098E3CF910DCF80915038833099F0D1
:1003400083E08093503889EA95E580939C0A9093E6
:100350009D0A10929A0A10929B0A8FE48093900A49
:1003600081E08093A901089580915038823099F0FE
:1003700082E08093503889EA98E080939C0A9093B9
:100380009D0A10929A0A10929B0A8FE48093900A19
:1003900081E08093A90108958FB7F8941092800AA4
:1003A00091E09093860A8FBF18950895909101016E
:1003B00090FDFCCF98ED94BF809300010895482FE5
:1003C00060E070E180E090E034CFCF93C82F60E030
:1003D00070E180E090E094DF8C1303C081E0CF9166
:1003E000089580E0ECDF8823D1F3CC23B9F38C2F80
:1003F000CF91E5CF44E050E060E070E04093623898
:10040000509363386093643870936538809367388D
:10041000E1990BC08CB38170809368388CB3809362
:1004200069388DB380936A38089582E0F5CF8627C6
:10043000082E8295807F8025092E982F82958F70B7
:100440000826869598278927880F880F880F80258A
:100450000895AF92BF92CF92DF92EF92FF920F93E7
:100460001F93CF93DF9300D0CDB7DEB78FEF9FEF11
:1004700089839A83E0906238F09063388701085F3F
:100480001F4F8FE5C82E88E3D82E560181E0E81A69
:10049000F108A7EFEA16AFEFFA0649F0F50161910E
:1004A0005F0189819A81C3DF89839A83EFCFF80145
:1004B000E15AF74C898180838A8181832FB7F89430
:1004C000329690E4CE16DF0671F42FBF0F900F9096
:1004D000DF91CF911F910F91FF90EF90DF90CF9020
:1004E000BF90AF900895D6018D916D013091240891
:1004F00035FFFCCF9093240880932208E3CFCF935D
:10050000E19936C060E28BE0E5DEC82F8111FACFB9
:10051000F3992CC0F0992DC060E187E0DBDE8111FA
:1005200012C06AE070E08EE997E913DE882309F1D2
:1005300089EF90E00197F1F700C0000060E187E0EB
:10054000C9DE8823A9F381E01BDE882391F080E0D7
:1005500017DE882371F089EF90E00197F1F700C072
:10056000000068E08BE0B6DE8823A9F3E09AE19A08
:10057000C1E08C2FCF91089580E38093010A219AE6
:1005800087E893E10197F1F700C00000219887E820
:1005900093E10197F1F700C00000E99B1AC02D9A82
:1005A0008FEC97E00197F1F700C000002D981092B2
:1005B000010A88EE93E0809308089093090880E090
:1005C000B0DD80EB90E08093080890930908E39AEF
:1005D0000895E899ECCF0E9A8FEC97E00197F1F728
:1005E00000C000000E98E3CFCF93DF931F92CDB7EA
:1005F000DEB783E08983898181508983882309F468
:1006000052C0E19950C02FE33DE083E021503040DB
:100610008040E1F700C0000088E398E30E94880B67
:10062000892B09F03BC08FB7F894EAE8FAE0108212
:10063000118225E230E0ECE8FAE02083318321E00A
:10064000E5E8FAE02083E6E8FAE020832FE0E0E83E
:10065000FAE020838FBFE49B2DC08EDF6AE070E05C
:100660008EE997E976DD8823C9F081E089DD88236A
:10067000A9F080E085DD882389F03FE986E891E0F4
:10068000315080409040E1F700C00000E09905C083
:1006900083DD882319F08ADD811131DF7DDE5399F6
:1006A000AACFE49AA8CF8CB3869581700F90DF9182
:1006B000CF910895FEDDEACF66E070E180E090E042
:1006C0001FDE837029F086EA8A95F1F700C0F4CF27
:1006D0008EB30895CF93C82FEFDF8C2FCF9175CEB7
:1006E000CF92DF92EF92FF920F931F93CF93DF93FE
:1006F000EA01D695C7959E01215031092F3F31055A
:1007000011F008F05BC06B017C01E29B42C08FE0FE
:10071000E1DF882309F452C0C0922D38D0922E38E0
:10072000E0922F38F09230388C2F8150809323380C
:1007300065E070E08BE298E30CDD882309F43EC0AD
:10074000E4DC803409F03AC068E070E08EE198E3C0
:1007500000DD882399F10FE518E3F8018289E1DCD7
:10076000F8018389DEDC21970E5F1F4F2097A9F7E0
:10077000F2E9FA95F1F700C00FDD8823F9F084E083
:10078000DF91CF911F910F91FF90EF90DF90CF906D
:10079000A1CF8091553890915638019786239D219D
:1007A000892B09F0B4CF88DF4FEFC701B60141DDD7
:1007B000882321F088E08EDF8111A9CF80E0DF91CE
:1007C000CF911F910F91FF90EF90DF90CF90089500
:1007D00062E070E180E090E093DD837029F086EACA
:1007E0008A95F1F700C0F4CF8EB30895CF93C82F48
:1007F000EFDF8C2FCF91E9CDCF92DF92EF92FF9276
:100800000F931F93CF93DF93EA01D695C7959E016F
:10081000215031092F3F310511F008F05AC06B010A
:100820007C01E29B42C082E0E1DF882309F451C0F1
:10083000C0922D38D0922E38E0922F38F092303876
:100840008C2F81508093233865E070E08BE298E331
:1008500080DC882309F43DC058DC803409F039C0BD
:1008600068E070E08EE198E374DC882391F10FE595
:1008700018E3F801828955DCF801838952DC21975D
:100880000E5F1F4F2097A9F7F2E9FA95F1F700C024
:1008900083DC8823F1F080E0DF91CF911F910F91ED
:1008A000FF90EF90DF90CF90A1CF8091553890913D
:1008B0005638019786239D21892B09F0B4CF88E013
:1008C00095DF882331F04FEFC701B601B2DC81110B
:1008D000AACF80E0DF91CF911F910F91FF90EF9011
:1008E000DF90CF900895BF92CF92DF92EF92FF9268
:1008F0000F931F93CF93DF93CDB7DEB72697CDBF6E
:10090000DEBF8E831D8288E398E302D7892B09F02E
:1009100026C19FB7F89410928A0A10928B0A28EE8B
:1009200033E020938C0A30938D0A81E08093850A0E
:100930008093860A8FE08093800A9FBF8E818330E8
:1009400009F400C3843009F44AC3823009F496C024
:10095000EFE5F8E381850285138546855785608933
:10096000718992E8908798012F5F3F4F23833483EA
:100970000230110508F446C0803C09F45CC048F41C
:10098000823209F465C018F0825B8430D8F180E0CF
:1009900033C0843C09F45CC088F5813CC1F7809188
:1009A000513890915238A0915338B09154381695DF
:1009B00007959801215031092F3F310509F038F78B
:1009C000480F591F6A1F7B1F980181E253DC88235F
:1009D000F1F26FE5E62E68E3F62E97DBF7018187EB
:1009E00094DBF701828701501109F2E0EF0EF11C50
:1009F0000115110591F781E08D83B1C0853CA9F106
:100A0000863C29F6C80101978F3F910511F008F047
:100A1000BECF980180E22EDC882309F4B8CF58E6D7
:100A2000E52E58E3F52E71DBF70181937F0101502C
:100A30001109C9F7E0CF8091513890915238A091B7
:100A40005338B0915438481B590B6A0B7B0BA7CF16
:100A500080915B3890915C38A0915D38B0915E38A0
:100A6000480F591F6A1F7B1FCDCF80915738909137
:100A70005838A0915938B0915A38F2CFE19B6FC0E5
:100A800061E08BE027DCB82E811169C0F39B67C061
:100A9000EFE5F8E3818502851385C684D784E08875
:100AA000F1880230110508F405C1823C08F050C0FD
:100AB000803C08F067C0823219F0833B09F04EC0D9
:100AC00080915B3890915C38A0915D38B0915E3830
:100AD000C80ED91EEA1EFB1EC8010197EA9BB2C1CF
:100AE0008F3F910511F008F039C080E0F3DD8823D5
:100AF000A9F1C0922D38D0922E38E0922F38F09282
:100B000030388FEF800F8093283865E070E08BE2FB
:100B100098E31FDB882311F1F8DA8034F9F465E0FB
:100B200070E086E298E315DB8823C1F021E7E22E2E
:100B300028E3F22EF70181917F01F3DA882371F027
:100B4000E4DA803459F401501109A1F785E1CFC0EE
:100B5000843C09F4B5CF853C09F47FC0BD821CDC20
:100B600088EC80930608A8958D812696CDBFDEBFC0
:100B7000DF91CF911F910F91FF90EF90DF90CF9079
:100B8000BF9008958091513890915238A091533878
:100B9000B0915438C80ED91EEA1EFB1EEA9B05C050
:100BA000A801C701B6019CDD06C0E99B06C0A801EB
:100BB000C701B60121DEB82ED1CF16950795C80121
:100BC00001978F3F910509F048F602DE84E0F7DBDC
:100BD000882309F4C3CFFCDDC0922D38D0922E3883
:100BE000E0922F38F09230388FEF800F80932338C7
:100BF00065E070E08BE298E3ACDA882309F4AECFCD
:100C000084DA803409F0AACF68E070E08EE198E3DE
:100C1000A0DA882309F4A2CF3FE5E32E38E3F32ED0
:100C2000F70182897EDAF70183897BDA01501109A5
:100C3000F2E0EF0EF11C0115110591F782E98A959A
:100C4000F1F700C0A9DA882309F488CF83E0B7DB85
:100C5000882309F483CFBCDDB0C0809157389091D0
:100C60005838A0915938B0915A38C80ED91EEA1E8A
:100C7000FB1EEA9B0FC020DD4FEFC701B601D9DA9A
:100C8000882309F46BCF88E025DD882309F466CF3B
:100C9000E29A86CFE99B20CF88E0A8DD882309F47B
:100CA0005DCF4FEFC701B601C4DA882309F456CFF0
:100CB000E29A7DCF823B08F40FCF843BD0F0853C95
:100CC00009F00ACFEA9B95C08C2D9C2D9F7309F0EB
:100CD0007BC0909171389F3F09F076C0EDDC4FEFFB
:100CE000C701B601A6DA882309F438CF88E0F2DC20
:100CF00062CF10917138EA9B1AC080E077DD8823BB
:100D000009F42CCFC701B60188279927412F91DA22
:100D1000882309F423CFD0DC807711E009F010E0BC
:100D200085E1D8DC882309F419CFB12E17CFE99BD0
:100D300016C083E15BDD882309F410CFC701B6013B
:100D400088279927412F75DA882309F407CF40DDDA
:100D5000807711E009F010E080E048DDE3CF412F1B
:100D600050E049835A83CB82DC8232DD24E030E0DC
:100D700046E050E160E070E080E67CDA882309F428
:100D8000EDCE8E010F5F1F4F7E0195E0E90EF11C45
:100D9000F80181918F01C5D9882309F4DFCEB5D937
:100DA000803409F0DBCEE016F10691F787E007DB2F
:100DB000882309F4D3CE0CDD8770BB24B394882339
:100DC00009F4CCCEB12CCACE80FF0FC0EFE5F8E31A
:100DD0008289838B8FEF828BF1E0CF1AD108E108F3
:100DE000F108E29A42E050E0DCCE8FEF8093723857
:100DF000F8CFE99B71CE8C2D9C2D9F7371F490914F
:100E000071389F3F51F488E0F1DC882309F4A6CEC5
:100E10004FEFC701B6010DDACECE80FF0FC0EFE570
:100E2000F8E38289838B8FEF828B81E0C81AD10827
:100E3000E108F108E29A42E050E0BACE8FEF8093E9
:100E40007238F8CFE99B3FC08F3F910511F008F051
:100E500085CE83E1CBDC882309F480CEC0922D3887
:100E6000D0922E38E0922F38F09230388FEF800FEA
:100E70008093283865E070E08BE298E36AD9882394
:100E800009F46CCE42D9803409F068CE65E070E098
:100E900086E298E35ED9882309F460CE91E7E92ED3
:100EA00098E3F92EF70181917F013BD9882309F45A
:100EB00055CE2BD9803409F051CE0150110991F74C
:100EC00080E094DC78CE8F3F910511F008F046CE9B
:100ED0007FDC84E074DA882309F440CE79DCC092A8
:100EE0002D38D0922E38E0922F38F09230388FEF94
:100EF000800F8093283865E070E08BE298E329D971
:100F0000882309F42BCE01D9803409F027CE65E07F
:100F100070E086E298E31DD9882309F41FCE81E7AB
:100F2000E82E88E3F82EF70181917F01FAD8882313
:100F300009F414CEEAD8803409F010CE015011091A
:100F400091F784CEEFE5F8E38185811108CE8285A3
:100F50009385A485B585892B8A2B8B2B09F0FFCD32
:100F6000E19B31C06AE070E08EE997E9F2D888230E
:100F700009F40DCD6AE070E084E997E9EAD88823A6
:100F800009F405CD81E0FCD8882309F400CD80E088
:100F9000F7D8882309F4FBCC87EA91E60197F1F7AB
:100FA00000C00000E9EFF0E03197F1F700C0000069
:100FB00061E08BE08FD98111F5CFE29AE09B05C00B
:100FC000E1989DDA19CDD8DACDCFE099FACFE4D8FF
:100FD000882309F4DCCCEAD88111F3CFD8CC81E0A6
:100FE0009DD9882309F408CD80E098D905CD112436
:100FF0001092800A81E08093860A62E070E088E3C4
:1010000098E3A6D31F920F920FB60F9211242F933D
:101010003F934F935F936F937F938F939F93AF9380
:10102000BF93EF93FF938091090480930904129B6F
:1010300016C088ED91E084BF90934100FF91EF913D
:10104000BF91AF919F918F917F916F915F914F91E0
:101050003F912F910F900FBE0F901F90189584D93C
:1010600081E05CD9219A0000219880E057D9E6CF31
:101070007BD981E053D988E08093060883EC99E01E
:101080000197F1F700C00000019A1092110409982D
:10109000219A52D9309BFECF88ED91E084BF909386
:1010A0004100F89424E0E0E1F4E083E098E021934B
:1010B0009A95E9F778968A95C9F788ED41E050E06E
:1010C00084BF409361008CE08093310488EF80936B
:1010D000010480E28093210481E0809341048093A5
:1010E000E00598E09093E10530EA3093050435E09F
:1010F0003093E2059093520490935104909311041D
:101100002093130444E8409314044DE040933004CA
:1011100049E040931204909353041CBA1DBA90E125
:10112000909390019AE09093910191E190939201B4
:1011300092E09093B1019093B3012093CB0190EC96
:101140009093C9018093C80196E09093CF019AECE7
:101150009093CD018093CC019FE79093D70130937A
:10116000D60198E59093D50191E49093D4019093A2
:10117000C001809350018093030A99E89093260A56
:1011800095E49093280A8093270A8093290A8093F4
:101190002B0A2FE82093000A27E02093910A129B44
:1011A00090C020915038213089F0809350382AE83F
:1011B00035E420939C0A30939D0A10929A0A10926B
:1011C0009B0A9093900A83E08093A901EDE9F0E0F7
:1011D000859194918093280890932908109225086E
:1011E00083E08093270888E88093260880EB90E0CE
:1011F00080930808909309088AE0809305088BE2A1
:101200008093070888EC809306088091400084FF53
:1012100002C080E083D88FEF809340008093090460
:101220007894E3E18E2E912CA12CB12CF2E02F2E9C
:10123000312CA3E0CA2ED12CBDE14B2E512C612CB8
:10124000712C8091240887FFFCCF809120088B317E
:10125000C1F780935F38E0E6F8E38091240887FFC8
:10126000FCCF80912008819327E638E32E173F07B3
:10127000A1F7809166388E3021F780916238909185
:101280006338A0916438B09165388A309240A105E6
:10129000B105B8F6C7E6D8E37E018EEF9FEF209147
:1012A000623830916338821793076CF420912408D8
:1012B00027FFFCCF20912008D7012D937D010196B7
:1012C000EECF52D883CF0FE518E38FEF9FEF0E15C7
:1012D0001F0529F0F80161918F01A9D8F8CF892B5A
:1012E00009F0AFCFA89580916738883009F4C2C162
:1012F000D8F5823009F49FC048F4882309F4BFC1AF
:10130000813009F448C080EA90E0D6C0843009F406
:1013100091C108F4D4C08530B1F780916838E19963
:1013200066C1843B09F063C180916938813009F05E
:101330005EC180916D3892E890936738E0993BC127
:101340009FB381E0911180E0819522E030E040E0A0
:1013500050E0209362383093633840936438509360
:1013600065388093683865C0843109F40AC148F44F
:101370008B3048F28D3010F08F3029F680E890E005
:101380009BC0843309F45DC1863309F486C185317D
:1013900009F0B9CFF3CF88E0809312048BE006D830
:1013A00080915038882341F01092503881E8809322
:1013B000000A1092A9010F98489A429A109252047A
:1013C00088EC80932608409262385092633860928D
:1013D000643870926538E8E7F0E084E898E3249197
:1013E000299331968C179D07D1F780910711909121
:1013F0000311892790910411892780937138809176
:1014000008119091051189279091061189278093E1
:101410007238809109118093733880910A118093FA
:10142000743880910B118093753880910C118093E2
:1014300076380FD806CFF0906938809168388330BD
:10144000B1F1853009F09ACF8EEF8F0D883190F58C
:101450008F2D90E0FC01EE0FFF1FEB56FF4FC59163
:10146000D4918E01209731F18093333890933438A2
:1014700080E890E00E94FA010E94290280912408ED
:1014800086FFFCCFC034D10530F48AEC8093260867
:101490008E01000F111F0093280810932908F5E012
:1014A000FF1619F028E1F212CCCEE69ACACEF092DD
:1014B0004F3864CF86EA90E00E94FA01BACF80915B
:1014C0006838833009F451C038F4813081F18230BA
:1014D000B9F181EA90E0F0CF853009F44FC0863051
:1014E000C1F781E0809300061092010684E58093A5
:1014F000020681E18093080691E390930C068093A5
:101500000A068091050681FFFCCF80911406909118
:1015100015069C0136952795880F991F1092000695
:10152000820F931F809368389093693804C080932A
:10153000683880936938C0926238D092633811C09D
:1015400091E0909368388093693885E380936A3896
:1015500087E080936B3845E050E0409362385093C9
:10156000633881E88093673864CF80914F388093E7
:1015700068382092623830926338F3CF80913338E4
:10158000F6CFCCB331D880E890E00E94FA01C0FDDC
:101590000AC0E09B08C08092623890926338A092A3
:1015A0006438B09265380E949C01E69B42CF80E08F
:1015B0000E94D6013ECF882381F0813031F4E99931
:1015C0000EC0E8990EC084E7C0CE823081F4EA995B
:1015D0000AC0E9990AC080E3B8CE8EE1B6CE81E4B4
:1015E000B4CE8DE6B2CE83E3B0CE82E3AECEE69942
:1015F00017C080915038843099F084E0809350383F
:1016000045E151E040939C0A50939D0A10929A0A3A
:1016100010929B0A8FE48093900A81E08093A90145
:10162000E19903C085EA90E047CF81E05CD9811160
:1016300000CFF8CF82E057D98111A0CE82EA90E0A6
:101640003BCFCCB383E04FD9811111C085EA90E044
:101650000E94FA01C0FDEDCEE09BEBCE8092623895
:1016600090926338A0926438B0926538E2CE80E8F8
:1016700090E0EECFE19B82CE84E035D97FCE80E84A
:1016800090E00E94FA010E9429028091240886FFBE
:10169000FCCF81E00E94D601FFCF809173389091FA
:1016A0007438A0917538B091763880935B389093F8
:1016B0005C38A0935D38B0935E3880917F3890910C
:1016C0008038A0918138B0918238809357389093B8
:1016D0005838A0935938B0935A38809191389091E6
:1016E0009238809355389093563880915738803887
:1016F00009F044CE80E090E0A0E8B0E0809351385B
:1017000090935238A0935338B0935438E99A36CE18
:10171000DC012D923D924D925D926D927D928D9263
:101720009D92AD92BD92CD92DD92ED92FD920D9380
:101730001D93CD93DD93FF91EF918DB78D938EB770
:101740008D938FB78D93ED93FD93882799270994F7
:10175000DC01CB0181309105811D2D903D904D9094
:101760005D906D907D908D909D90AD90BD90CD9051
:10177000DD90ED90FD900D911D91CD91DD91ED915C
:10178000FD910D900FBEEDBFFEBFED91FD9109944F
:04179000F894FFCFFB
:1017940055E065736172454D564E55E020676F7292
:0417A400504D564E00
:1017A80055C800C30455A0005504556A0000000040
:1017B800554800000000550800000000550055C2BB
:1017C8000E55A000556555A0005564556A000000E7
:0817D8000055E5040055000076
:00000001FF
