:1000000067C0000082C0000080C000007EC0000009
:100010007CC000007AC000000C9470090C94A909FF
:1000200074C0000072C0000070C000006EC000000C
:100030006CC000000C94650968C0000066C0000038
:1000400064C0000062C0000060C000005EC000002C
:100050005CC000005AC0000058C0000056C000003C
:1000600054C0000052C0000050C000004EC000004C
:100070004CC000004AC000008601010102010135A8
:1000800007010000000000004A5441474943452051
:100090006D6B494900000035821B418D20471023BC
:1000A000086D05B602B41509025B01AE0057007178
:1000B000023901000000001502900140010B01C847
:1000C00000A000850078005000350028001B0000CB
:1000D00011241FBECFEFCDBFDFE3DEBF18E3A0E0EA
:1000E000B8E3ECEDFAE102C005900D92A833B10738
:1000F000D9F72AE3A8E3B8E301C01D92AC37B207F1
:10010000E1F70E94C5090C945D0D7ACF8091040837
:1001100087FFFCCF8091010880588FBB8091000839
:100120008EBB0895CF93C82F8091040885FFFCCF24
:1001300080E480930408C09302088091040886FF3D
:10014000FCCFE4DF982F81E09C1380E09C13FD9AA4
:10015000CF9108950F931F93CF93DF93EB018C0101
:10016000F80181918F01DEDF882311F02197C1F71B
:1001700081E0CD2B09F080E0DF91CF911F910F91AD
:100180000895EEE1F8E3806C8183628363E070E0C0
:10019000CF01E0CF60E0811169E588E0F2CFCF9335
:1001A000C42F60931238709313388093143890934F
:1001B000153865E070E080E198E3CCDF811102C082
:1001C00090E00BC0A3DF8034D9F78C2FABDF8823FE
:1001D000B9F39CDF91E0803499F7892FCF9108958E
:1001E00040930C3850930D3860930E3870930F384D
:1001F00021502093073884608093093865E070E0CF
:100200008AE098E3A7DF882341F080DF803429F477
:1002100065E070E085E098E39DCF80E00895CF939E
:10022000DF93C0E0D8E080E899E88887998780E08C
:1002300079DF80E691E088879987DF91CF910895F3
:10024000806880931D3862E070E08CE198E382DF83
:10025000811102C0E4DFF7CF59CFCF93C82F8BE0D5
:10026000EFDF9C2F982381E09C1380E0CF910895CD
:10027000609318387093193865E070E086E198E370
:1002800069DF811102C0CBDFF7CF40CFCF93C82FFA
:10029000C6DF80E0C11189E58093023865E070E037
:1002A00080E098E3CF9156CF80915038833099F019
:1002B00083E08093503889EA95E580939C0A909377
:1002C0009D0A10929A0A10929B0A8FE48093900ADA
:1002D00081E08093A901089580915038823099F08F
:1002E00082E08093503889EA98E080939C0A90934A
:1002F0009D0A10929A0A10929B0A8FE48093900AAA
:1003000081E08093A90108958FB7F8941092800A34
:1003100091E09093860A8FBF1895089590910101FE
:1003200090FDFCCF98ED94BF80930001089581E08B
:10033000809300061092010684EA8093020681E110
:100340008093080691E390930C0680930A068091AF
:10035000050681FFFCCF2091140630911506C901D6
:1003600096958795220F331F10920006820F931FD8
:100370000895482F60E070E180E090E010CFCF93C7
:10038000C82F60E070E180E090E072DF8C1303C062
:1003900081E0CF91089580E0ECDF8823D1F3CC2376
:1003A000B9F38C2FCF91E5CF44E050E060E070E0EE
:1003B00040936A3850936B3860936C3870936D3803
:1003C00080936F38E1990BC08CB381708093703843
:1003D0008CB3809371388DB380937238089582E026
:1003E000F5CF8627082E8295807F8025092E982FAD
:1003F00082958F700826869598278927880F880F01
:10040000880F80250895AF92BF92CF92DF92EF922E
:10041000FF920F931F93CF93DF9300D0CDB7DEB73A
:100420008FEF9FEF89839A83E0906A38F0906B3862
:100430008701085F1F4F87E6C82E88E3D82E560134
:1004400081E0E81AF108A7EFEA16AFEFFA0649F0E3
:10045000F50161915F0189819A81C3DF89839A8364
:10046000EFCFF801E959F74C898180838A81818334
:100470002FB7F894329690E4CE16DF0671F42FBFB2
:100480000F900F90DF91CF911F910F91FF90EF9000
:10049000DF90CF90BF90AF900895D6018D916D0100
:1004A0003091240835FFFCCF9093240880932208D4
:1004B000E3CFCF93E1993CC080E2CFDEC82F81111A
:1004C000FBCFF39933C0F09934C087E0B9DE84FDE7
:1004D00011C06AE070E082ED9AE93CDE882349F1C0
:1004E00089EF90E00197F1F700C0000087E0A8DEF7
:1004F00084FFF6CF81E04EDE8823D9F080E04ADE2B
:100500008823B9F089EF90E00197F1F700C000006F
:1005100080E2A3DE8111F6CF89EF90E00197F1F739
:1005200000C0000088E099DE8823B1F3E09AE19AE8
:10053000C1E08C2FCF91089580E38093010A219A26
:100540008FE99FE00197F1F700C0000021988FE943
:100550009FE00197F1F700C00000EE9B1BC02D9AB1
:100560008FE99FE00197F1F700C000002D981092ED
:10057000010A80ED97E0809308089093090880E0D5
:10058000D1DD80E691E08093080890930908E39A12
:10059000E79808950E9A8FE99FE00197F1F700C060
:1005A00000000E98E4CF0F931F93CF93DF93C82FD3
:1005B000BEDE8C01C11127C0E49B40C0BDDF6AE0F4
:1005C00070E082ED9AE9C6DD811102C080E06DC065
:1005D00081E0E0DD8823D1F380E0DCDD8823B1F326
:1005E0002FE78AE196E0215080409040E1F700C07B
:1005F000000089EF90E00197F1F700C0000080E271
:100600002CDE8111F6CFE0994CC00A3990E1190730
:10061000B8F466E082E0B5DD8823C1F262E070E004
:1006200081E298E397DD882389F2C3E7D8E328E3E2
:10063000C338D20759F06ADD8993F9CFF0DDE3CFF3
:1006400062E089E09EDD8111E4CFC0CF80917338F4
:10065000813421F070F4803209F0B8CF80917D3878
:10066000833309F4EF9AEE9A80E090E0A0E8B0E0DE
:100670000FC08D3641F0843709F0A8CF80E090E8B4
:10068000A0E0B0E005C0ED9A80E090E4A0E0B0E02A
:100690008093513890935238A0935338B093543884
:1006A000E09A0A39104130F481E0DF91CF911F9137
:1006B0000F91089589E0C4DD83708230A9F7E79A2D
:1006C00080EB90E08093080890930908EDCFCF93DA
:1006D000DF931F92CDB7DEB784E089838981815093
:1006E0008983882311F0E19B07C08CB386958170C4
:1006F0000F90DF91CF91089588E398E30E941D0D3C
:10070000892B41F001DE8981823040F75399E6CF91
:10071000E49AE4CF8FB7F894EAE8FAE01082118205
:1007200025E230E0ECE8FAE02083318321E0E5E8DF
:10073000FAE02083E6E8FAE020832FE0E0E8FAE040
:1007400020838FBF80E02FDF8823E1F2B2DEDACF93
:1007500066E070E180E090E08BDD837039F089EF36
:1007600090E00197F1F700C00000F2CF8EB308953A
:10077000CF93C82FEDDF8C2FCF9101CECF92DF9298
:10078000EF92FF920F931F93CF93DF93EA01D695D9
:10079000C7959E01215031092F3F310511F008F016
:1007A0005DC06B017C01E29B44C08FE0E1DF8823E8
:1007B00009F454C0C0923238D0923338E0923438C1
:1007C000F09235388C2F81508093283865E070E0A6
:1007D00080E398E3BFDC882309F440C097DC8034D1
:1007E00009F03CC068E070E083E298E3B3DC882362
:1007F000A9F107E618E3F801828994DCF8018389FE
:1008000091DC21970E5F1F4F2097A9F766E082E0E9
:10081000B8DC882319F184E0ABDF8823F9F080E0AD
:10082000DF91CF911F910F91FF90EF90DF90CF90CC
:100830009FCF8091553890915638019786239D21FE
:10084000892B09F0B2CF84DF4FEFC701B601A7DCD7
:10085000882321F088E08CDF8111A7CF80E0DF9131
:10086000CF911F910F91FF90EF90DF90CF9008955F
:1008700062E070E180E090E0FBDC837039F089EFAA
:1008800090E00197F1F700C00000F2CF8EB3089519
:10089000EF92FF920F931F93CF93DF9300D000D07E
:1008A000CDB7DEB770E069837A838B839C83E0DF0A
:1008B00024E030E046E050E160E070E080E690DC6B
:1008C000811102C080E01CC08E010F5F1F4F7E01AE
:1008D00085E0E80EF11CF80181918F0123DC88236B
:1008E00089F314DC803471F7E016F106A1F787E094
:1008F00040DD882339F3BCDF982F977081E011F732
:100900002496CDBFDEBFDF91CF911F910F91FF9055
:10091000EF900895CF93C82FABDF8C2FCF912FCDC1
:10092000CF92DF92EF92FF920F931F93CF93DF93BB
:10093000EA01D695C7959E01215031092F3F310517
:1009400011F008F058C06B017C01E29B40C082E0CE
:10095000E1DF882309F44FC0C0923238D092333897
:10096000E0923438F09235388C2F815080932838BB
:1009700065E070E080E398E3EDDB882309F43BC099
:10098000C5DB803409F037C068E070E083E298E3AB
:10099000E1DB882381F107E618E3F8018289C2DBF5
:1009A000F8018389BFDB21970E5F1F4F2097A9F7BE
:1009B00066E082E0E6DB8823F1F080E0DF91CF9112
:1009C0001F910F91FF90EF90DF90CF90A3CF809178
:1009D000553890915638019786239D21892B09F02F
:1009E000B6CF88E097DF882331F04FEFC701B6011B
:1009F000D6DB8111ACCF80E0DF91CF911F910F91B9
:100A0000FF90EF90DF90CF9008951F93CF93DF93E7
:100A1000EC01162F80E07EDF811102C080E010C063
:100A2000BE0190E080E0412FBADB8823B9F390DE6D
:100A3000C82F85E19DDE882389F3C07781E071F7B7
:100A4000DF91CF911F9108951F93CF93DF93EC0116
:100A5000162F83E15FDF811102C080E010C0BE016C
:100A600090E080E0412F9BDB8823B9F301DFC82FA2
:100A700080E050DF882389F3C07781E071F7DF9150
:100A8000CF911F9108954F925F926F927F929F92A4
:100A9000AF92BF92CF92DF92EF92FF920F931F938C
:100AA000CF93DF9300D0CDB7DEB78A83198288E376
:100AB00098E3C3D7892B09F0F6C09FB7F89410923A
:100AC0008A0A10928B0A28EE33E020938C0A309326
:100AD0008D0A81E08093850A8093860A8FE0809357
:100AE000800A9FBF8A81833009F493C3843009F45C
:100AF000E2C3823009F4A7C0E7E6F8E38185028506
:100B00001385468557856089718992E89087980199
:100B10002F5F3F4F238334830230110570F0823CF6
:100B200018F5803CA8F5823B09F484C020F4823299
:100B300011F180E05CC0863BE0F7C80101978F3F70
:100B4000910509F0B0F7980180E24ADB882389F328
:100B500060E7E62E68E3F62ED9DAF70181937F018C
:100B600001501109C9F742C0853C09F442C0863CD6
:100B700021F3843CF1F68091633890916438A09120
:100B80006538B0916638480F591F6A1F7B1FD5CF53
:100B90008091513890915238A0915338B091543887
:100BA000169507959801215031092F3F310511F015
:100BB00008F0BFCF480F591F6A1F7B1F980181E2C1
:100BC0000FDB882309F4B5CF77E6E72E78E3F72E1D
:100BD0009DDAF70181879ADAF701828701501109BE
:100BE000F2E0EF0EF11C0115110591F781E0898308
:100BF0005AC0E59B16C0C80101978F3F910511F0BF
:100C000008F097CFE7E6F8E30959174CDF01AE5E2D
:100C1000BE4F8C9181873196E017F107B9F7E598BF
:100C2000E5CF80915B3890915C38A0915D38B091B0
:100C30005E38A9CF80915F3890916038A09161387B
:100C4000B0916238A0CFE19928C080917038853C7E
:100C500051F5E7E6F8E3818502851385C684D784DC
:100C6000E088F18802301105B0F5B288843B09F4C0
:100C700000C208F0F9C1823B08F4D2C0C701B60136
:100C8000F7DAB81204C08FB3882309F4C0C26B2D01
:100C9000C601EF9B06C2B9DE5BC081E0DEDA8111DE
:100CA00002C0F399D6CF30DB88EC80930608A89574
:100CB00089810F900F90DF91CF911F910F91FF903D
:100CC000EF90DF90CF90BF90AF909F907F906F900C
:100CD0005F904F900895823C10F5803C38F5843B3E
:100CE00040F4823B08F0E3C0823209F48DC090E00A
:100CF0009CC1843BE1F7853C09F410C1EF9B90C097
:100D0000EF9BA2C125DD4FEFC701B60148DA88236A
:100D100071F388E02DDD882351F3E29A15C0843CFD
:100D200009F472C020F3873C30F3E1CF8091513851
:100D300090915238A0915338B0915438C80ED91EB2
:100D4000EA1EFB1EEF9B06C0A801C701B60116DD17
:100D5000982F6BC1EE9B05C0A801C701B601E0DD6D
:100D6000F7CF16950795C80101978F3F910511F0B0
:100D700008F0BDCF7DDD84E0FCDA882309F4B7CF2D
:100D800077DDC0923238D0923338E0923438F09226
:100D900035388FEF800F8093283865E070E080E36E
:100DA00098E3D8D9882309F4A2CFB0D9803409F0C8
:100DB0009ECF68E070E083E298E3CCD9882309F401
:100DC00096CF47E6E42E48E3F42EF7018289AAD9AC
:100DD000F7018389A7D901501109F2E0EF0EF11C48
:100DE0000115110591F766E082E0CBD9882309F45B
:100DF0007ECF83E0BEDA882309F479CF39DD91E034
:100E0000882309F412C173CF8091633890916438BC
:100E1000A0916538B0916638C80ED91EEA1EFB1E37
:100E2000C8010197EF9B7EC18F3F910511F008F03B
:100E30005ECF8FE19DDC882309F459CFC092323810
:100E4000D0923338E0923438F09235388FEF800FFB
:100E500080932D3865E070E080E398E37BD98823A8
:100E600009F445CF53D9803409F041CF65E070E0F3
:100E70008BE298E36FD9882309F439CF29E7E22E72
:100E800028E3F22EF70181917F014CD9882309F4E0
:100E90002ECF3CD9803409F02ACF0150110991F7A7
:100EA00085E166DC882309F422CF80E0F8C08091D8
:100EB0005F3890916038A0916138B0916238C80E67
:100EC000D91EEA1EFB1EB12CA12CEAE0EA0D0A1580
:100ED0001B0509F49CC1F0E0E959F74C9084C70167
:100EE000B601C6D9981203C08FB3882369F0692D63
:100EF000C601EF9B0DC089DD882309F4F8CE9FEF72
:100F0000C91AD90AE90AF90A8FEFA81AB80ADDCF77
:100F1000EE9B02C099DDF0CFBBDCEECFE19987C03C
:100F20006AE070E08EEB9AE915D9882309F4DFCEE8
:100F300081E030D9882309F4DACE80E02BD98823E8
:100F400009F4D5CEE9EFF0E03197F1F700C00000E9
:100F500080E283D98111F6CF89EF90E00197F1F714
:100F600000C0000084E079D98823B1F3809157381C
:100F700090915838A0915938B0915A3880933238AE
:100F800090933338A0933438B09335388FEF800F77
:100F900080932D3865E070E080E398E3DBD8882308
:100FA00009F4A5CEB3D8803409F0A1CE65E070E095
:100FB0008BE298E3CFD8882309F499CE37E6E32E65
:100FC00038E3F32E0959174CF7018289EE5EFE4F84
:100FD0008083F7018289A6D8882309F488CE96D821
:100FE000803409F084CEFFEFEF1AFF0AE016F10615
:100FF00059F762E08AE0C5D889EF90E00197F1F7F0
:1010000000C0000084E029D98111F6CF60E287E0BA
:10101000B8D881E0BFD8882309F469CE80E0BAD877
:10102000982F882309F463CEE59A99833CCE80916A
:101030005B3890915C38A0915D38B0915E38C80EF5
:10104000D91EEA1EFB1E5CCEEE9BEACE88E062DC77
:10105000882309F44CCE4FEFC701B601A0D88823EE
:1010600009F445CEE29A78CE9BE3980F923008F0CF
:10107000D7CE853C11F0EF9BD3CEEF9B2CC08C2DAF
:101080009C2D9F73A1F49FEFB91211C061DB4FEF4C
:10109000C701B60184D8882309F429CE88E068DB2B
:1010A00057CEEE9B02C0D0DC53CEF2DB51CE80FF98
:1010B0000EC0E7E6F8E3B38A8FEF828BE1E0CE1A49
:1010C000D108E108F108E29A42E050E03ECE8FEF0D
:1010D00080937A38F8CFEE9BA3CE8C2D9C2D9F73F6
:1010E00069F4FFEFBF120AC088E014DC882309F41A
:1010F000FECD4FEFC701B60152D82ACE80FF0EC0F9
:10110000E7E6F8E3B38A8FEF828B81E0C81AD10853
:10111000E108F108E29A42E050E01FCE8FEF8093A1
:101120007A38F8CFEE9B2FC08F3F910511F008F071
:10113000DECD83E1EFDB97E6A92E98E3B92E0959BE
:10114000174C882309F4D3CD93DB807709F0CFCDFA
:1011500026013701FFEF4F1A5F0A6F0A7F0AF50178
:101160004289C701B6011BD8882309F4C0CDFFEF1F
:10117000AF1ABF0A0A151B0519F480E0CBDBE8CDD6
:1011800073016201E1CF8F3F910511F008F0AFCDFF
:101190006FDB84E0EED8882309F4A9CD69DBC09227
:1011A0003238D0923338E0923438F09235388FEFBD
:1011B000800F80932D3865E070E080E398E30E9413
:1011C000AA00882309F493CD0E948600803409F098
:1011D0008ECD65E070E08BE298E30E94AA00882340
:1011E00009F485CD89E7E82E88E3F82EF70181918F
:1011F0007F010E949200882309F479CD0E94860025
:10120000803409F074CD0150110981F7F2CD91E0DD
:101210000CCFE7E6F8E38185811145CD8285938582
:10122000A485B585892B8A2B8B2B09F03CCDE09BBF
:101230003AC06AE070E082ED9AE90E94AA00882331
:1012400009F477CC6AE070E088EC9AE90E94AA0081
:10125000882309F46ECC89EF90E00197F1F700C084
:10126000000087E00E94200183FFF5CF81E00E940B
:10127000CA00882309F45DCC80E00E94CA0088235C
:1012800009F457CCE9EFF0E03197F1F700C0000026
:1012900081E00E942D018111F5CFE29AE09B05C00B
:1012A000E19807D9A4CC48D9C4CF81E07CD9882360
:1012B00009F43FCCF6CF81E00E944601882309F46F
:1012C00096CC80E00E94460192CC11241092800AB4
:1012D00081E08093860A62E070E088E398E3CDD3F2
:1012E0001F920F920FB60F9211242F933F934F939B
:1012F0005F936F937F938F939F93AF93BF93EF937E
:10130000FF938091090480930904129B16C088ED15
:1013100091E084BF90934100FF91EF91BF91AF9115
:101320009F918F917F916F915F914F913F912F91FD
:101330000F900FBE0F901F9018950E946C0181E0D6
:101340000E944601219A0000219880E00E944601F7
:10135000E3CF0E946C0181E00E94460188E0809307
:1013600006088FE99FE00197F1F700C00000019A9D
:10137000109211040998219A0E945401309BFECFCB
:1013800088ED91E084BF90934100F89424E0E0E17F
:10139000F4E083E098E021939A95E9F778968A95AE
:1013A000C9F788ED90E084BF909361008CE0809352
:1013B000310488EF8093010480E28093210481E06E
:1013C000809341048093E00598E09093E10530EA32
:1013D0003093050435E03093E205909352049093E6
:1013E0005104909311042093130444E8409314048F
:1013F0004DE04093300449E040931204909353042D
:101400001CBA1DBA90E1909390019AE090939101DB
:1014100091E1909392019DE49093930192E09093D7
:10142000B1019093B3012093A0012093A2012093D6
:10143000CB0193E09093CA0120EC2093C9018093E3
:10144000C80126E02093CF019093CE012AEC20938F
:10145000CD018093CC012FE72093D7013093D601A3
:1014600028E52093D50121E42093D4012093C001E5
:10147000809350018093030A23EC2093260A22E6EE
:101480002093280A8093270A8093290A80932B0AA5
:101490002FE82093000A27E02093910A129B92C024
:1014A00020915038213089F08093503824EC32E676
:1014B00020939C0A30939D0A10929A0A10929B0ADC
:1014C00085E48093900A9093A901EDE9F0E085917D
:1014D000949180932808909329081092250883E01E
:1014E0008093270888E88093260880E691E080931F
:1014F0000808909309088AE0809305088BE280939E
:10150000070888EC80930608E7988091400084FFE4
:1015100003C080E00E9446018FEF809340008093DB
:101520000904789432E0232E312C43E0C42ED12CD0
:1015300052E0452E512C612C712C6DE1862E912CA0
:10154000A12CB12C8091240887FFFCCF809120082A
:101550008B31C1F780936738E8E6F8E3809124087F
:1015600087FFFCCF8091200881938FE698E38E1748
:101570009F07A1F780916E388E3021F780916A38ED
:1015800090916B38A0916C38B0916D388A30924050
:10159000A105B105B8F6CFE6D8E37E018EEF9FEF47
:1015A00020916A3830916B388217930774F4209138
:1015B000240827FFFCCF20912008D7012D937D011F
:1015C0000196EECF0E946C0180CF07E618E38FEF03
:1015D0009FEF0E151F0531F0F80161918F010E94F8
:1015E000F101F7CF892B09F0ADCFA89580916F3825
:1015F000883009F4AEC1D0F5823009F49FC048F4B8
:10160000882309F4ABC1813009F447C080EA90E037
:10161000D6C0843009F479C108F4D4C08530B1F75C
:1016200080917038EC992EC190E0E19949C1843BDA
:1016300009F046C180917138813009F041C1809133
:10164000753822E820936F38E0991EC19FB381E07E
:10165000911180E0819540926A3850926B38609287
:101660006C3870926D388093703865C0843109F49D
:10167000EAC048F48B3050F28D3010F08F3031F6E4
:1016800080E890E09CC0843309F446C1863309F4B5
:1016900073C1853109F0BACFF3CF88E0809312048B
:1016A0008BE00E948E0180915038882341F0109287
:1016B000503881E88093000A1092A9010F98489A47
:1016C000429A1092520488EC8093260880926A38DD
:1016D00090926B38A0926C38B0926D38E8E7F0E0E9
:1016E00084918993319628E3CC38D207C9F7809149
:1016F00007119091031189279091041189278093F4
:1017000079388091081190910511892790910611DF
:10171000892780937A388091091180937B38809152
:101720000A1180937C3880910B1180937D388091D1
:101730000C1180937E380E94030204CFF090713820
:10174000809170388330B1F1853009F099CF8DEFF9
:101750008F0D893190F58F2D90E0FC01EE0FFF1F6A
:10176000EB56FF4FC591D4918E01209731F18093B4
:1017700036389093373880E890E00E94D4010E9478
:1017800003028091240886FFFCCFC034D10530F4D9
:101790008AEC809326088E01000F111F0093280801
:1017A0001093290885E0F81619F098E1F912CACECD
:1017B000E69AC8CEF0924F3863CF86EA90E00E9456
:1017C000D401B9CF80917038833089F138F48130F9
:1017D00081F08230B9F081EA90E0F1CF853081F17B
:1017E0008630C9F70E9497018093703890937138C2
:1017F00004C08093703880937138C0926A38D09258
:101800006B3811C091E0909370388093713885E304
:101810008093723887E080937338A5E0B0E0A0939E
:101820006A38B0936B3881E880936F3884CF8091A9
:101830004F388093703820926A3830926B38F3CFEB
:1018400080913638F6CFCCB30E94670380E890E0F1
:101850000E94D401C0FD0EC0E09B0CC084E190E06A
:10186000A0E0B0E080936A3890936B38A0936C3816
:10187000B0936D380E945401E69B5DCF80E00E94DA
:101880008E0159CF90E8D1CE891B81F0813031F49F
:10189000EE990EC0ED990EC084E7DDCE823081F462
:1018A000EF990AC0EE990AC080E3D5CE8EE1D3CE7F
:1018B00081E4D1CE8DE6CFCE83E3CDCE82E3CBCE15
:1018C000E69917C080915038843099F084E0809375
:1018D000503885E194E080939C0A90939D0A109281
:1018E0009A0A10929B0A8FE48093900A81E0809379
:1018F000A901E19905C0E59903C085EA90E05FCFB1
:1019000081E0C1D8811117CFF8CF82E0BCD8811116
:10191000B7CE82EA90E053CFCCB383E0B4D8811144
:1019200015C085EA90E00E94D401C0FD04CFE09B81
:1019300002CF83E190E0A0E0B0E080936A3890931A
:101940006B38A0936C38B0936D38F5CE80E890E09A
:10195000EACFE19B95CE84E096D892CE80E890E0E5
:101960000E94D4010E9403028091240886FFFCCFCC
:1019700081E00E948E01FFCF80917B3890917C386E
:10198000A0917D38B0917E3880936338909364380D
:10199000A0936538B093663880917F3890918038F5
:1019A000A0918138B091823880935F3890936038ED
:1019B000A0936138B09362388091873890918838CD
:1019C000A0918938B0918A3880935B3890935C38C5
:1019D000A0935D38B0935E3880918F3890919038A5
:1019E000A0919138B091923880935738909358389D
:1019F000A0935938B0935A388091993890919A3879
:101A0000809355389093563880915C38833109F42F
:101A100037CE80E090E0A0E8B0E08093513890931A
:101A20005238A0935338B0935438EE9A80915C3872
:101A3000823109F025CEEC9A23CEDC012D923D9225
:101A40004D925D926D927D928D929D92AD92BD92DE
:101A5000CD92DD92ED92FD920D931D93CD93DD938A
:101A6000FF91EF918DB78D938EB78D938FB78D9337
:101A7000ED93FD93882799270994DC01CB018130F0
:101A80009105811D2D903D904D905D906D907D90C4
:101A90008D909D90AD90BD90CD90DD90ED90FD909E
:101AA0000D911D91CD91DD91ED91FD910D900FBEA8
:0E1AB000EDBFFEBFED91FD910994F894FFCFBC
:101ABE0055E065742673554D564E55E0657361724B
:0E1ACE00454D564E55E020676F72504D564EF6
:101ADC0055C800C30455A0005504556A0000000009
:101AEC005548000000005508000000005500550046
:101AFC000055E555C20E55A000556555A00055641E
:081B0C00556A0000000004000E
:00000001FF
