:1000000067C0000082C0000080C000007EC0000009
:100010007CC000007AC000000C9458090C9491092F
:1000200074C0000072C0000070C000006EC000000C
:100030006CC000000C944D0968C0000066C0000050
:1000400064C0000062C0000060C000005EC000002C
:100050005CC000005AC0000058C0000056C000003C
:1000600054C0000052C0000050C000004EC000004C
:100070004CC000004AC000008601010102010135A8
:1000800007010000000000004A5441474943452051
:100090006D6B49490000001B418D20471023081259
:1000A00004B6025B01DA0A0401AE0057002B0039E6
:1000B000019C00000000000B01C800A00085006446
:1000C00000500043003C0028001B0014000D0000FD
:1000D00011241FBECFEFCDBFDFE3DEBF18E3A0E0EA
:1000E000B8E3EEE8FAE102C005900D92A635B1073B
:1000F000D9F72AE3A6E5B8E301C01D92AA39B207F1
:10010000E1F70E94AD090C94450D7ACF8091040867
:1001100087FFFCCF8091010880588FBB8091000839
:100120008EBB0895CF93C82F8091040885FFFCCF24
:1001300080E480930408C09302088091040886FF3D
:10014000FCCFE4DF982F81E09C1380E09C13FD9AA4
:10015000CF9108950F931F93CF93DF93EB018C0101
:10016000F80181918F01DEDF882311F02197C1F71B
:1001700081E0CD2B09F080E0DF91CF911F910F91AD
:100180000895EEE1F8E3806C8183628363E070E0C0
:10019000CF01E0CF60E0811169E588E0F2CFCF9335
:1001A000C42F60931238709313388093143890934F
:1001B000153865E070E080E198E3CCDF811102C082
:1001C00090E00BC0A3DF8034D9F78C2FABDF8823FE
:1001D000B9F39CDF91E0803499F7892FCF9108958E
:1001E00040930C3850930D3860930E3870930F384D
:1001F00021502093073884608093093865E070E0CF
:100200008AE098E3A7DF882341F080DF803429F477
:1002100065E070E085E098E39DCF80E00895CF939E
:10022000DF93C0E0D8E080EC94E48887998780E091
:1002300079DF80EB90E088879987DF91CF910895EF
:10024000806880931D3862E070E08CE198E382DF83
:10025000811102C0E4DFF7CF59CFCF93C82F8BE0D5
:10026000EFDF9C2F982381E09C1380E0CF910895CD
:10027000609318387093193865E070E086E198E370
:1002800069DF811102C0CBDFF7CF40CFCF93C82FFA
:10029000C6DF80E0C11189E58093023865E070E037
:1002A00080E098E3CF9156CF80916E38833099F0FB
:1002B00083E080936E3889EA95E580939C0A909359
:1002C0009D0A10929A0A10929B0A8FE48093900ADA
:1002D00081E08093A901089580916E38823099F071
:1002E00082E080936E3889EA98E080939C0A90932C
:1002F0009D0A10929A0A10929B0A8FE48093900AAA
:1003000081E08093A90108958FB7F8941092800A34
:1003100091E09093860A8FBF1895089590910101FE
:1003200090FDFCCF98ED94BF80930001089581E08B
:10033000809300061092010684E58093020681E115
:100340008093080691E390930C0680930A068091AF
:10035000050681FFFCCF2091140630911506C901D6
:1003600096958795220F331F10920006820F931FD8
:100370000895482F60E070E180E090E010CFCF93C7
:10038000C82F60E070E180E090E072DF8C1303C062
:1003900081E0CF91089580E0ECDF8823D1F3CC2376
:1003A000B9F38C2FCF91E5CF44E050E060E070E0EE
:1003B000409388385093893860938A3870938B388B
:1003C00080938D38E1990BC08CB3817080938E3807
:1003D0008CB380938F388DB380939038089582E0EA
:1003E000F5CF8627082E8295807F8025092E982FAD
:1003F00082958F700826869598278927880F880F01
:10040000880F80250895AF92BF92CF92DF92EF922E
:10041000FF920F931F93CF93DF9300D0CDB7DEB73A
:100420008FEF9FEF89839A83E0908838F090893826
:100430008701085F1F4F85E8C82E88E3D82E560134
:1004400081E0E81AF108A7EFEA16AFEFFA0649F0E3
:10045000F50161915F0189819A81C3DF89839A8364
:10046000EFCFF801EB57F74C898180838A81818334
:100470002FB7F894329690E4CE16DF0671F42FBFB2
:100480000F900F90DF91CF911F910F91FF90EF9000
:10049000DF90CF90BF90AF900895D6018D916D0100
:1004A0003091240835FFFCCF9093240880932208D4
:1004B000E3CFCF93E19936C080E2CFDEC82F811120
:1004C000FBCFF3992DC0F0992EC087E0B9DE84FDF3
:1004D0000FC06AE070E08CE498E33CDE882319F1F9
:1004E00086EA8A95F1F700C087E0AADE84FFF8CF9C
:1004F00081E050DE8823B9F080E04CDE882399F05B
:1005000086EA8A95F1F700C080E2A7DE8111F8CF74
:1005100086EA8A95F1F700C088E09FDE8823C1F360
:10052000E09AE19AC1E08C2FCF91089580E3809307
:10053000010A219A8FEC97E00197F1F700C00000C3
:1005400021988FEC97E00197F1F700C00000EE9B37
:100550001BC02D9A8FEC97E00197F1F700C00000C7
:100560002D981092010A88EE93E0809308089093EA
:10057000090880E0D7DD80EB90E080930808909335
:100580000908E39AE79808950E9A8FEC97E001978F
:10059000F1F700C000000E98E4CF0F931F93CF93A4
:1005A000DF93C82FC4DE8C01C11125C0E49B3EC07F
:1005B000BDDF6AE070E08CE498E3CCDD811102C01D
:1005C00080E06BC081E0E6DD8823D1F380E0E2DDEE
:1005D0008823B1F32FE38DE093E0215080409040D9
:1005E000E1F700C0000026EA2A95F1F700C080E29A
:1005F00034DE8111F8CFE0994CC00A3980E1180748
:10060000B8F466E082E0BDDD8823D1F262E070E0FC
:1006100081E298E39FDD882399F2C1E9D8E398E36A
:10062000C13AD90759F072DD8993F9CFF8DDE3CFEC
:1006300062E089E0A6DD8111E4CFC2CF80919138DC
:10064000813421F070F4803209F0BACF80919B3868
:10065000833309F4EF9AEE9A80E090E0A0E8B0E0EE
:100660000FC08D3641F0843709F0AACF80E090E8C2
:10067000A0E0B0E005C0ED9A80E090E4A0E0B0E03A
:1006800080936F3890937038A0937138B09372381C
:10069000E09A0A39104130F481E0DF91CF911F9147
:1006A0000F91089589E0CCDD83708230A9F7E79A35
:1006B00088E590E08093080890930908EDCFCF93E8
:1006C000DF931F92CDB7DEB784E0898389818150A3
:1006D0008983882311F0E19B07C08CB386958170D4
:1006E0000F90DF91CF91089586E598E30E94050D64
:1006F000892B41F009DE8981823040F75399E6CF9A
:10070000E49AE4CF8FB7F894EAE8FAE01082118215
:1007100025E230E0ECE8FAE02083318321E0E5E8EF
:10072000FAE02083E6E8FAE020832FE0E0E8FAE050
:1007300020838FBF80E031DF8823E1F2BADEDACF99
:1007400066E070E180E090E093DD837029F086EA56
:100750008A95F1F700C0F4CF8EB30895CF93C82FD8
:10076000EFDF8C2FCF910BCECF92DF92EF92FF92E3
:100770000F931F93CF93DF93EA01D695C7959E0100
:10078000215031092F3F310511F008F05DC06B0198
:100790007C01E29B44C08FE0E1DF882309F454C070
:1007A000C0923238D0923338E0923438F0923538F3
:1007B0008C2F81508093283865E070E080E398E3C7
:1007C000C9DC882309F440C0A1DC803409F03CC0B6
:1007D00068E070E083E298E3BDDC8823A9F105E8D6
:1007E00018E3F80182899EDCF80183899BDC21975C
:1007F0000E5F1F4F2097A9F766E082E0C2DC8823D6
:1008000019F184E0ABDF8823F9F080E0DF91CF912C
:100810001F910F91FF90EF90DF90CF909FCF80912D
:10082000733890917438019786239D21892B09F0A4
:10083000B2CF86DF4FEFC701B601B1DC882321F0CC
:1008400088E08CDF8111A7CF80E0DF91CF911F91ED
:100850000F91FF90EF90DF90CF90089562E070E1EC
:1008600080E090E005DD837029F086EA8A95F1F753
:1008700000C0F4CF8EB30895EF92FF920F931F93B1
:10088000CF93DF9300D000D0CDB7DEB770E069839F
:100890007A838B839C83E2DF24E030E046E050E102
:1008A00060E070E080E69CDC811102C080E01CC04A
:1008B0008E010F5F1F4F7E0185E0E80EF11CF801ED
:1008C00081918F012FDC882389F320DC803471F73C
:1008D000E016F106A1F787E04CDD882339F3BEDF8F
:1008E000982F977081E011F72496CDBFDEBFDF917E
:1008F000CF911F910F91FF90EF900895CF93C82F44
:10090000ADDF8C2FCF913BCDCF92DF92EF92FF9254
:100910000F931F93CF93DF93EA01D695C7959E015E
:10092000215031092F3F310511F008F058C06B01FB
:100930007C01E29B40C082E0E1DF882309F44FC0E4
:10094000C0923238D0923338E0923438F092353851
:100950008C2F81508093283865E070E080E398E325
:10096000F9DB882309F43BC0D1DB803409F037C0C0
:1009700068E070E083E298E3EDDB882381F105E82D
:1009800018E3F8018289CEDBF8018389CBDB21975C
:100990000E5F1F4F2097A9F766E082E0F2DB882305
:1009A000F1F080E0DF91CF911F910F91FF90EF90D8
:1009B000DF90CF90A3CF80917338909174380197D6
:1009C00086239D21892B09F0B6CF88E097DF882305
:1009D00031F04FEFC701B601E2DB8111ACCF80E00F
:1009E000DF91CF911F910F91FF90EF90DF90CF900B
:1009F00008951F93CF93DF93EC01162F80E07EDFE5
:100A0000811102C080E010C0BE0190E080E0412F63
:100A1000C6DB8823B9F394DEC82F85E19FDE8823E7
:100A200089F3C07781E071F7DF91CF911F9108952D
:100A30001F93CF93DF93EC01162F83E15FDF8111CA
:100A400002C080E010C0BE0190E080E0412FA7DB33
:100A50008823B9F303DFC82F80E050DF882389F3B0
:100A6000C07781E071F7DF91CF911F9108954F9288
:100A70005F926F927F929F92AF92BF92CF92DF92DE
:100A8000EF92FF920F931F93CF93DF9300D0CDB7D8
:100A9000DEB78A83198286E598E3B7D7892B09F0F8
:100AA000F6C09FB7F89410928A0A10928B0A28EE2B
:100AB00033E020938C0A30938D0A81E08093850A7D
:100AC0008093860A8FE08093800A9FBF8A8183305B
:100AD00009F48DC3843009F4D7C3823009F4A7C068
:100AE000E5E8F8E3818502851385468557856089A9
:100AF000718992E8908798012F5F3F4F2383348359
:100B00000230110570F0823C18F5803CA8F5823B5C
:100B100009F484C020F4823211F180E05CC0863B8D
:100B2000E0F7C80101978F3F910509F0B0F79801F0
:100B300080E256DB882389F36EE8E62E68E3F62E22
:100B4000E5DAF70181937F0101501109C9F742C02D
:100B5000853C09F442C0863C21F3843CF1F6809147
:100B6000813890918238A0918338B0918438480FB1
:100B7000591F6A1F7B1FD5CF80916F3890917038B5
:100B8000A0917138B091723816950795980121504F
:100B900031092F3F310511F008F0BFCF480F591F21
:100BA0006A1F7B1F980181E21BDB882309F4B5CF04
:100BB00075E8E72E78E3F72EA9DAF7018187A6DA40
:100BC000F701828701501109F2E0EF0EF11C0115C7
:100BD000110591F781E089835AC0E59B16C0C801D1
:100BE00001978F3F910511F008F097CFE5E8F8E302
:100BF0000B57174CDF01AE5EBE4F8C91818731964B
:100C0000E017F107B9F7E598E5CF80917938909131
:100C10007A38A0917B38B0917C38A9CF80917D380B
:100C200090917E38A0917F38B0918038A0CFE19923
:100C300028C080918E38853C51F5E5E8F8E3818540
:100C400002851385C684D784E088F18802301105B7
:100C5000B0F5B288843B09F4FAC108F0F3C1823BD5
:100C600008F4D2C0C701B60103DBB81204C08FB3C9
:100C7000882309F4BAC26B2DC601EF9B00C2B9DE0E
:100C80005BC081E0EADA811102C0F399D6CF3CDB88
:100C900088EC80930608A89589810F900F90DF91CA
:100CA000CF911F910F91FF90EF90DF90CF90BF9069
:100CB000AF909F907F906F905F904F900895823C8F
:100CC00010F5803C38F5843B40F4823B08F0E3C0EB
:100CD000823209F48DC090E096C1843BE1F7853CF7
:100CE00009F410C1EF9B90C0EF9B9CC129DD4FEF31
:100CF000C701B60154DA882371F388E02FDD882319
:100D000051F3E29A15C0843C09F472C020F3873C89
:100D100030F3E1CF80916F3890917038A0917138A5
:100D2000B0917238C80ED91EEA1EFB1EEF9B06C09A
:100D3000A801C701B60118DD982F65C1EE9B05C05B
:100D4000A801C701B601E0DDF7CF16950795C801E8
:100D500001978F3F910511F008F0BDCF7FDD84E052
:100D600008DB882309F4B7CF79DDC0923238D092FE
:100D70003338E0923438F09235388FEF800F80931B
:100D8000283865E070E080E398E3E4D9882309F42B
:100D9000A2CFBCD9803409F09ECF68E070E083E236
:100DA00098E3D8D9882309F496CF45E8E42E48E3A0
:100DB000F42EF7018289B6D9F7018389B3D901509E
:100DC0001109F2E0EF0EF11C0115110591F766E033
:100DD00082E0D7D9882309F47ECF83E0CADA88235A
:100DE00009F479CF3BDD91E0882309F40CC173CF7E
:100DF0008091813890918238A0918338B091843865
:100E0000C80ED91EEA1EFB1EC8010197EF9B78C1D0
:100E10008F3F910511F008F05ECF8FE19FDC8823B2
:100E200009F459CFC0923238D0923338E092343836
:100E3000F09235388FEF800F80932D3865E070E0A9
:100E400080E398E387D9882309F445CF5FD98034BC
:100E500009F041CF65E070E08BE298E37BD988230D
:100E600009F439CF27E9E22E28E3F22EF701819128
:100E70007F0158D9882309F42ECF48D9803409F04E
:100E80002ACF0150110991F785E168DC882309F424
:100E900022CF80E0F2C080917D3890917E38A09181
:100EA0007F38B0918038C80ED91EEA1EFB1EB12CC7
:100EB000A12CEAE0EA0D0A151B0509F496C1F0E041
:100EC000EB57F74C9084C701B601D2D9981203C0F2
:100ED0008FB3882369F0692DC601EF9B0DC089DDB2
:100EE000882309F4F8CE9FEFC91AD90AE90AF90A4A
:100EF0008FEFA81AB80ADDCFEE9B02C099DDF0CFC4
:100F0000BBDCEECFE19981C06AE070E088E398E352
:100F100021D9882309F4DFCE81E03CD9882309F464
:100F2000DACE80E037D9882309F4D5CEE6EAEA950F
:100F3000F1F700C080E291D98111F8CFF6EAFA9575
:100F4000F1F700C084E089D98823C1F38091793812
:100F500090917A38A0917B38B0917C388093323868
:100F600090933338A0933438B09335388FEF800F97
:100F700080932D3865E070E080E398E3EBD8882318
:100F800009F4A9CEC3D8803409F0A5CE65E070E09D
:100F90008BE298E3DFD8882309F49DCE35E8E32E71
:100FA00038E3F32E0B57174CF7018289EE5EFE4FA4
:100FB0008083F7018289B6D8882309F48CCEA6D81D
:100FC000803409F088CEFFEFEF1AFF0AE016F10631
:100FD00059F762E08AE0D5D886EA8A95F1F700C031
:100FE00084E03BD98111F8CF60E287E0CAD881E084
:100FF000D1D8882309F46FCE80E0CCD8982F8823ED
:1010000009F469CEE59A998342CE8091793890911E
:101010007A38A0917B38B0917C38C80ED91EEA1E70
:10102000FB1E62CEEE9BF0CE88E068DC882309F4DC
:1010300052CE4FEFC701B601B2D8882309F44BCE88
:10104000E29A7ECE9BE3980F923008F0DDCE853C8D
:1010500011F0EF9BD9CEEF9B2CC08C2D9C2D9F7354
:10106000A1F49FEFB91211C06BDB4FEFC701B601BE
:1010700096D8882309F42FCE88E070DB5DCEEE9BF6
:1010800002C0D6DC59CEF8DB57CE80FF0EC0E5E8B3
:10109000F8E3B38A8FEF828BE1E0CE1AD108E10842
:1010A000F108E29A42E050E044CE8FEF8093983806
:1010B000F8CFEE9BA9CE8C2D9C2D9F7369F4FFEF8A
:1010C000BF120AC088E01ADC882309F404CE4FEF6F
:1010D000C701B60164D830CE80FF0EC0E5E8F8E362
:1010E000B38A8FEF828B81E0C81AD108E108F1083A
:1010F000E29A42E050E025CE8FEF80939838F8CF07
:10110000EE9B2FC08F3F910511F008F0E4CD83E1F5
:10111000F5DB95E8A92E98E3B92E0B57174C8823D9
:1011200009F4D9CD9BDB807709F0D5CD26013701B5
:10113000FFEF4F1A5F0A6F0A7F0AF5014289C70164
:10114000B6012DD8882309F4C6CDFFEFAF1ABF0A28
:101150000A151B0519F480E0D1DBEECD73016201A5
:10116000E1CF8F3F910511F008F0B5CD77DB84E03A
:1011700000D9882309F4AFCD71DBC0923238D09208
:101180003338E0923438F09235388FEF800F809307
:101190002D3865E070E080E398E30E94AA00882380
:1011A00009F499CD0E948600803409F094CD65E061
:1011B00070E08BE298E30E94AA00882309F48BCDAB
:1011C00087E9E82E88E3F82EF70181917F010E94DC
:1011D0009200882309F47FCD0E948600803409F0B4
:1011E0007ACD0150110981F7F8CD91E00CCFE5E8F7
:1011F000F8E3818581114BCD82859385A485B585E2
:10120000892B8A2B8B2B09F042CDE09B35C06AE0FD
:1012100070E08CE498E30E94AA00882309F47DCC56
:101220006AE070E082E498E30E94AA00882309F44F
:1012300074CCF6EAFA95F1F700C087E001D883FF95
:10124000F8CF81E00E94CA00882309F466CC80E0D0
:101250000E94CA00882309F460CC86EA8A95F1F7D7
:1012600000C081E00E942D018111F7CFE29AE09B3E
:1012700005C0E1981ED9AFCC59D9C9CF81E08DD92D
:10128000882309F44ACCF6CF81E000D8882309F4FA
:10129000A2CC80E00E9446019ECC11241092800ACC
:1012A00081E08093860A62E070E086E598E3CDD322
:1012B0001F920F920FB60F9211242F933F934F93CB
:1012C0005F936F937F938F939F93AF93BF93EF93AE
:1012D000FF938091090480930904129B16C088ED46
:1012E00091E084BF90934100FF91EF91BF91AF9146
:1012F0009F918F917F916F915F914F913F912F912E
:101300000F900FBE0F901F9018950E946C0181E006
:101310000E944601219A0000219880E00E94460127
:10132000E3CF0E946C0181E00E94460188E0809337
:1013300006088FEC97E00197F1F700C00000019AD2
:10134000109211040998219A0E945401309BFECFFB
:1013500088ED91E084BF90934100F89488ED21E0FE
:1013600030E084BF2093610024E0E0E1F4E083E01A
:1013700098E021939A95E9F778968A95C9F78CE0D9
:101380008093310488EF8093010480E280932104EC
:1013900081E0809341048093E00598E09093E1051B
:1013A00030EA3093050435E03093E205909352041F
:1013B00090935104909311042093130444E84093B4
:1013C00014044DE04093300449E04093120490939C
:1013D00053041CBA1DBA90E1909390019AE0909347
:1013E000910191E1909392019DE49093930192E099
:1013F0009093B1019093B3012093A0012093A20197
:101400002093CB0193E09093CA0120EC2093C90173
:101410008093C80126E02093CF019093CE012AEC5F
:101420002093CD018093CC012FE72093D7013093F7
:10143000D60128E52093D50121E42093D4012093FF
:10144000C001809350018093030A29E82093260A63
:1014500025E42093280A8093270A8093290A809301
:101460002B0A3FE83093000A37E03093910A129B31
:1014700091C030916E38313081F080936E384AE8F7
:1014800055E440939C0A50939D0A10929A0A109238
:101490009B0A2093900A9093A901EDE9F0E08591D1
:1014A000949180932808909329081092250883E04E
:1014B0008093270888E88093260880EB90E080934B
:1014C0000808909309088AE0809305088BE28093CE
:1014D000070888EC80930608E7988091400084FF15
:1014E00003C080E00E9446018FEF8093400080930C
:1014F0000904789432E0232E312C43E0C42ED12C01
:1015000052E0452E512C612C712C6DE1862E912CD0
:10151000A12CB12C8091240887FFFCCF809120085A
:101520008B31C1F780938538E6E8F8E38091240891
:1015300087FFFCCF8091200881938DE898E38E1778
:101540009F07A1F780918C388E3021F780918838E1
:1015500090918938A0918A38B0918B388A30924026
:10156000A105B105B8F6CDE8D8E37E018EEF9FEF77
:1015700020918838309189388217930774F420912C
:10158000240827FFFCCF20912008D7012D937D014F
:101590000196EECF0E946C0180CF05E818E38FEF33
:1015A0009FEF0E151F0531F0F80161918F010E9428
:1015B000F101F7CF892B09F0ADCFA89580918D3837
:1015C000883009F4AEC1D0F5823009F49FC048F4E8
:1015D000882309F4ABC1813009F447C080EA90E068
:1015E000D6C0843009F479C108F4D4C08530B1F78D
:1015F00080918E38EC992EC190E0E19949C1843BED
:1016000009F046C180918F38813009F041C1809145
:10161000933822E820938D38E0991EC19FB381E072
:10162000911180E08195409288385092893860927B
:101630008A3870928B3880938E3865C0843109F473
:10164000EAC048F48B3050F28D3010F08F3031F614
:1016500080E890E09CC0843309F446C1863309F4E5
:1016600073C1853109F0BACFF3CF88E080931204BB
:101670008BE00E948E0180916E38882341F0109299
:101680006E3881E88093000A1092A9010F98489A59
:10169000429A1092520488EC8093260880928838EF
:1016A00090928938A0928A38B0928B38E8E7F0E0BF
:1016B00084918993319628E3CA3AD207C9F7809179
:1016C0000711909103118927909104118927809324
:1016D00097388091081190910511892790910611F2
:1016E0008927809398388091091180939938809147
:1016F0000A1180939A3880910B1180939B388091C6
:101700000C1180939C380E94030204CFF0908F3814
:1017100080918E388330B1F1853009F099CF8EEF0A
:101720008F0D883190F58F2D90E0FC01EE0FFF1F9B
:10173000EB56FF4FC591D4918E01209731F18093E4
:1017400036389093373880E890E00E94D4010E94A8
:1017500003028091240886FFFCCFC034D10530F409
:101760008AEC809326088E01000F111F0093280831
:101770001093290885E0F81619F098E1F912CACEFD
:10178000E69AC8CEF0926D3863CF86EA90E00E9468
:10179000D401B9CF80918E38833089F138F481300B
:1017A00081F08230B9F081EA90E0F1CF853081F1AB
:1017B0008630C9F70E94970180938E3890938F38B6
:1017C00004C080938E3880938F38C0928838D0922E
:1017D000893811C091E090938E3880938F3885E3DB
:1017E0008093903887E080939138A5E0B0E0A09393
:1017F0008838B093893881E880938D3884CF809180
:101800006D3880938E382092883830928938F3CFA3
:1018100080913638F6CFCCB30E945F0380E890E029
:101820000E94D401C0FD0EC0E09B0CC084E190E09A
:10183000A0E0B0E08093883890938938A0938A38EC
:10184000B0938B380E945401E69B5DCF80E00E94EC
:101850008E0159CF90E8D1CE891B81F0813031F4CF
:10186000EE990EC0ED990EC084E7DDCE823081F492
:10187000EF990AC0EE990AC080E3D5CE8EE1D3CEAF
:1018800081E4D1CE8DE6CFCE83E3CDCE82E3CBCE45
:10189000E69917C080916E38843099F084E0809387
:1018A0006E3885E194E080939C0A90939D0A109293
:1018B0009A0A10929B0A8FE48093900A81E08093A9
:1018C000A901E19905C0E59903C085EA90E05FCFE1
:1018D00081E0CDD8811117CFF8CF82E0C8D881112F
:1018E000B7CE82EA90E053CFCCB383E0C0D8811169
:1018F00015C085EA90E00E94D401C0FD04CFE09BB2
:1019000002CF83E190E0A0E0B0E08093883890932C
:101910008938A0938A38B0938B38F5CE80E890E070
:10192000EACFE19B95CE84E0A2D892CE80E890E009
:101930000E94D4010E9403028091240886FFFCCFFC
:1019400081E00E948E01FFCF8091993890919A3862
:10195000A0919B38B0919C388093813890938238C5
:10196000A0938338B093843880919D3890919E38AD
:10197000A0919F38B091A03880937D3890937E38A5
:10198000A0937F38B09380388091A5389091A63885
:10199000A091A738B091A8388093793890937A387D
:1019A000A0937B38B0937C388091AD389091AE385D
:1019B000A091AF38B091B038809375389093763855
:1019C000A0937738B09378388091B7389091B83831
:1019D000809373389093743880917A38833109F406
:1019E00037CE80E090E0A0E8B0E080936F3890932D
:1019F0007038A0937138B0937238EE9A80917A382B
:101A0000823109F025CEEC9A23CEDC012D923D9255
:101A10004D925D926D927D928D929D92AD92BD920E
:101A2000CD92DD92ED92FD920D931D93CD93DD93BA
:101A3000FF91EF918DB78D938EB78D938FB78D9367
:101A4000ED93FD93882799270994DC01CB01813020
:101A50009105811D2D903D904D905D906D907D90F4
:101A60008D909D90AD90BD90CD90DD90ED90FD90CE
:101A70000D911D91CD91DD91ED91FD910D900FBED8
:0E1A8000EDBFFEBFED91FD910994F894FFCFEC
:101A8E0055C800C30455A0005504556A0000000057
:101A9E005548000000005508000000005500550094
:101AAE000055E555C20E55A000556555A00055646C
:101ABE00556A00000000040055E065742673554D0C
:101ACE00564E55E065736172454D564E55E0206792
:061ADE006F72504D564EE0
:00000001FF
