:1000000067C0000082C0000080C000007EC0000009
:100010007CC000007AC000000C94A1080C94D708A2
:1000200074C0000072C0000070C000006EC000000C
:100030006CC000000C94960868C0000066C0000008
:1000400064C0000062C0000060C000005EC000002C
:100050005CC000005AC0000058C0000056C000003C
:1000600054C0000052C0000050C000004EC000004C
:100070004CC000004AC000008601010102010135A8
:1000800007010000000000004A5441474943452051
:100090006D6B49490000001B418D20471023081259
:1000A00004B6025B01DA0A0401AE0057002B0039E6
:1000B000019C00000000000B01C800A00085006446
:1000C00000500043003C0028001B0014000D0000FD
:1000D00011241FBECFEFCDBFDFE3DEBF18E3A0E0EA
:1000E000B8E3EEE4F9E102C005900D92A833B10740
:1000F000D9F72AE3A8E3B8E301C01D92A837B207F5
:10010000E1F70E94F0080C94960C7ACF80910408D5
:1001100087FFFCCF8091010880588FBB8091000839
:100120008EBB0895CF93C82F8091040885FFFCCF24
:1001300080E480930408C09302088091040886FF3D
:10014000FCCFE4DF982F81E09C1380E09C13FD9AA4
:10015000CF9108950F931F93CF93DF93EB018C0101
:10016000F80181918F01DEDF882311F02197C1F71B
:1001700081E0CD2B09F080E0DF91CF911F910F91AD
:100180000895E5E3F8E382EC818386E0828363E00F
:1001900070E0CF01DFCF0F931F93CF9362E070E049
:1001A00081E398E3D7DFC82F882359F10FE618E3DE
:1001B00088E30F37180729F0A9DFF80181938F0131
:1001C000F7CF80916F38813409F120F48032F1F05B
:1001D000C0E017C08D3639F08437D1F780E090E861
:1001E000A0E0B0E005C0ED9A80E090E4A0E0B0E0CF
:1001F0008093513890935238A0935338B093543829
:10020000E09A8C2FCF911F910F91089580917938AA
:10021000833309F4EF9AEE9A80E090E0A0E8B0E032
:10022000E7CF811189E598EC909336388093373881
:1002300063E070E085E398E38DCFCF93C42F6093A4
:10024000123870931338809314389093153865E002
:1002500070E080E198E37EDF811102C090E00BC086
:1002600055DF8034D9F78C2F5DDF8823B9F34EDF5B
:1002700091E0803499F7892FCF91089540930C38FD
:1002800050930D3860930E3870930F38215020939F
:10029000073884608093093865E070E08AE098E36D
:1002A00059DF882341F032DF803429F465E070E0C3
:1002B00085E098E34FCF80E00895CF93DF93C0E0CF
:1002C000D8E080EC94E48887998780E02BDF80EB8E
:1002D00090E088879987DF91CF910895CF93C62FBB
:1002E000806880931D3862E070E08CE198E332DF33
:1002F000811102C0E2DFF7CF09DF982F9C2381E054
:100300009C1380E0CF91089560931838709319384A
:1003100065E070E086E198E31DDF811102C0CDDF6A
:10032000F7CFF4CECF93C82FC8DF80E0C11189E5A5
:100330008093023865E070E080E098E3CF910ACFC7
:1003400080915038833099F083E08093503889EA67
:1003500095E580939C0A90939D0A10929A0A1092B8
:100360009B0A8FE48093900A81E08093A90108950D
:1003700080915038823099F082E08093503889EA39
:1003800098E080939C0A90939D0A10929A0A10928A
:100390009B0A8FE48093900A81E08093A9010895DD
:1003A0008FB7F8941092800A91E09093860A8FBFDD
:1003B000189508959091010190FDFCCF98ED94BFA0
:1003C000809300010895482F60E070E180E090E0A4
:1003D00034CFCF93C82F60E070E180E090E094DFED
:1003E0008C1303C081E0CF91089580E0ECDF882377
:1003F000D1F3CC23B9F38C2FCF91E5CF44E050E07B
:1004000060E070E0409366385093673860936838D6
:100410007093693880936B38E1990BC08CB381700D
:1004200080936C388CB380936D388DB380936E3825
:10043000089582E0F5CF8627082E8295807F80255B
:10044000092E982F82958F700826869598278927E0
:10045000880F880F880F80250895AF92BF92CF92A2
:10046000DF92EF92FF920F931F93CF93DF9300D011
:10047000CDB7DEB78FEF9FEF89839A83E090663820
:10048000F09067388701085F1F4F83E6C82E88E326
:10049000D82E560181E0E81AF108A7EFEA16AFEF6F
:1004A000FA0649F0F50161915F0189819A81C3DF04
:1004B00089839A83EFCFF801ED59F74C89818083C6
:1004C0008A8181832FB7F894329690E4CE16DF06A6
:1004D00071F42FBF0F900F90DF91CF911F910F916B
:1004E000FF90EF90DF90CF90BF90AF900895D6012E
:1004F0008D916D013091240835FFFCCF9093240835
:1005000080932208E3CFCF93E19936C060E28BE07D
:10051000E5DEC82F8111FACFF3992CC0F0992DC0D8
:1005200060E187E0DBDE811112C06AE070E084E404
:1005300099E910DE882309F189EF90E00197F1F73E
:1005400000C0000060E187E0C9DE8823A9F381E0F4
:1005500068DE882391F080E064DE882371F089EF03
:1005600090E00197F1F700C0000068E08BE0B6DE94
:100570008823A9F3E09AE19AC1E08C2FCF910895E6
:1005800080E38093010A219A87E893E10197F1F7CC
:1005900000C00000219887E893E10197F1F700C0BF
:1005A0000000EE9B1AC02D9A8FEC97E00197F1F7AF
:1005B00000C000002D981092010A88EE93E080930D
:1005C00008089093090880E0ADDD80EB90E080930F
:1005D000080890930908E39A08950E9A8FEC97E023
:1005E0000197F1F700C000000E98E5CFCF93DF939D
:1005F0001F92CDB7DEB783E08983898181508983DB
:10060000882309F452C0E19950C02FE33DE083E014
:10061000215030408040E1F700C0000088E398E3BB
:100620000E94560C892B09F03BC08FB7F894EAE87A
:10063000FAE01082118225E230E0ECE8FAE0208353
:10064000318321E0E5E8FAE02083E6E8FAE0208360
:100650002FE0E0E8FAE020838FBFE49B2DC090DF1D
:100660006AE070E084E499E975DD8823C9F081E0EF
:10067000D8DD8823A9F080E0D4DD882389F03FE924
:1006800086E891E0315080409040E1F700C00000E2
:10069000E09905C076DD882319F07DDD811133DF17
:1006A0007FDE5399AACFE49AA8CF8CB38695817048
:1006B0000F90DF91CF91089500DEEACF66E070E100
:1006C00080E090E021DE837029F086EA8A95F1F7D8
:1006D00000C0F4CF8EB30895CF93C82FEFDF8C2FD7
:1006E000CF9177CECF92DF92EF92FF920F931F932D
:1006F000CF93DF93EA01D695C7959E01215031092A
:100700002F3F310511F008F057C06B017C01E29BCF
:100710003EC08FE0E1DF882309F44EC0C0922D383F
:10072000D0922E38E0922F38F09230388C2F8150B2
:100730008093233865E070E08BE298E30BDD88233B
:1007400009F43AC0E3DC803409F036C068E070E0B8
:100750008EE198E3FFDC882379F103E618E3F801E2
:100760008289E0DCF8018389DDDC21970E5F1F4F71
:100770002097A9F706DD8823F9F084E0DF91CF9177
:100780001F910F91FF90EF90DF90CF90A5CF8091B8
:10079000553890915638019786239D21892B09F071
:1007A000B8CF8CDF4FEFC701B60147DD882321F0BA
:1007B00088E092DF8111ADCF80E0DF91CF911F9172
:1007C0000F91FF90EF90DF90CF90089562E070E17D
:1007D00080E090E099DD837029F086EA8A95F1F750
:1007E00000C0F4CF8EB30895CF93C82FEFDF8C2FC6
:1007F000CF91EFCDCF92DF92EF92FF920F931F93A5
:10080000CF93DF93EA01D695C7959E012150310918
:100810002F3F310511F008F055C06B017C01E29BC0
:100820003DC082E0E1DF882309F44CC0C0922D383E
:10083000D0922E38E0922F38F09230388C2F8150A1
:100840008093233865E070E08BE298E383DC8823B3
:1008500009F438C05BDC8034A9F568E070E08EE113
:1008600098E378DC882371F103E618E3F8018289C4
:1008700059DCF801838956DC21970E5F1F4F2097C2
:10088000A9F77FDC8823F1F080E0DF91CF911F9101
:100890000F91FF90EF90DF90CF90A6CF80915538C9
:1008A00090915638019786239D21892B09F0B9CF65
:1008B00088E09ADF882331F04FEFC701B601BDDC35
:1008C0008111AFCF80E0DF91CF911F910F91FF9009
:1008D000EF90DF90CF900895BF92CF92DF92EF928A
:1008E000FF920F931F93CF93DF93CDB7DEB7269779
:1008F000CDBFDEBF8E831D8288E398E3D7D7892BD7
:1009000009F006C19FB7F89410928A0A10928B0AD8
:1009100028EE33E020938C0A30938D0A81E0809397
:10092000850A8093860A8FE08093800A9FBF8E811C
:10093000833009F4A6C3843009F4F0C3823009F48B
:10094000AEC0E3E6F8E381850285138546855785C9
:100950006089718992E8908798012F5F3F4F2383C8
:1009600034830230110508F446C0803C09F45CC0B1
:1009700048F4823209F465C018F0825B8430D8F103
:1009800080E033C0843C09F45CC088F5813CC1F749
:100990008091513890915238A0915338B091543889
:1009A000169507959801215031092F3F310509F01F
:1009B00038F7480F591F6A1F7B1F980181E25EDCE0
:1009C0008823F1F273E6E72E78E3F72E9FDBF70139
:1009D00081879CDBF701828701501109F2E0EF0E5D
:1009E000F11C0115110591F781E08D8391C0853CC3
:1009F000A9F1863C29F6C80101978F3F910511F0B6
:100A000008F0BECF980180E239DC882309F4B8CF22
:100A10006CE6E62E68E3F62E79DBF70181937F0121
:100A200001501109C9F7E0CF8091513890915238A7
:100A3000A0915338B0915438481B590B6A0B7B0B6B
:100A4000A7CF80915F3890916038A0916138B091C4
:100A50006238480F591F6A1F7B1FCDCFE59B16C018
:100A6000C80101978F3F910511F008F089CFE3E6A7
:100A7000F8E30D59174CDF01AE5EBE4F8C918187B4
:100A800031960E171F07B9F7E598AECF80915B3806
:100A900090915C38A0915D38B0915E38DACFE199E1
:100AA00030C080916C38853C99F5E3E6F8E38185A8
:100AB00002851385C684D784E088F1880230110549
:100AC00008F039C0B288823B08F44CC0843B08F47B
:100AD000AFC1853C09F046C0EF9B2CC28C2D9C2DEC
:100AE0009F7309F013C2FFEFBF1210C2E7DD4FEF93
:100AF000C701B601A2DB882309F476C088E0ECDDEB
:100B000087C061E08BE0EADB811102C0F399CDCFB1
:100B100047DC88EC80930608A8958D812696CDBF8A
:100B2000DEBFDF91CF911F910F91FF90EF90DF908B
:100B3000CF90BF900895823C08F050C0803C08F0F0
:100B400055C0823219F0833B09F04EC080915F3866
:100B500090916038A0916138B0916238C80ED91E6A
:100B6000EA1EFB1EC8010197EF9B0BC28F3F910548
:100B700011F008F039C080E0AFDD8823A9F1C09200
:100B80002D38D0922E38E0922F38F09230388FEFF7
:100B9000800F8093283865E070E08BE298E3DADA22
:100BA000882311F1B3DA8034F9F465E070E086E26D
:100BB00098E3D0DA8823C1F025E7E22E28E3F22E6D
:100BC000F70181917F01AEDA882371F09FDA8034DA
:100BD00059F401501109A1F785E191CF843C09F442
:100BE000B5CF853C09F468C010E0F3C0809151385E
:100BF00090915238A0915338B0915438C80ED91EF4
:100C0000EA1EFB1EEF9B06C0A801C701B6016ADD04
:100C1000182FDFC0EE9B05C0A801C701B601EADDB1
:100C2000F7CF16950795C80101978F3F910509F0F9
:100C3000D8F6CCDD84E0C7DB8823B1F2C7DDC092F3
:100C40002D38D0922E38E0922F38F09230388FEF36
:100C5000800F8093233865E070E08BE298E37ADAC6
:100C6000882309F4C1CF52DA803409F0BDCF68E09F
:100C700070E08EE198E36EDA882309F4B5CF43E69D
:100C8000E42E48E3F42EF70182894CDAF7018389D8
:100C900049DA01501109F2E0EF0EF11C01151105BE
:100CA00091F76FDA882309F49FCF83E08CDB8823E8
:100CB00009F49ACF8BDD25C1E1998DC06AE070E01F
:100CC00080E399E947DA882309F48ECF81E0A9DA35
:100CD000882309F489CF80E0A4DA882309F484CF3B
:100CE00089EF90E00197F1F700C0000064E08BE02D
:100CF000F5DA8823A9F38091573890915838A0915C
:100D00005938B0915A3880932D3890932E38A0934B
:100D10002F38B09330388FEF800F8093283865E0FC
:100D200070E08BE298E316DA882309F45DCFEED900
:100D3000803409F059CF65E070E086E298E30ADA82
:100D4000882309F451CF33E6E32E38E3F32E0D590F
:100D5000174CF7018289EE5EFE4F8083F70182898E
:100D6000E1D9882309F440CFD1D9803409F03CCFB0
:100D7000FFEFEF1AFF0A0E151F0559F7E5E3F8E339
:100D80008AEC818382E0828363E070E0CF01E2D964
:100D900089EF90E00197F1F700C0000064E08BE07C
:100DA0009DDA8111F5CFE5E3F8E387EC818380E2FA
:100DB000828363E070E0CF01CDD981E032DA88230D
:100DC00009F412CF80E02DDA182F882309F40CCF14
:100DD000E59A1D839DCE80915B3890915C38A091FF
:100DE0005D38B0915E38C80ED91EEA1EFB1EEF9B1F
:100DF0000FC064DC4FEFC701B6011FDA882309F486
:100E0000F3CE88E069DC882309F4EECEE29AFCCECA
:100E1000EE9BA8CE88E0E8DC882309F4E5CE4FEF0E
:100E2000C701B6010ADA882309F4DECEE29AF4CECD
:100E3000C701B60169DAB81204C08FB311E0882384
:100E400041F2EF9B18C080E0CFDC882309F4CCCEC0
:100E5000C701B601882799274B2DEFD9882309F4BC
:100E6000C3CE2CDC807711E009F010E085E134DCA2
:100E70008111AFCFB9CEEE9B16C083E1B5DC8823DC
:100E800009F4B2CEC701B601882799274B2DD5D9D1
:100E9000882309F4A9CE9ADC807711E009F010E0EC
:100EA00080E0A2DCE5CF4B2D50E049835A83CB8212
:100EB000DC828CDC24E030E046E050E160E070E071
:100EC00080E6DCD9882309F48FCE8E010F5F1F4F97
:100ED0007E0195E0E90EF11CF80181918F0122D984
:100EE000882309F481CE12D9803409F07DCEE01632
:100EF000F10691F787E067DA882309F475CE66DC9E
:100F0000877011E0882309F464CF6ECE80FF0EC095
:100F1000E3E6F8E3B38A8FEF828B81E0C81AD10849
:100F2000E108F108E29A42E050E06FCE8FEF809343
:100F30007638F8CFEE9B16CE8C2D9C2D9F7369F4DE
:100F40009FEFB9120AC088E04FDC882309F44CCE29
:100F50004FEFC701B60171D95BCE80FF0EC0E3E64B
:100F6000F8E3B38A8FEF828BE1E0CE1AD108E10873
:100F7000F108E29A42E050E050CE8FEF809376384D
:100F8000F8CFEE9B3FC08F3F910511F008F02CCEBB
:100F900083E12ADC882309F427CEC0922D38D09231
:100FA0002E38E0922F38F09230388FEF800F8093F8
:100FB000283865E070E08BE298E3CCD8882309F408
:100FC00013CEA4D8803409F00FCE65E070E086E23D
:100FD00098E3C0D8882309F407CE95E7E92E98E373
:100FE000F92EF70181917F019DD8882309F4FCCD6A
:100FF0008DD8803409F0F8CD0150110991F780E0C7
:10100000F3DB06CE8F3F910511F008F0EDCDDEDB6E
:1010100084E0D9D9882309F4E7CDD8DBC0922D38F4
:10102000D0922E38E0922F38F09230388FEF800F28
:101030008093283865E070E08BE298E38BD88823B2
:1010400009F4D2CD63D8803409F0CECD65E070E0EC
:1010500086E298E37FD8882309F4C6CD85E7E82E99
:1010600088E3F82EF70181917F015CD8882309F489
:10107000BBCD4CD8803409F0B7CD0150110991F7A0
:1010800014CEE3E6F8E38185811142CD8285938514
:10109000A485B585892B8A2B8B2B09F039CDE09B54
:1010A00031C06AE070E084E499E954D8882309F4F7
:1010B00067CC6AE070E08AE399E94CD8882309F4A8
:1010C0005FCC81E0AED8882309F45ACC80E0A9D85F
:1010D000882309F455CC87EA91E60197F1F700C01F
:1010E0000000E9EFF0E03197F1F700C0000061E0A7
:1010F0008BE0F4D88111F5CFE29AE09B05C0E1982E
:1011000002DA73CC3DDACDCFE099FACF3AD8882312
:1011100009F436CC40D88111F3CF32CC81E002D92A
:10112000882309F462CC80E0FDD85FCC11241092B2
:10113000800A81E08093860A62E070E088E398E3A9
:10114000D5D31F920F920FB60F9211242F933F9376
:101150004F935F936F937F938F939F93AF93BF93BF
:10116000EF93FF938091090480930904129B16C0AA
:1011700088ED91E084BF90934100FF91EF91BF9182
:10118000AF919F918F917F916F915F914F913F911F
:101190002F910F900FBE0F901F901895E9D881E006
:1011A000C1D8219A0000219880E0BCD8E6CFE0D8D1
:1011B00081E0B8D888E08093060883EC99E0019735
:1011C000F1F700C00000019A109211040998219AC9
:1011D000B7D8309BFECF88ED91E084BF909341005B
:1011E000F89424E0E0E1F4E083E098E021939A951C
:1011F000E9F778968A95C9F788ED41E050E084BF19
:10120000409361008CE08093310488EF8093010467
:1012100080E28093210481E0809341048093E00583
:1012200098E09093E10530EA3093050435E030937F
:10123000E2059093520490935104909311042093EB
:10124000130444E8409314044DE04093300449E013
:1012500040931204909353041CBA1DBA90E19093EA
:1012600090019AE09093910191E1909392019DE415
:101270009093930192E09093B1019093B3012093E6
:10128000A0012093A2012093CB0193E09093CA0187
:1012900020EC2093C9018093C80126E02093CF0160
:1012A0009093CE012AEC2093CD018093CC012FE7BF
:1012B0002093D7013093D60128E52093D50121E46E
:1012C0002093D4012093C001809350018093030A9E
:1012D00029E82093260A25E42093280A8093270AE8
:1012E0008093290A80932B0A3FE83093000A37E065
:1012F0003093910A129B8FC030915038313081F079
:10130000809350384AE855E440939C0A50939D0AD4
:1013100010929A0A10929B0A2093900A9093A90126
:10132000EDE9F0E085919491809328089093290845
:101330001092250883E08093270888E88093260888
:1013400080EB90E080930808909309088AE08093EE
:1013500005088BE28093070888EC8093060880914B
:10136000400084FF03C080E00E9492018FEF8093D1
:101370004000809309047894E2E0CE2ED12CF3E073
:101380002F2E312CA2E04A2E512C612C712CBDE164
:101390008B2E912CA12CB12C8091240887FFFCCF9F
:1013A000809120088B31C1F780936338E4E6F8E33D
:1013B0008091240887FFFCCF80912008819328E347
:1013C000EB36F207A9F780916A388E3029F78091C1
:1013D000663890916738A0916838B09169388A3042
:1013E0009240A105B105C0F6CBE6D8E37E018EEFB1
:1013F0009FEF20916638309167388217930774F415
:101400002091240827FFFCCF20912008D7012D939D
:101410007D010196EECF0E94B80182CF03E618E36A
:101420008FEF9FEF0E151F0529F0F80161918F01D5
:1014300002D8F8CF892B09F0AFCFA89580916B38EF
:10144000883009F4CFC1D0F5823009F49FC048F448
:10145000882309F4CCC1813009F447C080EA90E0C8
:10146000D6C0843009F49AC108F4D4C08530B1F7ED
:1014700080916C38EC994FC190E0E1996AC1843B4E
:1014800009F067C180916D38813009F062C18091A7
:10149000713822E820936B38E0993FC19FB381E017
:1014A000911180E081954092663850926738609241
:1014B00068387092693880936C3865C0843109F45B
:1014C0000BC148F48B3050F28D3010F08F3031F674
:1014D00080E890E09CC0843309F467C1863309F446
:1014E00094C1853109F0BACFF3CF88E0809312041C
:1014F0008BE00E94DA0180915038882341F01092ED
:10150000503881E88093000A1092A9010F98489AF8
:10151000429A1092520488EC809326088092663892
:1015200090926738A0926838B0926938E8E7F0E0A6
:1015300084918993319628E3C838D207C9F78091FE
:1015400007119091031189279091041189278093A5
:101550007538809108119091051189279091061195
:10156000892780937638809109118093773880910C
:101570000A118093783880910B118093793880918B
:101580000C1180937A380E942D0206CFF0906D38AE
:1015900080916C388330B1F1853009F099CF8EEFAE
:1015A0008F0D883190F58F2D90E0FC01EE0FFF1F1D
:1015B000EB56FF4FC591D4918E01209731F1809366
:1015C00033389093343880E890E00E94FE010E9406
:1015D0002D028091240886FFFCCFC034D10530F461
:1015E0008AEC809326088E01000F111F00932808B3
:1015F0001093290895E0F91619F0A8E1FA12CCCE5B
:10160000E69ACACEF0924F3863CF86EA90E00E9405
:10161000FE01B9CF80916C38833009F451C038F4A1
:10162000813081F18230B9F181EA90E0F0CF8530EC
:1016300009F44FC08630C1F781E080930006109214
:10164000010684E58093020681E18093080691E318
:1016500090930C0680930A068091050681FFFCCFCB
:1016600080911406909115069C0136952795880F58
:10167000991F10920006820F931F80936C389093ED
:101680006D3804C080936C3880936D382092663832
:101690003092673811C091E090936C3880936D3828
:1016A00085E380936E3887E080936F38E5E0F0E063
:1016B000E0936638F093673881E880936B3863CFA6
:1016C00080914F3880936C38C0926638D0926738DA
:1016D000F3CF80913338F6CFCCB30E94F60280E886
:1016E00090E00E94FE01C0FD0EC0E09B0CC084E1B2
:1016F00090E0A0E0B0E08093663890936738A093C4
:101700006838B09369380E94A001E69B3CCF80E026
:101710000E94DA0138CF90E8B0CE891B81F0813089
:1017200031F4EE990EC0ED990EC084E7BCCE823044
:1017300081F4EF990AC0EE990AC080E3B4CE8EE13D
:10174000B2CE81E4B0CE8DE6AECE83E3ACCE82E302
:10175000AACEE69917C080915038843099F084E081
:1017600080935038A5E1B1E0A0939C0AB0939D0A04
:1017700010929A0A10929B0A8FE48093900A81E05B
:101780008093A901E19905C0E59903C085EA90E03D
:101790003ECF81E0A1D88111F6CEF8CF82E09CD86F
:1017A000811196CE82EA90E032CFCCB383E094D818
:1017B000811115C085EA90E00E94FE01C0FDE3CED4
:1017C000E09BE1CE83E190E0A0E0B0E0809366385A
:1017D00090936738A0936838B0936938D4CE80E886
:1017E00090E0EACFE19B74CE84E076D871CE80E8B9
:1017F00090E00E94FE010E942D028091240886FF45
:10180000FCCF81E00E94DA01FFCF80917738909180
:101810007838A0917938B0917A3880935F38909376
:101820006038A0936138B09362388091833890918A
:101830008438A0918538B091863880935B38909336
:101840005C38A0935D38B0935E3880918B3890916E
:101850008C38A0918D38B0918E3880935738909302
:101860005838A0935938B0935A3880919538909150
:101870009638809355389093563880915C388331F0
:1018800009F426CE80E090E0A0E8B0E080935138E3
:1018900090935238A0935338B0935438EE9A809175
:1018A0005C38823109F014CEEC9A12CEDC012D9214
:1018B0003D924D925D926D927D928D929D92AD92F0
:1018C000BD92CD92DD92ED92FD920D931D93CD933D
:1018D000DD93FF91EF918DB78D938EB78D938FB779
:1018E0008D93ED93FD93882799270994DC01CB0113
:1018F00081309105811D2D903D904D905D906D90B2
:101900007D908D909D90AD90BD90CD90DD90ED90AF
:10191000FD900D911D91CD91DD91ED91FD910D9079
:101920000FBEEDBFFEBFED91FD910994F894FFCF7E
:1019300055E065742673554D564E55E065736172DA
:0E194000454D564E55E020676F72504D564E85
:10194E0055C800C30455A0005504556A0000000098
:10195E00554800000000550800000000550055C213
:10196E000E55A000556555A0005564556A0000003F
:08197E000055E50400550000CE
:00000001FF
