:1000000067C0000082C0000080C000007EC0000009
:100010007CC000007AC000000C94BF080C94F50866
:1000200074C0000072C0000070C000006EC000000C
:100030006CC000000C94B40868C0000066C00000EA
:1000400064C0000062C0000060C000005EC000002C
:100050005CC000005AC0000058C0000056C000003C
:1000600054C0000052C0000050C000004EC000004C
:100070004CC000004AC000008601010102010135A8
:1000800007010000000000004A5441474943452051
:100090006D6B49490000001B418D20471023081259
:1000A00004B6025B01DA0A0401AE0057002B0039E6
:1000B000019C00000000000B01C800A00085006446
:1000C00000500043003C0028001B0014000D0000FD
:1000D00011241FBECFEFCDBFDFE3DEBF18E3A0E0EA
:1000E000B8E3EEE4F9E102C005900D92A833B10740
:1000F000D9F72AE3A8E3B8E301C01D92A837B207F5
:10010000E1F70E940E090C94960C7ACF80910408B6
:1001100087FFFCCF8091010880588FBB8091000839
:100120008EBB0895CF93C82F8091040885FFFCCF24
:1001300080E480930408C09302088091040886FF3D
:10014000FCCFE4DF982F81E09C1380E09C13FD9AA4
:10015000CF9108950F931F93CF93DF93EB018C0101
:10016000F80181918F01DEDF882311F02197C1F71B
:1001700081E0CD2B09F080E0DF91CF911F910F91AD
:100180000895EEE1F8E3806C8183628363E070E0C0
:10019000CF01E0CF60E0811169E588E0F2CFCF9335
:1001A000C42F60931238709313388093143890934F
:1001B000153865E070E080E198E3CCDF811102C082
:1001C00090E00BC0A3DF8034D9F78C2FABDF8823FE
:1001D000B9F39CDF91E0803499F7892FCF9108958E
:1001E00040930C3850930D3860930E3870930F384D
:1001F00021502093073884608093093865E070E0CF
:100200008AE098E3A7DF882341F080DF803429F477
:1002100065E070E085E098E39DCF80E00895CF939E
:10022000DF93C0E0D8E080EC94E48887998780E091
:1002300079DF80EB90E088879987DF91CF910895EF
:10024000806880931D3862E070E08CE198E382DF83
:10025000811102C0E4DFF7CF59CF60931838709353
:10026000193865E070E086E198E374DF811102C01F
:10027000D6DFF7CF4BCFCF93C82FD1DF80E0C111AE
:1002800089E58093023865E070E080E098E3CF91E3
:1002900061CF80915038833099F083E0809350385B
:1002A00089EA95E580939C0A90939D0A10929A0A98
:1002B00010929B0A8FE48093900A81E08093A901B9
:1002C000089580915038823099F082E080935038C0
:1002D00089EA98E080939C0A90939D0A10929A0A6A
:1002E00010929B0A8FE48093900A81E08093A90189
:1002F00008958FB7F8941092800A91E09093860A3F
:100300008FBF189508959091010190FDFCCF98ED55
:1003100094BF80930001089581E0809300061092BD
:10032000010684E58093020681E18093080691E34B
:1003300090930C0680930A068091050681FFFCCFFE
:100340002091140630911506C90196958795220FC4
:10035000331F10920006820F931F0895482F60E00C
:1003600070E180E090E01BCFCF93C82F60E070E198
:1003700080E090E072DF8C1303C081E0CF9108959C
:1003800080E0ECDF8823D1F3CC23B9F38C2FCF911D
:10039000E5CF44E050E060E070E040936638509371
:1003A0006738609368387093693880936B38E19947
:1003B0000BC08CB3817080936C388CB380936D3894
:1003C0008DB380936E38089582E0F5CF8627082E8E
:1003D0008295807F8025092E982F82958F70082620
:1003E000869598278927880F880F880F802508957C
:1003F000AF92BF92CF92DF92EF92FF920F931F9333
:10040000CF93DF9300D0CDB7DEB78FEF9FEF898317
:100410009A83E0906638F09067388701085F1F4F35
:1004200083E6C82E88E3D82E560181E0E81AF10849
:10043000A7EFEA16AFEFFA0649F0F50161915F0107
:1004400089819A81C3DF89839A83EFCFF801ED59BF
:10045000F74C898180838A8181832FB7F894329603
:1004600090E4CE16DF0671F42FBF0F900F90DF914E
:10047000CF911F910F91FF90EF90DF90CF90BF90A1
:10048000AF900895D6018D916D013091240835FF0C
:10049000FCCF9093240880932208E3CFE19933C0E6
:1004A0008BE0CEDE85FDFCCFF3992BC0F09B02C024
:1004B00080E0089587E0C4DE84FD11C06AE070E04A
:1004C00084E499E947DE882399F389EF90E0019766
:1004D000F1F700C0000087E0B3DE84FFF6CF81E0D3
:1004E00059DE882329F380E055DE882309F389EF5C
:1004F00090E00197F1F700C000008BE0A1DE83FFE0
:10050000F6CFE09AE19A81E0089580E38093010AB2
:10051000219A8FEC97E00197F1F700C00000219835
:100520008FEC97E00197F1F700C00000EE9B1BC035
:100530002D9A8FEC97E00197F1F700C000002D98FD
:100540001092010A88EE93E08093080890930908BE
:1005500080E0E8DD80EB90E0809308089093090844
:10056000E39AE79808950E9A8FEC97E00197F1F7D8
:1005700000C000000E98E4CF0F931F93CF93DF933A
:10058000C82FCADE8C01C1111DC0E49B36C0BDDF7F
:100590006AE070E084E499E9DDDD811102C080E069
:1005A00063C081E0F7DD8823D1F380E0F3DD8823A9
:1005B000B1F32FE986E891E0215080409040E1F7C7
:1005C00000C00000E0994CC00A3920E11207B8F4DD
:1005D00066E082E0D6DD882311F362E070E081E21C
:1005E00098E3B8DD8823D9F2CFE6D8E388E3CF37A4
:1005F000D80759F08BDD8993F9CF11DEE3CF62E0A4
:1006000089E0BFDD8111E4CFCACF80916F3881349A
:1006100021F070F4803209F0C2CF809179388333B1
:1006200009F4EF9AEE9A80E090E0A0E8B0E00FC005
:100630008D3641F0843709F0B2CF80E090E8A0E039
:10064000B0E005C0ED9A80E090E4A0E0B0E08093D7
:10065000513890935238A0935338B0935438E09A5D
:100660000A39104130F481E0DF91CF911F910F9151
:10067000089589E0E5DD83708230A9F7E79A88E57F
:1006800090E08093080890930908EDCFCF93DF9313
:100690001F92CDB7DEB783E089838981815089833A
:1006A000882391F1E19930C02FE33DE083E02150B0
:1006B00030408040E1F700C0000088E398E30E94EA
:1006C000560C892BE1F48FB7F894EAE8FAE010822F
:1006D000118225E230E0ECE8FAE02083318321E06A
:1006E000E5E8FAE02083E6E8FAE020832FE0E0E89E
:1006F000FAE020838FBF80E03FDF8111CFDEF9DD9C
:100700005399CBCFE49AC9CF8CB3869581700F9063
:10071000DF91CF91089566E070E180E090E09DDD8B
:10072000837029F086EA8A95F1F700C0F4CF8EB382
:100730000895CF93C82FEFDF8C2FCF9115CECF9296
:10074000DF92EF92FF920F931F93CF93DF93EA0113
:10075000D695C7959E01215031092F3F310511F0E3
:1007600008F059C06B017C01E29B40C08FE0E1DFE3
:10077000882309F450C0C0923238D0923338E092C6
:100780003438F09235388C2F81508093283865E0CA
:1007900070E080E398E3DEDC882309F43CC0B6DC3B
:1007A000803409F038C068E070E083E298E3D2DC7E
:1007B000882389F103E618E3F8018289B3DCF801A4
:1007C0008389B0DC21970E5F1F4F2097A9F766E061
:1007D00082E0D7DC8823F9F084E0DF91CF911F918C
:1007E0000F91FF90EF90DF90CF90A3CF809155387D
:1007F00090915638019786239D21892B09F0B6CF19
:100800008ADF4FEFC701B601CADC882321F088E0F8
:1008100090DF8111ABCF80E0DF91CF911F910F91DD
:10082000FF90EF90DF90CF90089562E070E180E05C
:1008300090E013DD837029F086EA8A95F1F700C015
:10084000F4CF8EB30895CF93C82FEFDF8C2FCF91C5
:100850008BCDCF92DF92EF92FF920F931F93CF93A6
:10086000DF93EA01D695C7959E01215031092F3FAC
:10087000310511F008F058C06B017C01E29B40C0CB
:1008800082E0E1DF882309F44FC0C0923238D09271
:100890003338E0923438F09235388C2F8150809381
:1008A000283865E070E080E398E354DC882309F49D
:1008B0003BC02CDC803409F037C068E070E083E294
:1008C00098E348DC882381F103E618E3F801828984
:1008D00029DCF801838926DC21970E5F1F4F2097C2
:1008E000A9F766E082E04DDC8823F1F080E0DF913B
:1008F000CF911F910F91FF90EF90DF90CF90A3CFFA
:100900008091553890915638019786239D21892BE7
:1009100009F0B6CF88E097DF882331F04FEFC701A9
:10092000B6013DDC8111ACCF80E0DF91CF911F910A
:100930000F91FF90EF90DF90CF900895BF92CF92EC
:10094000DF92EF92FF920F931F93CF93DF93CDB778
:10095000DEB72697CDBFDEBF8E831D8288E398E386
:10096000A5D7892B09F005C19FB7F89410928A0A80
:1009700010928B0A28EE33E020938C0A30938D0A74
:1009800081E08093850A8093860A8FE08093800AB5
:100990009FBF8E81833009F497C3843009F4DCC390
:1009A000823009F4AEC0E3E6F8E381850285138561
:1009B000468557856089718992E8908798012F5FF5
:1009C0003F4F238334830230110508F446C0803C36
:1009D00009F45CC048F4823209F465C018F0825B07
:1009E0008430D8F180E033C0843C09F45CC088F5E1
:1009F000813CC1F78091513890915238A091533881
:100A0000B0915438169507959801215031092F3F20
:100A1000310509F038F7480F591F6A1F7B1F9801ED
:100A200081E2DEDB8823F1F273E6E72E78E3F72E2E
:100A30006DDBF70181876ADBF701828701501109BD
:100A4000F2E0EF0EF11C0115110591F781E08D83A5
:100A500090C0853CA9F1863C29F6C80101978F3FDB
:100A6000910511F008F0BECF980180E2B9DB882330
:100A700009F4B8CF6CE6E62E68E3F62E47DBF70103
:100A800081937F0101501109C9F7E0CF809151385E
:100A900090915238A0915338B0915438481B590B5B
:100AA0006A0B7B0BA7CF80915F3890916038A09143
:100AB0006138B0916238480F591F6A1F7B1FCDCF34
:100AC000E59B16C0C80101978F3F910511F008F012
:100AD00089CFE3E6F8E30D59174CDF01AE5EBE4F58
:100AE0008C9181873196E017F107B9F7E598AECF81
:100AF00080915B3890915C38A0915D38B0915E3800
:100B0000DACFE19930C080916C38853C91F5E3E60D
:100B1000F8E3818502851385C684D784E088F1884F
:100B20000230110508F038C0B288823B08F44BC08F
:100B3000843B08F4A0C1853C09F045C0EF9B1DC271
:100B40008C2D9C2D9F7309F004C2FFEFBF1201C2D0
:100B5000E2DD4FEFC701B60122DB882309F475C03F
:100B600088E0E7DD86C08BE06BDB80FD02C0F39997
:100B7000CECFBFDB88EC80930608A8958D812696A2
:100B8000CDBFDEBFDF91CF911F910F91FF90EF900E
:100B9000DF90CF90BF900895823C08F050C0803C19
:100BA00008F055C0823219F0833B09F04EC08091A5
:100BB0005F3890916038A0916138B0916238C80E6A
:100BC000D91EEA1EFB1EC8010197EF9BFDC18F3F96
:100BD000910511F008F039C080E0ABDD8823A9F160
:100BE000C0923238D0923338E0923438F0923538AF
:100BF0008FEF800F80932D3865E070E080E398E3FD
:100C0000A9DA882311F182DA8034F9F465E070E022
:100C10008BE298E39FDA8823C1F025E7E22E28E3F0
:100C2000F22EF70181917F017DDA882371F06EDA6F
:100C3000803459F401501109A1F785E192CF843C29
:100C400009F4B5CF853C09F46AC010E0E5C0809195
:100C5000513890915238A0915338B0915438C80E01
:100C6000D91EEA1EFB1EEF9B06C0A801C701B601F4
:100C700066DD182FD1C0EE9B05C0A801C701B601E3
:100C8000E8DDF7CF16950795C80101978F3F9105CD
:100C900009F0D8F6CADD84E061DB8823B1F2C5DD56
:100CA000C0923238D0923338E0923438F0923538EE
:100CB0008FEF800F8093283865E070E080E398E341
:100CC00049DA882309F4C1CF21DA803409F0BDCF95
:100CD00068E070E083E298E33DDA882309F4B5CF59
:100CE00043E6E42E48E3F42EF70182891BDAF7018C
:100CF000838918DA01501109F2E0EF0EF11C011599
:100D0000110591F766E082E03CDA882309F49DCF73
:100D100083E024DB882309F498CF87DD15C1E199AE
:100D20007DC06AE070E080E399E914DA882309F471
:100D30008CCF81E02FDA882309F487CF80E02ADA8C
:100D4000882309F482CF89EF90E00197F1F700C082
:100D500000008BE075DA82FFF6CF809157389091D2
:100D60005838A0915938B0915A38809332389093BE
:100D70003338A0933438B09335388FEF800F809399
:100D80002D3865E070E080E398E3E4D9882309F426
:100D90005CCFBCD9803409F058CF65E070E08BE2BD
:100DA00098E3D8D9882309F450CF33E6E32E38E30B
:100DB000F32E0D59174CF7018289EE5EFE4F8083AA
:100DC000F7018289AFD9882309F43FCF9FD98034B6
:100DD00009F03BCFFFEFEF1AFF0AE016F10659F7D3
:100DE00062E08AE0CED989EF90E00197F1F700C088
:100DF00000008BE025DA82FDF6CF60E287E0C1D902
:100E000081E0C8D9882309F420CF80E0C3D9182F06
:100E1000882309F41ACFE59A1D83ABCE80915B3805
:100E200090915C38A0915D38B0915E38C80ED91EA3
:100E3000EA1EFB1EEF9B0FC06EDC4FEFC701B60131
:100E4000AED9882309F401CF88E073DC882309F444
:100E5000FCCEE29A0ACFEE9BB6CE88E0F4DC882383
:100E600009F4F3CE4FEFC701B60199D9882309F4ED
:100E7000ECCEE29A02CFC701B601EFD9B81204C096
:100E80008FB311E0882341F2EF9B18C080E0DBDCD8
:100E9000882309F4DACEC701B601882799274B2D9C
:100EA0007ED9882309F4D1CE36DC807711E009F0B1
:100EB00010E085E13EDC8111AFCFC7CEEE9B16C0BE
:100EC00083E1C1DC882309F4C0CEC701B6018827BD
:100ED00099274B2D64D9882309F4B7CEA6DC8077F7
:100EE00011E009F010E080E0AEDCE5CF4B2D50E0E2
:100EF00049835A83CB82DC8298DC24E030E046E0F0
:100F000050E160E070E080E66BD9882309F49DCE63
:100F10008E010F5F1F4F7E0195E0E90EF11CF80175
:100F200081918F01FFD8882309F48FCEEFD88034C8
:100F300009F08BCE0E151F0591F787E00FDA882395
:100F400009F483CE72DC877011E0882309F464CF42
:100F50007CCE80FF0EC0E3E6F8E3B38A8FEF828B8E
:100F600081E0C81AD108E108F108E29A42E050E0B5
:100F70007DCE8FEF80937638F8CFEE9B24CE8C2DEC
:100F80009C2D9F7369F49FEFB9120AC088E05BDC67
:100F9000882309F45ACE4FEFC701B60100D969CEB4
:100FA00080FF0EC0E3E6F8E3B38A8FEF828BE1E0C7
:100FB000CE1AD108E108F108E29A42E050E05ECE94
:100FC0008FEF80937638F8CFEE9B3FC08F3F91052F
:100FD00011F008F03ACE83E136DC882309F435CEEF
:100FE000C0923238D0923338E0923438F0923538AB
:100FF0008FEF800F80932D3865E070E080E398E3F9
:10100000A9D8882309F421CE81D8803409F01DCED7
:1010100065E070E08BE298E39DD8882309F415CE53
:1010200095E7E92E98E3F92EF70181917F017AD8AF
:10103000882309F40ACE6AD8803409F006CE01501C
:10104000110991F780E0FFDB14CE8F3F910511F07D
:1010500008F0FBCDEADB84E081D9882309F4F5CDE3
:10106000E4DBC0923238D0923338E0923438F092D8
:1010700035388FEF800F80932D3865E070E080E386
:1010800098E368D8882309F4E0CD40D8803409F08B
:10109000DCCD65E070E08BE298E35CD8882309F44E
:1010A000D4CD85E7E82E88E3F82EF70181917F0102
:1010B00039D8882309F4C9CD29D8803409F0C5CDA1
:1010C0000150110991F724CEE3E6F8E381858111FF
:1010D00050CD82859385A485B585892B8A2B8B2B52
:1010E00009F047CDE09B30C06AE070E084E499E904
:1010F00031D8882309F476CC6AE070E08AE399E974
:1011000029D8882309F46ECC81E044D8882309F4D7
:1011100069CC80E03FD8882309F464CC87EA91E663
:101120000197F1F700C00000E9EFF0E03197F1F727
:1011300000C000008BE084D880FDF6CFE29AE09BEF
:1011400005C0E198ABD983CCE0D9CECF81E014DAE9
:10115000882309F447CCF6CF81E08DD8882309F4A1
:1011600076CC80E088D873CC11241092800A81E07C
:101170008093860A62E070E088E398E3B7D31F9219
:101180000F920FB60F9211242F933F934F935F93BB
:101190006F937F938F939F93AF93BF93EF93FF933F
:1011A0008091090480930904129B16C088ED91E098
:1011B00084BF90934100FF91EF91BF91AF919F91B8
:1011C0008F917F916F915F914F913F912F910F90F0
:1011D0000FBE0F901F90189574D881E04CD8219ABB
:1011E0000000219880E047D8E6CF6BD881E043D853
:1011F00088E08093060883EC99E00197F1F700C03E
:101200000000019A109211040998219A42D8309B4B
:10121000FECF88ED91E084BF90934100F89424E0E4
:10122000E0E1F4E083E098E021939A95E9F778967D
:101230008A95C9F788ED41E050E084BF4093610092
:101240008CE08093310488EF8093010480E28093E6
:10125000210481E0809341048093E00598E090931D
:10126000E10530EA3093050435E03093E2059093D0
:10127000520490935104909311042093130444E872
:10128000409314044DE04093300449E0409312042D
:10129000909353041CBA1DBA90E1909390019AE088
:1012A0009093910191E1909392019DE49093930129
:1012B00092E09093B1019093B3012093A001209309
:1012C000A2012093CB0193E09093CA0120EC2093DC
:1012D000C9018093C80126E02093CF019093CE01ED
:1012E0002AEC2093CD018093CC012FE72093D701E6
:1012F0003093D60128E52093D50121E42093D40131
:101300002093C001809350018093030A29E8209321
:10131000260A25E42093280A8093270A8093290A25
:1013200080932B0A3FE83093000A37E03093910A0C
:10133000129B91C030915038313081F080935038F9
:101340004AE855E440939C0A50939D0A10929A0AE9
:1013500010929B0A2093900A9093A901EDE9F0E086
:1013600085919491809328089093290810922508DC
:1013700083E08093270888E88093260880EB90E03C
:1013800080930808909309088AE0809305088BE20F
:101390008093070888EC80930608E79880914000C6
:1013A00084FF03C080E00E943B018FEF80934000E8
:1013B00080930904789432E0232E312C43E0C42E2C
:1013C000D12C52E0452E512C612C712C6DE1862ED2
:1013D000912CA12CB12C8091240887FFFCCF809107
:1013E00020088B31C1F780936338E4E6F8E38091FD
:1013F000240887FFFCCF8091200881938BE698E337
:101400008E179F07A1F780916A388E3021F780915F
:10141000663890916738A0916838B09169388A3001
:101420009240A105B105B8F6CBE6D8E37E018EEF78
:101430009FEF20916638309167388217930774F4D4
:101440002091240827FFFCCF20912008D7012D935D
:101450007D010196EECF0E94610180CF03E618E383
:101460008FEF9FEF0E151F0531F0F80161918F018D
:101470000E94E601F7CF892B09F0ADCFA8958091A6
:101480006B38883009F4AEC1D0F5823009F49FC0C2
:1014900048F4882309F4ABC1813009F447C080EADD
:1014A00090E0D6C0843009F479C108F4D4C0853006
:1014B000B1F780916C38EC992EC190E0E19949C167
:1014C000843B09F046C180916D38813009F041C1FB
:1014D0008091713822E820936B38E0991EC19FB348
:1014E00081E0911180E08195409266385092673892
:1014F000609268387092693880936C3865C0843126
:1015000009F4EAC048F48B3050F28D3010F08F307F
:1015100031F680E890E09CC0843309F446C18633FC
:1015200009F473C1853109F0BACFF3CF88E0809315
:1015300012048BE00E94830180915038882341F08F
:101540001092503881E88093000A1092A9010F98F8
:10155000489A429A1092520488EC8093260880920E
:10156000663890926738A0926838B0926938E8E798
:10157000F0E084918993319628E3C838D207C9F7FF
:101580008091071190910311892790910411892767
:101590008093753880910811909105118927909159
:1015A00006118927809376388091091180937738C6
:1015B00080910A118093783880910B11809379384B
:1015C00080910C1180937A380E94F80104CFF0903A
:1015D0006D3880916C388330B1F1853009F099CF46
:1015E0008EEF8F0D883190F58F2D90E0FC01EE0F7E
:1015F000FF1FEB56FF4FC591D4918E01209731F11B
:10160000809336389093373880E890E00E94C90183
:101610000E94F8018091240886FFFCCFC034D105D8
:1016200030F48AEC809326088E01000F111F00937E
:1016300028081093290885E0F81619F098E1F912A6
:10164000CACEE69AC8CEF0924F3863CF86EA90E0D1
:101650000E94C901B9CF80916C38833089F138F488
:10166000813081F08230B9F081EA90E0F1CF8530AD
:1016700081F18630C9F70E948C0180936C38909379
:101680006D3804C080936C3880936D38C092663892
:10169000D092673811C091E090936C3880936D3888
:1016A00085E380936E3887E080936F38A5E0B0E0E3
:1016B000A0936638B093673881E880936B3884CF05
:1016C00080914F3880936C3820926638309267381A
:1016D000F3CF80913638F6CFCCB30E94460380E832
:1016E00090E00E94C901C0FD0EC0E09B0CC084E1E7
:1016F00090E0A0E0B0E08093663890936738A093C4
:101700006838B09369380E944901E69B5DCF80E05C
:101710000E94830159CF90E8D1CE891B81F081309E
:1017200031F4EE990EC0ED990EC084E7DDCE823023
:1017300081F4EF990AC0EE990AC080E3D5CE8EE11C
:10174000D3CE81E4D1CE8DE6CFCE83E3CDCE82E37E
:10175000CBCEE69917C080915038843099F084E060
:101760008093503885E191E080939C0A90939D0A84
:1017700010929A0A10929B0A8FE48093900A81E05B
:101780008093A901E19905C0E59903C085EA90E03D
:101790005FCF81E0D3D8811117CFF8CF82E0CED8C8
:1017A0008111B7CE82EA90E053CFCCB383E0C6D8A4
:1017B000811115C085EA90E00E94C901C0FD04CFE7
:1017C000E09B02CF83E190E0A0E0B0E08093663838
:1017D00090936738A0936838B0936938F5CE80E865
:1017E00090E0EACFE19B95CE84E0A8D892CE80E845
:1017F00090E00E94C9010E94F8018091240886FFB0
:10180000FCCF81E00E948301FFCF809177389091D7
:101810007838A0917938B0917A3880935F38909376
:101820006038A0936138B09362388091833890918A
:101830008438A0918538B091863880935B38909336
:101840005C38A0935D38B0935E3880918B3890916E
:101850008C38A0918D38B0918E3880935738909302
:101860005838A0935938B0935A3880919538909150
:101870009638809355389093563880915C388331F0
:1018800009F447CE80E090E0A0E8B0E080935138C2
:1018900090935238A0935338B0935438EE9A809175
:1018A0005C38823109F035CEEC9A33CEDC012D92D2
:1018B0003D924D925D926D927D928D929D92AD92F0
:1018C000BD92CD92DD92ED92FD920D931D93CD933D
:1018D000DD93FF91EF918DB78D938EB78D938FB779
:1018E0008D93ED93FD93882799270994DC01CB0113
:1018F00081309105811D2D903D904D905D906D90B2
:101900007D908D909D90AD90BD90CD90DD90ED90AF
:10191000FD900D911D91CD91DD91ED91FD910D9079
:101920000FBEEDBFFEBFED91FD910994F894FFCF7E
:1019300055E065742673554D564E55E065736172DA
:0E194000454D564E55E020676F72504D564E85
:10194E0055C800C30455A0005504556A0000000098
:10195E0055480000000055080000000055005500D5
:10196E000055E555C20E55A000556555A0005564AD
:08197E00556A0000000004009E
:00000001FF
