:1000000067C0000081C000007FC000007DC000000C
:100010007BC0000079C00000D1C6000002C700000C
:1000200073C0000071C000006FC000006DC0000010
:100030006BC00000B8C6000067C0000065C00000CB
:1000400063C0000061C000005FC000005DC0000030
:100050005BC0000059C0000057C0000055C0000040
:1000600053C0000051C000004FC000004DC0000050
:100070004BC0000049C00000860102350702022281
:100080000602000000000000555044493441565219
:10009000000000000000001B418D204710230812C3
:1000A00004B6025B01DA0A0401AE0057002B0039E6
:1000B000019C00000000000B01C800A00085006446
:1000C00000500043003C0028001B0014000D0000FD
:1000D00011241FBECFEFCDBFDFE3DEBF18E3A0E0EA
:1000E000B8E3E0E5F5E102C005900D92AC34B1074C
:1000F000D9F72AE3ACE4B8E301C01D92A03BB207F4
:10010000E1F7B4D60C94A60A7BCF8091040887FF50
:10011000FCCF8091010880588FBB809100088EBB76
:100120000895CF93C82F8091040885FFFCCF80E409
:1001300080930408C09302088091040886FFFCCFD6
:10014000E4DF982F81E09C1380E09C1711F09FB3AF
:100150009FBBCF9108950F931F93CF93C62F8C0110
:10016000F80181918F01DDDF882311F0C150C1F7C3
:10017000CF911F910F910895EAE1F8E3806C81839C
:10018000628363E0CF01E7CF0F931F93CF93C42F18
:10019000609348387093493880934A3890934B382D
:1001A0008FEF840F8093433884E68093453865E071
:1001B00086E498E3D0DF8823E1F0A7DF8034C9F438
:1001C0006BE082E0D9DF8823A1F065E081E498E369
:1001D000C2DF882371F004EA18E3F80181918F01EE
:1001E000A0DFC150D1F763E082E0CF911F910F9162
:1001F000C3CF80E0CF911F910F91089580688093C5
:10020000193862E088E198E3A6DF7FCFCF93C42F4F
:1002100060930E3870930F38809310389093113894
:1002200065E08CE098E397DF811102C090E00BC09D
:100230006CDF8034D9F78C2F74DF8823B9F365DF46
:1002400091E0803499F7892FCF91089560934838D1
:100250007093493880934A3890934B3821502093BB
:10026000433844604093453865E086E498E373DFA3
:10027000882339F04ADF803421F465E081E498E393
:100280006ACF80E00895FF920F931F93CF93DF937F
:10029000F42ED52FC22F40E6D9DF882369F00F2D29
:1002A0001D2FF80181918F013CDF882329F02DDF7C
:1002B000803411F4C150A9F781E0C11180E0DF91D1
:1002C000CF911F910F91FF9008958091040885FFB1
:1002D000FCCF80EC94E4809308089093090880E0B8
:1002E00020DF80EB90E08093080890930908E6985F
:1002F0000895609314387093153865E082E198E3AF
:100300002ADF811102C0E1DFF8CFFFCE60E081116A
:1003100069E588E031CFCF93119B0BC0C82FD5DFA3
:1003200066E080E098E3C11102C086E098E3CF91D7
:1003300012CF80E0CF91089590916738981781F09F
:100340008093673860939C0A70939D0A10929A0A72
:1003500010929B0A8FE48093900A81E08093A90118
:1003600008958FB7F8941092800A91E09093860ACE
:100370008FBF18950895482F60E070E180E090E00D
:1003800045CFCF93C82F60E070E180E090E0B1DF0F
:100390008C1303C081E0CF91089580E0ECDF8823C7
:1003A000D1F3CC23B9F38C2FCF91E5CFE2E9F8E379
:1003B00024E030E02383348380878CB381878DB33E
:1003C00082878EB3838708958627082E8295807F43
:1003D0008025092E982F82958F700826869598275C
:1003E0008927880F880F880F80250895AF92BF92C4
:1003F000CF92DF92EF92FF920F931F93CF93DF93F1
:1004000000D0CDB7DEB78FEF9FEF89839A83E0905E
:100410009538F09096388701085F1F4F82E9C82E03
:1004200088E3D82E560181E0E81AF108A7EFEA1612
:10043000AFEFFA0649F0F50161915F0189819A8178
:10044000C3DF89839A83EFCFF801EE56F74C898199
:1004500080838A8181832FB7F894329690E4CE16F8
:10046000DF0671F42FBF0F900F90DF91CF911F9196
:100470000F91FF90EF90DF90CF90BF90AF900895D5
:10048000D6018D916D013091240835FFFCCF9093FA
:10049000240880932208E3CF1F93CF93DF93182F74
:1004A000D0E0C0E087E0AADE8123181759F086EA81
:1004B0008A95F1F700C02197A9F780E0DF91CF91ED
:1004C0001F91089581E0FACF6AE08DE198E343DE61
:1004D000882311F080E1E0CF80E008951F93CF934F
:1004E000DF93182FD0E0C0E08BE088DE812318175F
:1004F00059F086EA8A95F1F700C02197A9F780E0C4
:10050000DF91CF911F91089581E0FACF1F93CF9390
:10051000DF93182FEB018BE071DE812318130BC0E2
:1005200086EA8A95F1F700C02197A9F780E0DF916C
:10053000CF911F91089581E0FACF80916A388D7F25
:10054000803309F038C08093010A219A86EA8A959F
:10055000F1F700C021988FEC97E00197F1F700C008
:10056000000080916A38803311F50E9A8FEC97E085
:100570000197F1F700C0000080916A388033C9F418
:100580000E981092010A88EE93E0809308089093E9
:10059000090880E0C6DD80EB90E080930808909326
:1005A0000908E698E39A70E060E080E2AFCF2D9A08
:1005B000DDCF2D98E6CF08950F931F93CF93219809
:1005C00081111DC0E49B62C0B8DF64EF71E080E27E
:1005D0009DDF68E083E0D0DD811102C0C0E067C02C
:1005E00073DF8823D9F381E091DE8823B9F380E0BB
:1005F0008DDE882399F370E060E080E287DFE09988
:1006000061C068E083E0B8DD882341F363E082E005
:10061000B3DD882319F38FEF9FEFDC0180936F38F0
:1006200090937038A0937138B09372388BE0E6DD08
:1006300085FD2EC062E087E298E38DDDC82F02E7DA
:1006400018E3882359F261DDF80181938F01F8E303
:1006500002391F07C1F790917C3890936B388EE177
:1006600080936F388091723880937038909371388E
:10067000813439F0B0F4803209F0B0CF81E4809356
:1006800070389333D9F4ED9AEE9A10C01EDEB7CFCE
:1006900080E03CDE64EF71E080E238DF8111CACF98
:1006A0009DCF8D3649F0843709F098CFE09A8C2F92
:1006B000CF911F910F910895EF9AF8CF953321F7BD
:1006C000EB9AE1CFC1E0F3CF66E070E180E090E02B
:1006D00010DE837029F086EA8A95F1F700C0F4CF26
:1006E0008EB3089562E070E180E090E002DE8370F6
:1006F00029F086EA8A95F1F700C0F4CF8EB3089509
:10070000A8959091010190FDFCCF98ED94BF809346
:1007100000010895AF92BF92CF92DF92EF92FF92C5
:100720000F931F93CF93DF93CDB7DEB72697CDBF3F
:10073000DEBF8E831D828CE498E3C8D6892B09F036
:10074000F1C09FB7F89410928A0A10928B0A28EC95
:1007500030E020938C0A30938D0A81E08093850AE3
:100760008093860A8FE08093800A9FBF8E818330BA
:1007700009F41FC2843009F465C2E2E9F8E382306B
:1007800009F470C0228533856685778580899189D3
:1007900042E84087A901415051094115E2E05E0756
:1007A00030F42130F1E03F0740F020FF06C083EA3B
:1007B00090E0FCDD81E08D83B5C0A2E9B8E3F901EA
:1007C00031961396ED93FC9314972130310581F403
:1007D000E1990EC01996EC911997E43B49F46370C6
:1007E000E62FF0E0E859F74C878119968C93E2CF19
:1007F000E19908C0EBE9F8E38FEF819321503109CB
:10080000E1F7D8CF452F5527452BE1F036952795B1
:10081000F22E41E21BDD02E918E3811102C080E003
:10082000CACF73DCF801818770DCF8018287FA9403
:100830000E5F1F4FF110F5CF9FB381E0992309F4AC
:10084000BACFEDCF122F40E201DD882341F36BE9EF
:10085000E62E68E3F62E59DCF70181937F011150F3
:10086000D1F7EACF818502851385C684D784E088D5
:10087000F1884F2D552766277727452B462B472B89
:1008800019F0EE24FF2480E2E09B62C0853C09F071
:100890005FC00115110529F0C8018F719927892BB7
:1008A00029F083EA80939A3811E03BC06AE089E23C
:1008B00098E351DC811102C010E033C080E2ECDD2E
:1008C0008823D1F381E022DD8823B1F380E01EDDAF
:1008D000882391F370E060E080E218DE84E0FEDDC2
:1008E000402FC701B60150DC63E08AE045DC68ECCC
:1008F00070E084E00BDE60E287E03EDCE19926C038
:1009000081E004DD8823C1F280E000DD182F882318
:1009100099F270E060E080E2F9DDE19B02C088E0DE
:10092000DDDD1D831EDD88EC80930608A8958D8192
:100930002696CDBFDEBFDF91CF911F910F91FF9023
:10094000EF90DF90CF90BF90AF900895BDDDD8CFEE
:10095000E19BB2CF803B39F008F497C090E4980F48
:10096000923008F092C080916C3890916D389C0163
:100970000217130709F46EC1369527952230310509
:10098000B8F780EA90E08AC09FDE8FE091C1402FE7
:10099000C701B601F9DB9AC1EE9B62C081110FC09D
:1009A000A1DE82E0EEDC882309F486CF0130110558
:1009B00099F44091A438C701B60128DC49C092DE01
:1009C00088E0DFDC882309F477CF4FEFC701B60159
:1009D0001DDC8111E5CF70CFC8010197892F9927C0
:1009E000892B09F438C0C0924838D0924938E09237
:1009F0004A38F0924B3816950795F02EE1E4F8E36B
:100A00000150028385E6848365E086E498E3A3DBF6
:100A10008823F1F07ADB8034D9F46BE082E0ACDB40
:100A20008823B1F065E081E498E395DB882381F0C9
:100A300002E918E3F801828974DBF801838971DB2C
:100A4000FA940E5F1F4FF110F5CF63E082E094DB64
:100A500049DE80E03DC1402FC701B60195DBF8CFEC
:100A600081110DC03FDE0130110509F09DC040919C
:100A7000A438C701B601CADB83E07DDC3CC032DEAE
:100A800084E079DC8111EECF17CF98012150310934
:100A90002F3F310529F020F083EA90E087DC04CF76
:100AA000813B29F0D8F4803201F18232D9F4ED9BF8
:100AB0005FC00930110580F707DE8FE162DC882313
:100AC00009F4FACE0130110509F04BC04091A43869
:100AD000C701B6019BDBF8DD85E1FAC0843B68F015
:100AE000843C29F382EA90E0D9CF202F44EA58E3EE
:100AF000C701B601C8DB182F14CFED99D8CFEE99F6
:100B0000D6CFC8018E56974C5C0102E918E3F60176
:100B1000E259F8436F01F801828990E089839A8352
:100B2000C601800F911F8B839C83DCDD24E0AE0126
:100B30004F5F5F4F66E070E180E090E0A4DB8823C8
:100B400009F4BACE87E017DC882309F4B5CECADDF4
:100B5000877009F0B1CE0F5F1F4FA016B106D9F60E
:100B6000A3CE202F44EA58E3C701B6018CDBB3CFF4
:100B7000EE9B15C00330110508F08ECFB3DD83E185
:100B800000DC882309F498CE0130110509F411CF57
:100B900022E044EA58E3C701B60175DB59CF0134BE
:100BA000110508F45FCF78CF402FC701B601ECDA0A
:100BB00063CF80919B388111B5CEE09B41C06AE044
:100BC00083E398E3C8DA882309F429CE88E064DC5B
:100BD000882309F424CE81E099DB882309F41FCE11
:100BE00080E094DB882309F41ACE70E060E081E0B5
:100BF0008DDC10E000E087E001DB83FF07C0F6EA50
:100C0000FA95F1F700C001501109A9F7E29A5CDCEE
:100C1000882309F404CE81E079DB882309F4FFCD31
:100C200080E074DB882309F4FACD70E060E081E0B5
:100C30006DDC88E053DCE098E19A81E0BDDCBBCD5F
:100C40007CDCBDCF81E067DB882309F4B4CD80E094
:100C500062DBB1CDE29914C04091633850916438A1
:100C60006091653870916638C416D506E606F706B9
:100C700039F001979C012C213D2181E0232B09F0C3
:100C800080E0C0926338D0926438E0926538F09288
:100C90006638ED9B81CE882309F476CE15DD4FEFC3
:100CA000C701B601B3DA882309F406CE0DDD88E06A
:100CB00068DB882309F400CE07DD0130110509F057
:100CC00066CE4091A438C701B601A0DAFDDC84E00D
:100CD00058DB11CFCF93DF9300D0CDB7DEB78A8337
:100CE00084E08983898181508983882309F43AC00B
:100CF000E19938C08981823019F42A81211108C014
:100D00008981813031F480916A38813311F0539BAD
:100D1000E49A8CE498E3DAD3892B11F58FB7F89431
:100D2000EAE8FAE0108211822FE130E0ECE8FAE024
:100D30002083318321E0E5E8FAE02083E6E8FAE069
:100D400020832FE0E0E8FAE020838FBF80E034DCEE
:100D5000882331F0E19904C0F39B0CC0E09AE19A3A
:100D600000DBC0CF8CB3869581700F900F90DF9120
:100D7000CF910895F099F4CF87E040DA84FF0FC057
:100D800081E0C4DA882361F380E0C0DA882341F38C
:100D900070E060E080E2BADB88E0A0DBDFCF94DBCC
:100DA0008111EECFDDCF11241092800A81E0809373
:100DB000860A62E070E08CE498E3A8D31F920F9259
:100DC0000FB60F9211242F933F934F935F936F931E
:100DD0007F938F939F93AF93BF93EF93FF9385E0A0
:100DE0008FDC88E080931204E0E0F4E08185818765
:100DF000489A69EA78E082E09FDA81E08CDA219A09
:100E0000FF91EF91BF91AF919F918F917F916F91E2
:100E10005F914F913F912F910F900FBE0F901F90B8
:100E2000189588E06DDC65E174E084E085DA119B5B
:100E3000FECF85E065DC81E06EDA88E0809306080D
:100E40008FEC97E00197F1F700C00000019A109233
:100E500011040998219A69EA75E583E06DDA80E06A
:100E60004FDC309BFECF81E04BDCFFCFCF93DF9395
:100E700000D0CDB7DEB7F89424E0E0E1F4E083E001
:100E800098E021939A95E9F778968A95C9F788EDC5
:100E900041E050E084BF409361008CE080933104D6
:100EA00088EF8093010480E28093210481E08093A5
:100EB00041048093E00598E09093E10530EA309397
:100EC000050445E04093E205909352049093510449
:100ED000909311042093130434E8309314043DE0FC
:100EE0003093300439E030931204909353041CBAC9
:100EF0001DBA90E1909390013AE03093910191E115
:100F0000909392019DE49093930192E09093B101AC
:100F10009093B3012093A0012093A2012093CB01D1
:100F200093E09093CA0120EC2093C9018093C801FB
:100F300026E02093CF019093CE012AEC2093CD019F
:100F40008093CC012FE72093D7014093D60128E569
:100F50002093D50121E42093D4012093C0018093F4
:100F600050018093030A29E82093260A25E4209360
:100F7000280A8093270A8093290A80932B0A8FE8F6
:100F80008093000A87E08093910AEDE9F0E04591B3
:100F90005491409328085093290810922508909363
:100FA000270888E88093260880EB90E08093080863
:100FB00090930908309305088BE28093070888EC2A
:100FC00080930608E6988091400083FF02C080E08D
:100FD000A2D9809140008093400080915000897F89
:100FE00082608093500080910904882329F08091C9
:100FF000090480930904F7CF789412990FC069EA25
:1010000078E082E099D9129906C080915000816001
:1010100080935000F8CF81E073DBFFCF8091673879
:10102000813099F081E0809367388AE895E4809375
:101030009C0A90939D0A10929A0A10929B0A85E44A
:101040008093900A83E08093A90180915000816091
:1010500080935000F0E8AF2EBB24B394A2E02A2E78
:10106000312CB3E08B2E912C44244A94542C320121
:101070008091240887FFFCCF809120088B31C1F735
:1010800080939238E3E9F8E38091240887FFFCCF4E
:1010900080912008819328E3EA39F207A9F780912B
:1010A00099388E3029F78091953890919638A09193
:1010B0009738B091983885319240A105B105C0F6B6
:1010C0000AE918E368018EEF9FEF2091953830917F
:1010D0009638821793075CF42091240827FFFCCFF1
:1010E00020912008D6012D936D010196EECFE2E903
:1010F000EE2EE8E3FE2E8FEF9FEFEC14FD0429F0B7
:10110000F70161917F0160D9F8CF892B09F0B0CF49
:10111000A89580919A3821E030E02093953830935B
:101120009638A0929A388B3009F447C108F04CC029
:10113000833009F4CBC008F03DC0813009F468C0A9
:1011400008F4B5C180919B38853009F046C0D09035
:101150009C388EEF8D0D883108F0B4C08D2D90E055
:10116000FC01EE0FFF1FEB56FF4F05911491780124
:101170000115110509F4A6C080933D3890933E38BF
:1011800035D98091240886FFFCCF0034110530F456
:101190008AEC809326087801EE0CFF1CE092280868
:1011A000F092290835E0D31619F088E1D81260CF03
:1011B000E59A5ECF853009F420C108F425C1883056
:1011C00061F080EA90E080C0863148F4843128F4F0
:1011D0008C3009F435C18F30A1F708D949CF863357
:1011E000E1F3853509F449C1843359F720919338E7
:1011F0003091943880913F389091403828173907C2
:1012000061F383E087DA81110FC18DEA90E05CC061
:101210008BE076DA88E08093120480916738882327
:1012200041F01092673881E88093000A1092A9017A
:101230000F9881E070D8219A489A429A10925204ED
:1012400088EC80932608409263385092643860920C
:101250006538709266388DE190E080939538909370
:101260009638E8E7F0E08491D8018D938D013196AE
:1012700027EB38E32A173B07B1F7809107119091CC
:10128000031189279091041189278093A4388091B4
:101290000811909105118927909106118927809353
:1012A000A538809109118093A63880910A11809306
:1012B000A73880910B118093A83880910C118093EE
:1012C000A9388BCF86EA90E071D887CF80919B3880
:1012D000833091F138F4813079F08230B9F081EACD
:1012E00090E0F2CF863081F18D3109F452C0853023
:1012F000B1F780913D3821C082E080939B38809384
:101300009C38809295389092963812C085E38093ED
:101310009B3887E080939C3882E280939D3886E0FA
:1013200080939E38A5E0B0E0A0939538B0939638AE
:1013300081E880939A3851CF85E580939B3820923D
:10134000953830929638F4CFB0920006109201068C
:1013500084E58093020681E18093080691E39093EF
:101360000C0680930A068091050681FFFCCF8091D0
:101370001406909115069C0136952795880F991FA4
:1013800010920006820F931F80939B3890939C3895
:10139000B8CFE09BA4CFE2E7F8E3ABE9B8E38191F3
:1013A0008D9322E938E32E173F07C9F781E290E0D9
:1013B0008093953890939638BBCFE7990ECF909154
:1013C0009B38892F8073803329F490936A3881E0A9
:1013D000913309F480E07EDCE59B09C069EA75E59C
:1013E00083E00E949C0180E08BD9E79AF6CE65E10C
:1013F00074E084E00E949C01F8CF81E08BD98111D8
:10140000ECCE8BEA90E060CF209193383091943805
:1014100080913F38909140382817390709F4DDCE84
:1014200082E078D9882349F080919338909194385C
:1014300080933F3890934038D0CE85EA90E044CFF7
:1014400080918E3990918F3980936C3890936D385C
:101450008091903980936E3890918B39292F207329
:10146000203319F490936A38B8CE803220F482E3A6
:1014700080936A38B2CE80E3FBCFABE9B8E3A983AF
:10148000BA8380919B38853509F0A7CE90919C381E
:10149000993208F0A2CEDE011396EAE6F8E380E086
:1014A000891709F49ACE2D9121938F5FF9CF0E946D
:1014B000F6018091240886FFFCCFE19B02C084E006
:1014C00029D988ED84BFB09241007BCEDC012D92FA
:1014D0003D924D925D926D927D928D929D92AD92D4
:1014E000BD92CD92DD92ED92FD920D931D93CD9321
:1014F000DD93FF91EF918DB78D938EB78D938FB75D
:101500008D93ED93FD93882799270994DC01CB01F6
:1015100081309105811D2D903D904D905D906D9095
:101520007D908D909D90AD90BD90CD90DD90ED9093
:10153000FD900D911D91CD91DD91ED91FD910D905D
:101540000FBEEDBFFEBFED91FD910994F894FFCF62
:1015500055C85955C30855C80055C304554800001F
:101560000000550800000000550055000055E0201F
:10157000676F72504D564E55E655E06574267355AB
:101580004D564E55E065736172454D564E0400FF51
:0C159000FF55A0005504556A0000000043
:00000001FF
