:1000000067C0000081C000007FC000007DC000000C
:100010007BC0000079C0000033C7000070C700003B
:1000200073C0000071C000006FC000006DC0000010
:100030006BC000001AC7000067C0000065C0000068
:1000400063C0000061C000005FC000005DC0000030
:100050005BC0000059C0000057C0000055C0000040
:1000600053C0000051C000004FC000004DC0000050
:100070004BC0000049C00000860102350702022281
:100080000602000000000000555044493441565219
:10009000000000000000001B418D204710230812C3
:1000A00004B6025B01DA0A0401AE0057002B0039E6
:1000B000019C00000000000B01C800A00085006446
:1000C00000500043003C0028001B0014000D0000FD
:1000D00011241FBECFEFCDBFDFE3DEBF18E3A0E0EA
:1000E000B8E3ECEAF5E102C005900D92A434B10743
:1000F000D9F72AE3A4E4B8E301C01D92A63AB207F7
:10010000E1F72AD70C94D40A7BCF8091040887FFAB
:10011000FCCF8091010880588FBB809100088EBB76
:100120000895CF93C82F8091040885FFFCCF80E409
:1001300080930408C09302088091040886FFFCCFD6
:10014000E4DF982F81E09C1380E09C1711F09FB3AF
:100150009FBBCF9108950F931F93CF93C62F8C0110
:10016000F80181918F01DDDF882311F0C150C1F7C3
:10017000CF911F910F910895E3E1F8E3806C8183A3
:10018000628363E0CF01E7CF0F931F93CF93C42F18
:1001900060933F3870934038809341389093423851
:1001A0008FEF840F80933A3884E680933C3865E083
:1001B0008DE398E3D0DF8823E1F0A7DF8034C9F432
:1001C0006EE082E0D9DF8823A1F065E088E398E360
:1001D000C2DF882371F00AE918E3F80181918F01E9
:1001E000A0DFC150D1F766E082E0CF911F910F915F
:1001F000C3CF80E0CF911F910F91089580688093C5
:10020000123862E081E198E3A6DF7FCFCF93C42F5D
:1002100060930738709308388093093890930A38B0
:1002200065E085E098E397DF811102C090E00BC0A4
:100230006CDF8034D9F78C2F74DF8823B9F365DF46
:1002400091E0803499F7892FCF91089560933F38DA
:1002500070934038809341389093423821502093D6
:100260003A38446040933C3865E08DE398E373DFAF
:10027000882339F04ADF803421F465E088E398E38D
:100280006ACF80E00895FF920F931F93CF93DF937F
:10029000F42ED52FC22F40E2D9DF882361F00F2D35
:1002A0001D2F33DFF80181938F01C150D1F79FB328
:1002B00081E0911180E0DF91CF911F910F91FF902C
:1002C0000895FF920F931F93CF93DF93F42ED52FB2
:1002D000C22F40E6BBDF882369F00F2D1D2FF801E8
:1002E00081918F011EDF882329F00FDF803411F404
:1002F000C150A9F781E0C11180E0DF91CF911F913A
:100300000F91FF900895CF93DF93C0E0D8E080EC89
:1003100094E48887998780E004DF80EB90E0888709
:100320009987E698DF91CF91089560930D38709387
:100330000E3865E08BE098E30EDF811102C0E3DF49
:10034000F8CFE3CE60E0811169E588E015CFCF9367
:10035000C82FD9DF80E0C11189E58093023865E0BC
:1003600080E098E3CF91F7CE80915B38823099F0AE
:1003700082E080935B3889EA98E080939C0A9093AE
:100380009D0A10929A0A10929B0A8FE48093900A19
:1003900081E08093A901089580915B38813099F0C4
:1003A00081E080935B388AE895E480939C0A90937F
:1003B0009D0A10929A0A10929B0A85E48093900AF3
:1003C00083E08093A90108958FB7F8941092800A72
:1003D00091E09093860A8FBF18950895909101013E
:1003E00090FDFCCF98ED94BF80930001089581E0CB
:1003F000809300061092010684E58093020681E155
:100400008093080691E390930C0680930A068091EE
:10041000050681FFFCCF2091140630911506C90115
:1004200096958795220F331F10920006820F931F17
:100430000895482F60E070E180E090E0E7CECF9330
:10044000C82F60E070E180E090E06FDF8C1303C0A4
:1004500081E0CF91089580E0ECDF8823D1F3CC23B5
:10046000B9F38C2FCF91E5CFE8E8F8E344E050E012
:1004700060E070E0438354836583768380878CB328
:1004800081878DB382878EB3838708958627082E50
:100490008295807F8025092E982F82958F7008265F
:1004A000869598278927880F880F880F80250895BB
:1004B000AF92BF92CF92DF92EF92FF920F931F9372
:1004C000CF93DF9300D0CDB7DEB78FEF9FEF898357
:1004D0009A83E0908B38F0908C388701085F1F4F2B
:1004E00088E8C82E88E3D82E560181E0E81AF10882
:1004F000A7EFEA16AFEFFA0649F0F50161915F0147
:1005000089819A81C3DF89839A83EFCFF801E85705
:10051000F74C898180838A8181832FB7F894329642
:1005200090E4CE16DF0671F42FBF0F900F90DF918D
:10053000CF911F910F91FF90EF90DF90CF90BF90E0
:10054000AF900895D6018D916D013091240835FF4B
:10055000FCCF9093240880932208E3CF1F93CF937E
:10056000DF93182FD0E0C0E087E048DE8123181722
:1005700059F086EA8A95F1F700C02197A9F780E043
:10058000DF91CF911F91089581E0FACF6AE086E173
:1005900098E3E1DD882311F080E1E0CF80E0089569
:1005A0001F93CF93DF93182FD0E0C0E08BE026DEBF
:1005B0008123181759F086EA8A95F1F700C0219730
:1005C000A9F780E0DF91CF911F91089581E0FACFE4
:1005D0001F93CF93DF93182FEB018BE00FDE812366
:1005E00018130BC086EA8A95F1F700C02197A9F786
:1005F00080E0DF91CF911F91089581E0FACF809143
:100600005E388D7F803309F038C08093010A219ACB
:1006100086EA8A95F1F700C021988FEC97E0019760
:10062000F1F700C0000080915E38803311F50E9A1A
:100630008FEC97E00197F1F700C0000080915E38E1
:100640008033C9F40E981092010A88EE93E08093EB
:1006500008089093090880E064DD80EB90E08093C7
:10066000080890930908E698E39A70E060E080E259
:10067000AFCF2D9ADDCF2D98E6CF08950F931F931E
:10068000CF93DF932198811118C0E49B40C0B7DF5E
:1006900064EF71E080E29CDF79DF811102C080E0CD
:1006A00059C081E04FDE8823D1F380E04BDE882300
:1006B000B1F370E060E080E28BDFE0993EC066E07D
:1006C00082E05ADD882359F38BE098DD85FD21C057
:1006D00062E080E298E33FDDC8E6D8E308E818E38B
:1006E0008823E9F212DD89930C171D07D9F7909141
:1006F000723890935F3880916838813419F090F4A3
:10070000803269F6933369F5ED9AEE9A10C0FBDDFD
:10071000D4CF80E01CDE64EF71E080E259DF81110C
:10072000D7CFBDCF8D36D9F0843709F0B8CFE09A56
:100730005EDE8A39904108F08CB389E05FDD83701A
:10074000823099F488E590E0809308089093090836
:10075000E69A81E0DF91CF911F910F910895EF9A72
:10076000E6CF953391F6EB9ACFCF80EB90E0809374
:10077000080890930908E698ECCF66E070E180E005
:1007800090E0D3DD837029F086EA8A95F1F700C006
:10079000F4CF8EB3089562E070E180E090E0C5DDB3
:1007A000837029F086EA8A95F1F700C0F4CF8EB302
:1007B0000895AF92BF92CF92DF92EF92FF920F9384
:1007C0001F93CF93DF93CDB7DEB72697CDBFDEBFA4
:1007D0008E831D8284E498E3A7D6892B09F089C013
:1007E0009FB7F89410928A0A10928B0A28EC30E096
:1007F00020938C0A30938D0A81E08093850A809340
:10080000860A8FE08093800A9FBF2E81233009F4EF
:1008100074C2243009F4BAC2E8E8F8E3223009F4DB
:10082000ADC022853385C684D784E088F18882E80C
:100830008087C9010197811542E0940730F4213087
:10084000E1E03E0728F020FF03C083EA90E018C1F2
:10085000E8E8F8E3A9014F5F5F4F438354832130F9
:10086000310509F05AC04185443B09F056C0960154
:10087000EB9922C080E091E128173907A9F40CE533
:1008800018E3F801C286D386E19B19C023E043E652
:1008900058E3C701B60188279927F5DC811104C008
:1008A000F80117821086118680916638EC2DE81BBE
:1008B000E330B8F080E01CC080E890E1DDCFE09B41
:1008C0000CC08485803209F48089ECE5F8E39EE170
:1008D0009783808786898187E7CF8FEF878380879B
:1008E000FACFF0E0E45AF74C87818093913881E0A9
:1008F0008D836ADD88EC80930608A8958D81269605
:10090000CDBFDEBFDF91CF911F910F91FF90EF9090
:10091000DF90CF90BF90AF900895E19908C0E1E9D2
:10092000F8E38FEF819321503109E1F7E0CF892F70
:100930009927892BE9F036952795B22E41E2C70118
:10094000B60184DC882309F4B5CF08E818E3DDDBC1
:10095000F8018187DADBF8018287BA940E5F1F4FB6
:10096000B110F5CF9FB381E0992309F4C1CFA2CF95
:1009700041E958E3C701B60186DCBACFB1840285EC
:100980001385C684D784E088F1888F2D9927AA27FC
:10099000BB27892B8A2B8B2B21F0EE24FF2430E2FE
:1009A000B32E80E890E060DDE09B50C0F5ECBF1214
:1009B0004DC00115110529F0C8018F719927892BA8
:1009C00021F083EA8093903892CF6AE082E298E344
:1009D000C2DB882309F46ECF80E2C0DD882309F4EE
:1009E00069CF81E0AFDC882309F464CF80E0AADC22
:1009F000882309F45FCF70E060E080E2E9DD84E005
:100A0000CFDD402FC701B601BFDB63E08AE0B4DB76
:100A100068EC70E084E0DCDD60E287E0ADDBE1996A
:100A200013C081E08FDC882309F444CF80E08ADCA6
:100A3000882309F43FCF70E060E080E2C9DDE19BEC
:100A400056CF88E0ADDD53CFA1DDEBCFE19B32CFB8
:100A500020EBB21641F0B21608F4BBC080E48B0D57
:100A6000823008F0B6C080916038909161380817E4
:100A7000190741F0011541E0140721F08BEA90E0DD
:100A8000F3DC35CFE29907C001978C219D21BB246F
:100A9000B394892B09F0B12CED9B22C06EDEBB20F4
:100AA000C1F04FEFC701B601B1DB882309F402CFD3
:100AB00088E0BFDC882309F4FDCE5FDE013011053C
:100AC00051F440919A38C701B601A0DB84E0B1DC53
:100AD0000FCF8FE0EECF402FC701B60155DBF6CF29
:100AE000EE9B63C0B1100FC056DE82E0A8DC882305
:100AF00009F4E0CE0130110599F440919A38C7010C
:100B0000B60184DB49C047DE88E099DC882309F41C
:100B1000D1CE4FEFC701B60179DB8111E5CFCACE47
:100B2000C8010197892F9927892B09F439C0C092F0
:100B30003F38D0924038E0924138F09242381695D2
:100B40000795F02EE8E3F8E30150028385E68483FD
:100B500065E08DE398E3FFDA8823F1F0D6DA80349C
:100B6000D9F46EE082E008DB8823B1F065E088E329
:100B700098E3F1DA882381F008E818E3F801828924
:100B8000D0DAF8018389CDDAFA940E5F1F4FF110A5
:100B9000F5CF66E082E0F0DAFEDD80E050DCA8CE42
:100BA000402FC701B601F0DAF7CFB1100CC0F3DD6A
:100BB0000130110509F09CC040919A38C701B60177
:100BC00025DB83E084CFE7DD84E033DC8111EFCFE8
:100BD00071CEC80101978F3F910511F008F035CE15
:100BE000F1EBBF1641F0FB15E0F020E2B21611F177
:100BF00042E2B4121CC0ED9B5FC00930110508F041
:100C000024CE8FE116DC882309F454CE013011057F
:100C100009F04BC040919A38C701B601F7DA85E177
:100C200056CF83EB8B1568F494ECB91621F382EA66
:100C300090E026CF202F4AE958E3C701B60141DBF7
:100C400057CEED99D8CFEE99D6CFF801E857F74CAB
:100C50005F0108E818E3C601885898436C01F80161
:100C6000828990E089839A83C601800F911F8B83CC
:100C70009C8391DD24E0AE014F5F5F4F66E070E141
:100C800080E090E01EDB882309F414CE87E0D1DBFE
:100C9000882309F40FCE7FDD877009F00BCE0F5F3C
:100CA0001F4F0A151B05D9F622CE202F4AE958E31B
:100CB000C701B60106DBB3CFEE9B15C003301105AB
:100CC00008F0C3CD68DD83E1BADB882309F4F2CDF7
:100CD0000130110509F411CF22E04AE958E3C701B8
:100CE000B601EFDA59CF0134110508F460CFADCD6C
:100CF000402FC701B60148DA64CF80919138811145
:100D0000F8CDE09B41C06AE08CE298E324DA8823C6
:100D100009F4D0CD88E022DC882309F4CBCD81E032
:100D200011DB882309F4C6CD80E00CDB882309F4AD
:100D3000C1CD70E060E081E04BDC10E000E087E0D6
:100D40005DDA83FF07C0F6EAFA95F1F700C00150BB
:100D50001109A9F7E29A1ADC882309F4ABCD81E0E6
:100D6000F1DA882309F4A6CD80E0ECDA882309F4CF
:100D7000A1CD70E060E081E02BDC88E011DCE09840
:100D8000E19A81E07BDCB4CD3ADCBDCF81E0DFDAF3
:100D9000882309F4ADCD80E0DADAAACDCF93DF93D2
:100DA0001F92CDB7DEB784E0898389818150898322
:100DB000882311F0E19B07C08CB3869581700F905A
:100DC000DF91CF91089584E498E3AED3892B31F578
:100DD0008FB7F894EAE8FAE0108211822FE130E050
:100DE000ECE8FAE02083318321E0E5E8FAE02083B3
:100DF000E6E8FAE020832FE0E0E8FAE020838FBF06
:100E000080E03CDC882351F0E19908C070E060E0AC
:100E100080E2DEDBF39B10C0E09AE19AD5DA8981AB
:100E2000823008F0C2CF80915E38813309F4BDCFA3
:100E30005399BBCFE49AB9CFF099F0CF87E0DED9D0
:100E400084FF0FC081E07EDA882341F380E07ADA04
:100E5000882321F370E060E080E2BADB88E0A0DB69
:100E6000DBCF94DB8111EECFD9CF11241092800A11
:100E700081E08093860A62E070E084E498E374D3B2
:100E80001F920F920FB60F9211242F933F934F93FF
:100E90005F936F937F938F939F93AF93BF93EF93E2
:100EA000FF938091090480930904129B1AC0E99969
:100EB00005C081E04CDA81E091DAFFCFE89A6CDA84
:100EC000FF91EF91BF91AF919F918F917F916F9122
:100ED0005F914F913F912F910F900FBE0F901F90F8
:100EE0001895E89B03C081E079DAFFCFE99A489A28
:100EF0003BDA81E02CDA219A85E070DAE1CF34DA4E
:100F000081E025DA88E0809306088FEC97E001976E
:100F1000F1F700C00000019A109211040998219A7B
:100F200080915B38833099F083E080935B3889EA65
:100F300095E580939C0A90939D0A10929A0A1092CC
:100F40009B0A8FE48093900A81E08093A901309BF3
:100F5000FECF81E043DAFFCFCF93DF9300D0CDB750
:100F6000DEB7F89424E0E0E1F4E083E098E0219338
:100F70009A95E9F778968A95C9F788ED41E050E0AF
:100F800084BF409361008CE08093310488EF8093AC
:100F9000010480E28093210481E0809341048093E6
:100FA000E00598E09093E10530EA3093050435E0E0
:100FB0003093E2059093520490935104909311045E
:100FC0002093130444E8409314044DE0409330040C
:100FD00049E040931204909353041CBA1DBA90E167
:100FE000909390019AE09093910191E190939201F6
:100FF0009DE49093930192E09093B1019093B3019B
:101000002093A0012093A2012093CB0193E0909321
:10101000CA0120EC2093C9018093C80126E02093E7
:10102000CF019093CE019AEC9093CD018093CC01A7
:101030009FE79093D7013093D60198E59093D5011F
:1010400091E49093D4019093C001809350018093D8
:10105000030A99E89093260A95E49093280A8093CE
:10106000270A8093290A80932B0A8FE88093000A2D
:1010700087E08093910A129B89C08ED9EDE9F0E058
:1010800085919491809328089093290810922508BF
:1010900083E08093270888E88093260880EB90E01F
:1010A00080930808909309088AE0809305088BE2F2
:1010B0008093070888EC80930608E69880914000AA
:1010C00083FF02C080E043D98091400080934000BC
:1010D000809109048093090480915000897F826087
:1010E00080935000789480915000816080935000EC
:1010F00045E1642E44E0742E52E0252E312C63E04D
:10110000462E512C7DE1872E912CA12CB12C809163
:10111000240887FFFCCF809120088B31C1F7809392
:101120008838E9E8F8E38091240887FFFCCF8091B4
:101130002008819328E3E039F207A9F780918F38DE
:101140008E3029F780918B3890918C38A0918D3812
:10115000B0918E3885319240A105B105C0F600E905
:1011600018E368018EEF9FEF20918B3830918C3817
:10117000821793076CF42091240827FFFCCF20915D
:101180002008D6012D936D010196EECFEDD876CFD4
:1011900038E8E32E38E3F32E8FEF9FEFEC14FD04D5
:1011A00029F0F70161917F0171D9F8CF892B09F0FE
:1011B000AECFA895809190388B3009F41CC108F00F
:1011C0004FC0833009F4C0C008F040C0813009F43A
:1011D00061C008F495C180919138853009F049C00B
:1011E000D09092388EEF8D0D883108F0A9C08D2DEA
:1011F00090E0FC01EE0FFF1FEB56FF4F059114919D
:1012000078010115110509F49BC08093363890933D
:10121000373880E890E028D94BD98091240886FFA0
:10122000FCCF0034110530F48AEC80932608780155
:10123000EE0CFF1CE0922808F092290895E0D916E0
:1012400019F0A8E1DA1263CFE59A61CF853009F48D
:1012500012C108F417C1883061F080EA90E072C0D2
:10126000863150F4843128F48C3009F412C18F3067
:10127000A1F780E890E066C08633D9F3853509F49C
:1012800025C1843351F783E094DA8111F2CF8DEADE
:1012900090E058C088E0809312048BE09FD8809142
:1012A0005B38882341F010925B3881E88093000A14
:1012B0001092A9010F9881E04AD8219A489A429A3F
:1012C0001092520488EC809326081DBA80928B38C5
:1012D00090928C38A0928D38B0928E38E8E7F0E08A
:1012E0008491D8018D938D0131968DEA98E38A1708
:1012F0009B07B1F780910711909103118927909175
:101300000411892780939A388091081190910511D2
:10131000892790910611892780939B388091091124
:1013200080939C3880910A1180939D3880910B1195
:1013300080939E3880910C1180939F38B9D8E7CE66
:1013400086EA90E091D8FACF80919138833089F184
:1013500038F4813071F08230B1F081EA90E0F2CF60
:10136000863079F18D3199F18530B9F78091363831
:1013700021C082E0809391388093923840928B38DC
:1013800050928C3812C085E38093913887E0809327
:10139000923882E28093933886E080939438E5E037
:1013A000F0E0E0938B38F0938C3881E880939038AC
:1013B000C5CF85E58093913820928B3830928C3858
:1013C000F4CF15D88093913890939238D7CFE09B83
:1013D000C4CFE8E6F8E3A1E9B8E381918D9388E80A
:1013E00098E38E179F07C9F7A1E2B0E0A0938B386E
:1013F000B0938C38DACFE7993CCF80919138982F11
:101400009073903329F480935E38813309F0E49A25
:10141000C5DC80915B38E59B1AC0833099F083E08E
:1014200080935B38E9EAF5E5E0939C0AF0939D0A26
:1014300010929A0A10929B0A8FE48093900A81E09E
:101440008093A90180E00E94EE01E79A12CF8430D8
:10145000E1F3F4E0F0935B3860929C0A70929D0A8D
:1014600010929A0A10929B0A8FE48093900A81E06E
:101470008093A901EACF81E09CD981115FCF8BEAEB
:1014800090E060CF82E095D9811158CF85EA90E055
:1014900059CF8091843990918539809360389093A9
:1014A0006138809186398093623890918139292FF3
:1014B0002073203319F490935E38DBCE803220F411
:1014C00082E380935E38D5CE80E3FBCF81E998E359
:1014D00089839A8380919138853509F0CACE90919D
:1014E00092389B3208F0C5CEDE011396EEE5F8E3A4
:1014F00080E0981709F4BDCE2D9121938F5FF9CF2D
:1015000080E890E00E9434020E94580280912408F2
:1015100086FFFCCFE19B02C084E04BD988ED91E0CF
:1015200084BF9093410099CEDC012D923D924D9263
:101530005D926D927D928D929D92AD92BD92CD9273
:10154000DD92ED92FD920D931D93CD93DD93FF916E
:10155000EF918DB78D938EB78D938FB78D93ED935C
:10156000FD93882799270994DC01CB0181309105EF
:10157000811D2D903D904D905D906D907D908D9052
:101580009D90AD90BD90CD90DD90ED90FD900D9132
:101590001D91CD91DD91ED91FD910D900FBEEDBFAF
:0C15A000FEBFED91FD910994F894FFCF7F
:1015AC0055C800C304554800000000550800000051
:1015BC0000550055000055E020676F72504D564E97
:1015CC0055E655E065742673554D564E55E06573DA
:1015DC006172454D564E040055A0005504556A00E5
:0415EC0000000000FB
:00000001FF
