:1000000067C0000081C000007FC000007DC000000C
:100010007BC0000079C00000C5C70000F6C7000023
:1000200073C0000071C000006FC000006DC0000010
:100030006BC00000ACC7000067C0000065C00000D6
:1000400063C0000061C000005FC000005DC0000030
:100050005BC0000059C0000057C0000055C0000040
:1000600053C0000051C000004FC000004DC0000050
:100070004BC0000049C00000860102350702022281
:100080000602000000000000555044493441565219
:10009000000000000000001B418D204710230812C3
:1000A00004B6025B01DA0A0401AE0057002B0039E6
:1000B000019C00000000000B01C800A00085006446
:1000C00000500043003C0028001B0014000D0000FD
:1000D00011241FBECFEFCDBFDFE3DEBF18E3A0E0EA
:1000E000B8E3E2E3F7E102C005900D92AE34B10748
:1000F000D9F72AE3AEE4B8E301C01D92AE3AB207E5
:10010000E1F7A8D70C94970B7BCF8091040887FF69
:10011000FCCF8091010880588FBB809100088EBB76
:100120000895CF93C82F8091040885FFFCCF80E409
:1001300080930408C09302088091040886FFFCCFD6
:10014000E4DF982F81E09C1380E09C1711F09FB3AF
:100150009FBBCF9108950F931F93CF93C62F8C0110
:10016000F80181918F01DDDF882311F0C150C1F7C3
:10017000CF911F910F910895EAE1F8E3806C81839C
:10018000628363E0CF01E7CF0F931F93CF93C42F18
:1001900060934A3870934B3880934C3890934D3825
:1001A0008FEF840F8093453884E68093473865E06D
:1001B00088E498E3D0DF8823E1F0A7DF8034C9F436
:1001C0006BE082E0D9DF8823A1F065E083E498E367
:1001D000C2DF882371F002EA18E3F80181918F01F0
:1001E000A0DFC150D1F763E082E0CF911F910F9162
:1001F000C3CF80E0CF911F910F9108951F93CF93AC
:10020000DF9360934A3870934B3880934C389093C7
:100210004D3856954795142F41504093453885E603
:100220008093473865E088E498E395DF8823F1F010
:100230006CDF8034D9F46BE082E09EDF8823B1F07C
:1002400065E083E498E387DF882381F0C0E9D8E3A1
:100250008A8967DF8B8965DF115022961111F8CFEB
:1002600063E082E0DF91CF911F9186CF80E0DF9144
:10027000CF911F91089580688093193862E088E1DA
:1002800098E369DF42CFCF93C42F60930E38709309
:100290000F38809310389093113865E08CE098E324
:1002A0005ADF811102C090E00BC02FDF8034D9F7F4
:1002B0008C2F37DF8823B9F328DF91E0803499F75A
:1002C000892FCF91089560934A3870934B3880936B
:1002D0004C3890934D3821502093453844604093DA
:1002E000473865E088E498E336DF882339F00DDF8E
:1002F000803421F465E083E498E32DCF80E0089515
:10030000FF920F931F93CF93DF93F42ED52FC22F1D
:1003100040E6D9DF882369F00F2D1D2FF801819168
:100320008F01FFDE882329F0F0DE803411F4C15004
:10033000A9F781E0C11180E0DF91CF911F910F916A
:10034000FF9008958091040885FFFCCF80EC94E431
:10035000809308089093090880E0E3DE80EB90E04A
:100360008093080890930908E698089560931438DC
:100370007093153865E082E198E3EDDE811102C0EB
:10038000E1DFF8CFC2CE80E09091040897FF08C06B
:100390008091010880588FBB809100088EBB80E05F
:1003A000815091F7089560E0811169E588E0E4CE1D
:1003B000CF93119B0BC0C82FC5DF66E080E098E3A8
:1003C000C11102C086E098E3CF91C5CE80E0CF9105
:1003D000089590916538981781F0809365386093FF
:1003E0009C0A70939D0A10929A0A10929B0A8FE4BD
:1003F0008093900A81E08093A90108958FB7F894C3
:100400001092800A91E09093860A8FBF1895089504
:10041000482F60E070E180E090E035CFCF93C82FA7
:1004200060E070E180E090E0A1DF8C1303C081E028
:10043000CF91089580E0ECDF8823D1F3CC23B9F38A
:100440008C2FCF91E5CFE0E9F8E324E030E023837F
:10045000348380878CB381878DB38287809168389D
:10046000838708958627082E8295807F8025092E10
:10047000982F82958F700826869598278927880F50
:10048000880F880F80250895AF92BF92CF92DF9298
:10049000EF92FF920F931F93CF93DF9300D0CDB7CE
:1004A000DEB78FEF9FEF89839A83E0909338F090C7
:1004B00094388701085F1F4F80E9C82E88E3D82E43
:1004C000560181E0E81AF108A7EFEA16AFEFFA0645
:1004D00049F0F50161915F0189819A81C3DF8983C8
:1004E0009A83EFCFF801E057F74C898180838A81A6
:1004F00081832FB7F894329690E4CE16DF0671F41C
:100500002FBF0F900F90DF91CF911F910F91FF9010
:10051000EF90DF90CF90BF90AF900895D6018D916E
:100520006D013091240835FFFCCF9093240880930F
:100530002208E3CF1F93CF93DF93182FD0E0C0E0C2
:1005400087E099DE8123181759F086EA8A95F1F73A
:1005500000C02197A9F780E0DF91CF911F91089506
:1005600081E0FACF6AE08DE198E3F5DD882311F0B0
:1005700080E1E0CF80E008951F93CF93DF93182FA1
:10058000D0E0C0E08BE077DE8123181759F086EACF
:100590008A95F1F700C02197A9F780E0DF91CF910C
:1005A0001F91089581E0FACF809168388D7F803364
:1005B00081F58093010A219A86EA8A95F1F700C0B5
:1005C00021988FEC97E00197F1F700C0000080912F
:1005D00068388033F9F40E9A8FEC97E00197F1F7C1
:1005E00000C00000809168388033B1F40E981092FA
:1005F000010A80EC94E4809308089093090880E055
:1006000090DD80EB90E08093080890930908E698CD
:10061000E39A08952D9AE0CF2D98E9CF1F93CF93B9
:10062000DF93182FEB018BE026DE812318130BC01C
:1006300086EA8A95F1F700C02197A9F780E0DF915B
:10064000CF911F91089581E0FACFCF93E19925C012
:1006500064EF71E080E2E2DFC82F811104C0C0E0E6
:100660008C2FCF9108958BE006DE83FD13C07ADFD7
:100670008823A9F381E097DE882389F380E093DE65
:10068000882369F364EF71E080E2C8DF882339F3DF
:1006900088E072DFE09AE19AE3CFC1E0E1CFEF9228
:1006A000FF920F931F93CF932198811121C0E49B58
:1006B00069C07ADF64EF71E080E2B0DF811102C0CF
:1006C000C0E071C068E083E057DD8823C9F34ADFEA
:1006D0008823B1F381E067DE882391F380E063DE55
:1006E000882371F364EF71E080E298DF882341F39F
:1006F000E0996BC068E083E03FDD882309F363E0A5
:1007000082E03ADD8823E1F28FEF9FEFDC018093F6
:100710006D3890936E38A0936F38B09370388BE03B
:10072000AADD85FD31C062E087E298E314DDC82FC1
:1007300000E718E380E9E82E88E3F82ECC2309F4DB
:10074000BFCFE3DCF80181938F01EE16FF06C9F7F6
:1007500090917A38909369388EE180936D388091CA
:10076000703880936E3890936F38813439F0A8F4E4
:10077000803209F0A5CF81E480936E389333E1F4A1
:10078000ED9A1DC0DFDDB4CF80E00DDE64EF71E0D7
:1007900080E244DF8111C7CF93CF8D3659F0843783
:1007A00009F08ECFE09A8C2FCF911F910F91FF907F
:1007B000EF900895EF9AF6CF943319F4EC9AEE9AED
:1007C000F1CF9533E1F7EB9ADBCFC1E0ECCF66E0F8
:1007D00070E180E090E0CADD837029F086EA8A95B6
:1007E000F1F700C0F4CF8EB30895CF93C82FEFDF99
:1007F0008C2FCF9113CE62E070E180E090E0B6DD07
:10080000837029F086EA8A95F1F700C0F4CF8EB3A1
:100810000895CF93C82FEFDF8C2FCF91FFCDA895F0
:100820009091010190FDFCCF98ED94BF8093000161
:100830000895AF92BF92CF92DF92EF92FF920F9303
:100840001F93CF93DF93CDB7DEB72697CDBFDEBF23
:100850008E831D828EE498E32AD7892B09F0FFC08E
:100860009FB7F89410928A0A10928B0A28EC30E015
:1008700020938C0A30938D0A81E08093850A8093BF
:10088000860A2FE02093800A9FBF9E81933009F44F
:100890008DC2943009F422C3E0E9F8E3923009F400
:1008A00070C022853385668577858089918942E885
:1008B0004087A901415051094115E2E05E0730F43B
:1008C0002130F1E03F0740F020FF06C083EA90E0CE
:1008D000BADD81E08D83C3C0A0E9B8E3F9013196A8
:1008E0001396ED93FC9314972130310581F4E1992F
:1008F0000EC01996EC911997E43B49F46370E62F0A
:10090000F0E0EA59F74C878119968C93E2CFE19990
:1009100008C0E9E9F8E38FEF819321503109E1F74D
:10092000D8CF452F5527452BE1F036952795F22E48
:1009300041E2C9DC00E918E3811102C080E0CACFBE
:10094000E4DBF8018187E1DBF8018287FA940E5F2E
:100950001F4FF110F5CF9FB381E0992309F4BACF6F
:10096000EDCF122F40E2AFDC882341F3F9E9EF2EFF
:10097000F8E3FF2ECADBF70181937F011150D1F715
:10098000EACFB18402851385C684D784E088F188D4
:100990008F2D9927AA27BB27892B8A2B8B2B21F0F8
:1009A000EE24FF2470E2B72EE09B73C0F5ECBF127B
:1009B00070C0E09902C010E051C00115110529F086
:1009C000C8018F719927892B29F083EA8093983881
:1009D00011E044C0D8DC64EF71E080E21FDE8823C0
:1009E00051F36AE089E298E3B6DB882321F380E2E1
:1009F000A1DD882301F381E0D6DC8823E1F280E0E9
:100A0000D2DC8823C1F264EF71E080E207DE882344
:100A100091F284E0B1DD402FC701B601B5DB63E0A0
:100A20008AE0AADB68EC70E084E0F8DD60E287E051
:100A3000A3DBE1992CC081E0B6DC882309F4BBCFAD
:100A400080E0B1DC182F882309F4B5CF70E060E0B6
:100A500080E2E4DDE19B02C088E08EDD1D83CEDC18
:100A600088EC80930608A8958D81882309F43EC2FE
:100A70008D812696CDBFDEBFDF91CF911F910F9163
:100A8000FF90EF90DF90CF90BF90AF9008956ADD18
:100A9000D2CFE19B28C081EC8B15B8F090ECB91651
:100AA00018F4E0EBBE1214C080916A3890916B3854
:100AB0009C010217130709F41BC2369527952230B3
:100AC0003105B8F780EA90E00CC0F5ECBF1661F391
:100AD000C80101978F3F910509F008F4C5C083EA6A
:100AE00090E0B1DC75CF8EE48B0D823008F063CFDF
:100AF00080E0D5DD882309F45ECFA7DD8111CBCF5F
:100B00005ACF0197969587959C0120953095D701EE
:100B1000C601B695A795979587958223932321E0E3
:100B200040913338509134384817590709F420E080
:100B30008093333890933438EC9B2DC021110EC034
:100B400082E053DE882309F436CF0130110591F499
:100B50004091A238C701B60196DB16C088E045DE99
:100B6000882309F428CF4FEFC701B6018CDB811130
:100B7000E7CF21CFC8010197892F9927892B31F021
:100B8000A801C701B6013ADB80E020C0402FC701B1
:100B9000B601FADAF9CFED9B22C02223C9F017DEA5
:100BA0004FEFC701B6016FDB882309F404CF88E05B
:100BB0001CDE882309F4FFCE0ADE0130110551F452
:100BC0004091A238C701B6015EDB84E00EDE7CC036
:100BD0008FE0EECF402FC701B601D6DAF6CFEE9BFD
:100BE0002EC021110EC082E014DE882309F4E3CE6A
:100BF0000130110591F44091A238C701B60143DBE1
:100C000016C088E006DE882309F4D5CE4FEFC70171
:100C1000B60139DB8111E7CFCECEC8010197892F0C
:100C20009927892B39F0A801C701B601E7DA80E0DE
:100C3000F0DD4AC0402FC701B601A6DAF8CF211176
:100C40000DC0D9DD0130110509F0ABC04091A238CB
:100C5000C701B60118DB83E0DBDB36C0CCDD84E006
:100C6000D7DB8111EECFA7CE81EBB81641F08B1503
:100C7000E0F090E2B91611F1E2E2BE121CC0EC9B6A
:100C800059C00330110508F02ACF83E1AEDD882377
:100C900009F491CE0130110509F45ACF22E042EA5D
:100CA00058E3C701B6012CDB6FCFF3EBFB1570F4F3
:100CB00084ECB81621F382EA90E013CF202F42EAA9
:100CC00058E3C701B6011CDB182FC8CEED99D7CF6A
:100CD000EE99D5CFF801E057F74C5F0100E918E332
:100CE000C601805998436C01F801828990E089839C
:100CF0009A83C601800F911F8B839C837CDD24E047
:100D0000AE014F5F5F4F66E070E180E090E0F8DA9F
:100D1000882309F450CE87E07BDB882309F44BCE8F
:100D20006ADD877009F047CE0F5F1F4F0A151B055C
:100D3000D9F64ECEED9B1AC00930110508F0CFCE82
:100D40008FE153DD882309F436CE0130110539F4E3
:100D50004091A238C701B60196DA85E137CF202F3E
:100D600042EA58E3C701B601CBDAF7CFEE9B14C0D5
:100D70000330110508F0B3CE83E14BDD882309F47D
:100D80001ACE0130110509F436CF22E042EA58E3C9
:100D9000C701B601B5DA4BCF0134110508F451CFC4
:100DA0009ECE402FC701B601EFD955CF909199380B
:100DB000911190CDE19B35C0EC990BC0ED9909C024
:100DC000EE9927C085E025DD882309F4B7CD84E0BE
:100DD00021C080E20ADD882309F4B0CD80E005DD82
:100DE000882309F4ABCD8FE000DD882309F4A6CD7C
:100DF00080E0FBDC882309F4A1CD8FE1F6DC8823B9
:100E000009F49CCD80E0F1DC882309F497CDE29AC7
:100E100060CD80E2FEDC882309F490CD80E0F9DC2F
:100E2000F3CFE09B42C0AFDA64EF71E080E2F6DB23
:100E3000882309F483CD8CE01EDA877009F037C06F
:100E40006AE085E398E387D9882309F477CD88E0C1
:100E500071DB882309F472CD81E0A5DA882309F4D7
:100E60006DCD80E0A0DA882309F468CD70E060E001
:100E700080E2D4DB70E060E081E0D0DB10E000E0F5
:100E800087E0F9D983FF07C0F6EAFA95F1F700C0C9
:100E900001501109A9F7E29A8BE0EDD983FF09C04F
:100EA000E098E19A81E0FBDB15CD7EDBBCCF5ADB1D
:100EB000C7CF58DB882309F441CD81E074DA882359
:100EC00009F43CCD80E06FDA882309F437CD70E077
:100ED00060E081E0A3DB88E04FDBE2CF81E068DA0D
:100EE000882309F4F7CC80E063DAF4CC4CDAC0CD87
:100EF000E29B07CE20E020CECF93DF9300D0CDB78A
:100F0000DEB78A8384E0898389818150898388233D
:100F1000C1F0E19916C08981823019F42A8121112A
:100F200008C08981813031F480916838813311F0B3
:100F3000539BE49A8EE498E3BAD3892B51F05EDA9E
:100F4000E3CF8CB3869581700F900F90DF91CF9196
:100F500008958FB7F894EAE8FAE0108211822FE141
:100F600030E0ECE8FAE02083318321E0E5E8FAE0C4
:100F70002083E6E8FAE020832FE0E0E8FAE020832F
:100F80008FBF80E08CDB8823D1F25FDBD8CF1124C8
:100F90001092800A81E08093860A62E070E08EE41D
:100FA00098E3A5D31F920F920FB60F9211242F939F
:100FB0003F934F935F936F937F938F939F93AF93E1
:100FC000BF93EF93FF9385E02ADC88E080931204BF
:100FD000E0E0F4E081858187489A69EA78E082E080
:100FE000F8D981E0E5D9219AFF91EF91BF91AF91B6
:100FF0009F918F917F916F915F914F913F912F9131
:101000000F900FBE0F901F90189588E008DC65E1E7
:1010100074E084E0DED9119BFECF85E000DC81E046
:10102000C7D988E0809306088FEC97E00197F1F725
:1010300000C00000019A109211040998219A69EAEF
:1010400075E583E0C6D980E0EADB309BFECF81E026
:10105000E6DBFFCFCF93DF9300D0CDB7DEB7F894B8
:1010600088ED21E030E084BF2093610024E0E0E1DE
:10107000F4E083E098E021939A95E9F778968A95D1
:10108000C9F78CE08093310488EF8093010480E2FB
:101090008093210481E0809341048093E00598E0EF
:1010A0009093E10530EA3093050445E04093E20572
:1010B000909352049093510490931104209313043D
:1010C00034E8309314043DE03093300439E0309339
:1010D0001204909353041CBA1DBA90E190939001AE
:1010E0003AE03093910191E1909392019DE49093C5
:1010F000930192E09093B1019093B3012093A001EA
:101100002093A2012093CB0193E09093CA0120EC9D
:101110002093C9018093C80126E02093CF019093CA
:10112000CE012AEC2093CD018093CC012FE72093B0
:10113000D7014093D60128E52093D50121E42093DF
:10114000D4012093C001809350018093030A29E8C1
:101150002093260A25E42093280A8093270A809367
:10116000290A80932B0A8FE88093000A87E08093F6
:10117000910AEDE9F0E0459154914093280850938D
:101180002908109225089093270888E8809326085C
:1011900080EB90E08093080890930908309305084D
:1011A0008BE28093070888EC80930608E69880918C
:1011B000400083FF02C080E0FBD880914000809314
:1011C000400080915000897F826080935000809120
:1011D0000904882329F08091090480930904F7CF3A
:1011E000789412990FC069EA78E082E0F2D81299F7
:1011F00006C080915000816080935000F8CF81E05C
:101200000EDBFFCF80916538813099F081E08093CB
:1012100065388AE895E480939C0A90939D0A109221
:101220009A0A10929B0A85E48093900A83E0809347
:10123000A90180915000816080935000F2E0AF2EB0
:10124000B12CA3E08A2E912CB5E02B2E312C1DE180
:10125000412E512C05EB602E08E3702E809124085E
:1012600087FFFCCF809120088B31C1F780939038A5
:10127000E1E9F8E38091240887FFFCCF8091200802
:10128000819328E3E839F207A9F7809197388E30E7
:1012900029F78091933890919438A0919538B09126
:1012A000963885319240A105B105C0F608E918E3EA
:1012B00068018EEF9FEF2091933830919438821718
:1012C00093075CF42091240827FFFCCF209120088D
:1012D000D6012D936D010196EECFE0E9EE2EE8E305
:1012E000FE2E8FEF9FEFEC14FD0429F0F7016191C2
:1012F0007F01B8D8F8CF892B09F0B0CFA89580919D
:10130000983821E030E0209393383093943830E8D7
:10131000309398388B3009F440C108F04CC08330CA
:1013200009F4C5C008F03DC0813009F46AC008F472
:10133000AEC180919938853009F0B1C0D0909A380B
:101340008EEF8D0D883108F0ADC08D2D90E0FC0141
:10135000EE0FFF1FEB56FF4F059114917801011519
:10136000110509F49FC080933F38909340388CD882
:101370008091240886FFFCCF0034110530F48AECFC
:10138000809326087801EE0CFF1CE0922808F0926A
:101390002908B5E0DB1619F0E8E1DE125FCFE59A27
:1013A0005DCF853009F419C108F41EC1883061F0A1
:1013B00080EA90E079C0863150F4843128F48C3092
:1013C00009F42EC18F30A1F780E890E06DC086331C
:1013D000D9F3853509F441C1843351F7209191380F
:1013E00030919238809141389091423828173907CE
:1013F00009F455C083E01DDA811106C18DEA90E041
:1014000053C08BE00CDA88E0809312048091653839
:10141000882341F01092653881E88093000A109289
:10142000A9010F9881E00E94D801219A489A429A16
:101430001092520488EC8093260840929338509280
:101440009438E8E7F0E08491D8018D938D013196CE
:101450006A167B06C1F780910711909103119827B6
:101460008091041189278093A2388091081190916E
:10147000051198278091061189278093A3388091C0
:1014800009118093A43880910A118093A538809126
:101490000B118093A63880910C118093A7380E947D
:1014A0004402DCCE86EA90E00E942302F8CF8091CD
:1014B0009938833081F138F4813079F08230B9F095
:1014C00081EA90E0F1CF863071F18D3109F451C09D
:1014D0008530B1F780913F381FC082E08093993802
:1014E00080939A38809293389092943810C085E314
:1014F0008093993887E080939A3882E280939B3872
:1015000086E080939C38209293383092943881E81A
:1015100080939838C4CF85E580939938A09293380A
:10152000B0929438F4CFF1E0F093000610920106E7
:1015300084E58093020681E18093080691E390930D
:101540000C0680930A068091050681FFFCCF8091EE
:101550001406909115069C0136952795880F991FC2
:1015600010920006820F931F8093993890939A38B7
:10157000B9CFE09BA5CFE0E7F8E3A9E9B8E3819113
:101580008D9320E938E32E173F07C9F781E290E0F9
:101590008093933890939438BACFE79980CF909105
:1015A0009938892F8073803329F49093683881E0CB
:1015B000913309F480E0A0DCE59B09C069EA75E598
:1015C00083E00E94E90180E02AD9E79A68CF65E1CB
:1015D00074E084E00E94E901F8CF81E02AD981110A
:1015E0005ECF8BEA90E060CF2091913830919238B5
:1015F00080914138909142382817390709F44FCF2C
:1016000082E017D9882349F08091913890919238DF
:10161000809341389093423842CF85EA90E044CF9E
:1016200080918C3990918D3980936A3890936B3882
:1016300080918E3980936C3890918939292F20734D
:10164000203319F490936838BFCE803220F482E3BF
:1016500080936838B9CE80E3FBCFA9E9B8E3A983CA
:10166000BA8380919938853509F0AECE90919A3839
:10167000993208F0A9CEDE011396E8E6F8E380E09F
:10168000891709F4A1CE2D9121938F5FF9CF0E9484
:1016900044028091240886FFFCCFE09B02C084E0D6
:1016A000C8D888EDB1E084BFB093410081CEDC01A1
:1016B0002D923D924D925D926D927D928D929D9272
:1016C000AD92BD92CD92DD92ED92FD920D931D9360
:1016D000CD93DD93FF91EF918DB78D938EB78D9361
:1016E0008FB78D93ED93FD93882799270994DC019B
:1016F000CB0181309105811D2D903D904D905D90E5
:101700006D907D908D909D90AD90BD90CD90DD9031
:10171000ED90FD900D911D91CD91DD91ED91FD919B
:101720000D900FBEEDBFFEBFED91FD910994F894B1
:02173000FFCFE9
:1017320055C85955C30855C80055C304554800003B
:101742000000550800000000550055000055E0203B
:10175200676F72504D564E55E655E06574267355C7
:101762004D564EFFFF55E065736172454D564E046E
:0E17720000FFFF55A0005504556A000000005E
:00000001FF
