:1000000067C0000081C000007FC000007DC000000C
:100010007BC0000079C0000002C7000042C700009A
:1000200073C0000071C000006FC000006DC0000010
:100030006BC00000E9C6000067C0000065C000009A
:1000400063C0000061C000005FC000005DC0000030
:100050005BC0000059C0000057C0000055C0000040
:1000600053C0000051C000004FC000004DC0000050
:100070004BC0000049C00000860102350702022281
:100080000602000000000000555044493441565219
:10009000000000000000001B418D204710230812C3
:1000A00004B6025B01DA0A0401AE0057002B0039E6
:1000B000019C00000000000B01C800A00085006446
:1000C00000500043003C0028001B0014000D0000FD
:1000D00011241FBECFEFCDBFDFE3DEBF18E3A0E0EA
:1000E000B8E3E4EAF5E102C005900D92A634B10749
:1000F000D9F72AE3A6E4B8E301C01D92A83AB207F3
:10010000E1F701D70C94D00A7BCF8091040887FFD8
:10011000FCCF8091010880588FBB809100088EBB76
:100120000895CF93C82F8091040885FFFCCF80E409
:1001300080930408C09302088091040886FFFCCFD6
:10014000E4DF982F81E09C1380E09C1711F09FB3AF
:100150009FBBCF9108950F931F93CF93C62F8C0110
:10016000F80181918F01DDDF882311F0C150C1F7C3
:10017000CF911F910F910895E3E1F8E3806C8183A3
:10018000628363E0CF01E7CF0F931F93CF93C42F18
:100190006093413870934238809343389093443849
:1001A0008FEF840F80933C3884E680933E3865E07F
:1001B0008FE398E3D0DF8823E1F0A7DF8034C9F430
:1001C0006EE082E0D9DF8823A1F065E08AE398E35E
:1001D000C2DF882371F00CE918E3F80181918F01E7
:1001E000A0DFC150D1F766E082E0CF911F910F915F
:1001F000C3CF80E0CF911F910F91089580688093C5
:10020000123862E081E198E3A6DF7FCFCF93C42F5D
:1002100060930738709308388093093890930A38B0
:1002200065E085E098E397DF811102C090E00BC0A4
:100230006CDF8034D9F78C2F74DF8823B9F365DF46
:1002400091E0803499F7892FCF91089560934138D8
:1002500070934238809343389093443821502093D0
:100260003C38446040933E3865E08FE398E373DFA9
:10027000882339F04ADF803421F465E08AE398E38B
:100280006ACF80E00895FF920F931F93CF93DF937F
:10029000F42ED52FC22F40E6D9DF882369F00F2D29
:1002A0001D2FF80181918F013CDF882329F02DDF7C
:1002B000803411F4C150A9F781E0C11180E0DF91D1
:1002C000CF911F910F91FF900895CF93DF93C0E0DE
:1002D000D8E080EC94E48887998780E022DF80EB87
:1002E00090E088879987E698DF91CF910895609391
:1002F0000D3870930E3865E08BE098E32CDF8111A8
:1003000002C0E3DFF8CF01CF60E0811169E588E04A
:1003100033CFCF93C82FD9DF80E0C11189E5809317
:10032000023865E080E098E3CF9115CF80915D3889
:10033000823099F082E080935D3889EA98E080937A
:100340009C0A90939D0A10929A0A10929B0A8FE43D
:100350008093900A81E08093A901089580915D388F
:10036000813099F081E080935D388AE895E480934C
:100370009C0A90939D0A10929A0A10929B0A85E417
:100380008093900A83E08093A90108958FB7F89431
:100390001092800A91E09093860A8FBF1895089575
:1003A0009091010190FDFCCF98ED94BF80930001E6
:1003B000089581E0809300061092010684E5809301
:1003C000020681E18093080691E390930C068093E6
:1003D0000A068091050681FFFCCF2091140630911A
:1003E0001506C90196958795220F331F10920006B6
:1003F000820F931F0895482F60E070E180E090E045
:1004000005CFCF93C82F60E070E180E090E06FDF10
:100410008C1303C081E0CF91089580E0ECDF882346
:10042000D1F3CC23B9F38C2FCF91E5CFEAE8F8E3F1
:1004300044E050E060E070E043835483658376835A
:1004400080878CB381878DB382878EB3838708952D
:100450008627082E8295807F8025092E982F8295E9
:100460008F700826869598278927880F880F880F10
:1004700080250895AF92BF92CF92DF92EF92FF92C4
:100480000F931F93CF93DF9300D0CDB7DEB78FEFDD
:100490009FEF89839A83E0908D38F0908E388701A2
:1004A000085F1F4F8AE8C82E88E3D82E560181E0E6
:1004B000E81AF108A7EFEA16AFEFFA0649F0F501DE
:1004C00061915F0189819A81C3DF89839A83EFCF2C
:1004D000F801E657F74C898180838A8181832FB7A1
:1004E000F894329690E4CE16DF0671F42FBF0F9089
:1004F0000F90DF91CF911F910F91FF90EF90DF90C0
:10050000CF90BF90AF900895D6018D916D0130913D
:10051000240835FFFCCF9093240880932208E3CF72
:100520001F93CF93DF93182FD0E0C0E087E066DE03
:100530008123181759F086EA8A95F1F700C02197B0
:10054000A9F780E0DF91CF911F91089581E0FACF64
:100550006AE086E198E3FFDD882311F080E1E0CFD7
:1005600080E008951F93CF93DF93182FD0E0C0E071
:100570008BE044DE8123181759F086EA8A95F1F75B
:1005800000C02197A9F780E0DF91CF911F910895D6
:1005900081E0FACF1F93CF93DF93182FEB018BE00D
:1005A0002DDE812318130BC086EA8A95F1F700C06F
:1005B0002197A9F780E0DF91CF911F91089581E005
:1005C000FACF809160388D7F803309F038C08093F6
:1005D000010A219A86EA8A95F1F700C021988FECEA
:1005E00097E00197F1F700C00000809160388033F8
:1005F00011F50E9A8FEC97E00197F1F700C000001B
:10060000809160388033C9F40E981092010A88EE08
:1006100093E0809308089093090880E082DD80EBE6
:1006200090E08093080890930908E698E39A70E0B8
:1006300060E080E2AFCF2D9ADDCF2D98E6CF089510
:100640000F931F93CF93DF932198109265381092E8
:1006500066381092673881111FC0E49B59C0B1DF22
:1006600064EF71E080E296DF8FEF809365388093CE
:100670006638809367386CDF811102C080E06BC000
:1006800081E042DE8823D1F380E03EDE8823B1F3AF
:1006900070E060E080E27EDFE09950C066E082E0DA
:1006A0006BDD882359F38FEF80936538809366382C
:1006B000809367388BE0A2DD85FD2CC062E080E28C
:1006C00098E349DDCAE6D8E30AE818E38823B1F2E3
:1006D0001CDD89930C171D07D9F7909174389093FE
:1006E00061388EE18093653880916A3880936638EE
:1006F00090936738813421F0B0F4803209F0BECF96
:1007000081E480936638933369F5ED9AEE9A10C0D0
:10071000DCDDC2CF80E0FDDD64EF71E080E23ADF36
:100720008111CCCFABCF8D36D9F0843709F0A6CF6D
:10073000E09A3FDE8A39904108F08CB389E05EDDB3
:100740008370823099F488E590E080930808909354
:100750000908E69A81E0DF91CF911F910F910895EA
:10076000EF9AE6CF953391F6EB9ACFCF80EB90E0FE
:100770008093080890930908E698ECCF66E070E152
:1007800080E090E0B4DD837029F086EA8A95F1F785
:1007900000C0F4CF8EB3089562E070E180E090E095
:1007A000A6DD837029F086EA8A95F1F700C0F4CFC0
:1007B0008EB30895AF92BF92CF92DF92EF92FF92E5
:1007C0000F931F93CF93DF93CDB7DEB72697CDBF9F
:1007D000DEBF8E831D8286E498E3A2D6892B09F0C2
:1007E00055C09FB7F89410928A0A10928B0A28EC91
:1007F00030E020938C0A30938D0A81E08093850A43
:100800008093860A8FE08093800A9FBF2E812330D9
:1008100009F442C2243009F488C2EAE8F8E322303D
:1008200009F482C022853385668577858089918920
:1008300042E84087A901415051094115E2E05E07B5
:1008400030F42130F1E03F0728F020FF03C083EAB5
:1008500090E0E6C0AAE8B8E3F90131961396ED936B
:10086000FC9314972130310529F5E19923C019969D
:10087000EC911997E43BF1F46370E62FF0E0E25A53
:10088000F74C878119968C9381E08D837FDD88EC0E
:1008900080930608A8958D812696CDBFDEBFDF9197
:1008A000CF911F910F91FF90EF90DF90CF90BF906D
:1008B000AF900895E19908C0E3E9F8E38FEF8193E1
:1008C00021503109E1F7E0CF452F5527452BE1F0C5
:1008D00036952795F22E41E2B9DC0AE818E381113A
:1008E00002C080E0D2CF11DCF80181870EDCF80174
:1008F0008287FA940E5F1F4FF110F5CF9FB381E00E
:10090000992309F4C2CFEDCF122F40E29FDC882358
:1009100041F343E9E42E48E3F42EF7DBF70181933A
:100920007F011150D1F7EACF818502851385C684F6
:10093000D784E088F1884F2D552766277727452BE8
:10094000462B472B19F0EE24FF2480E2E09B50C099
:10095000853C09F04DC00115110529F0C8018F71C2
:100960009927892B21F083EA809392388DCF6AE012
:1009700082E298E3F0DB882309F4B3CF80E2D0DD94
:10098000882309F4AECF81E0BFDC882309F4A9CF26
:1009900080E0BADC882309F4A4CF70E060E080E254
:1009A000F9DD84E0DFDD402FC701B601EDDB63E058
:1009B0008AE0E2DB68EC70E084E0ECDD60E287E096
:1009C000DBDBE19913C081E09FDC882309F489CF48
:1009D00080E09ADC882309F484CF70E060E080E254
:1009E000D9DDE19B51CF88E0BDDD4ECFB1DDEBCF4E
:1009F000E19B77CF803B39F008F4BDC090E4980FBD
:100A0000923008F0B8C0809162389091633808172E
:100A1000190741F00115F1E01F0721F08BEA90E082
:100A200005DD32CFE29906C001978C219D2121E09E
:100A3000892B09F020E0ED9B25C02223D9F09EDE12
:100A40004FEFC701B601E2DB882309F44ACF96DEF7
:100A500088E0D7DC882309F444CF90DE013011050B
:100A600061F440919C38C701B601D0DB87DE84E099
:100A7000C8DC0BCF83DE8FE0ECCF402FC701B6017F
:100A800083DBF4CFEE9B62C021110FC085DE82E0D4
:100A9000B8DC882309F425CF0130110599F4409181
:100AA0009C38C701B601B2DB49C076DE88E0A9DC1C
:100AB000882309F416CF4FEFC701B601A7DB8111D8
:100AC000E5CF0FCFC8010197892F9927892B09F40A
:100AD00038C0C0924138D0924238E0924338F09208
:100AE000443816950795F02EEAE3F8E301500283A7
:100AF00085E6848365E08FE398E32DDB8823F1F0BE
:100B000004DB8034D9F46EE082E036DB8823B1F078
:100B100065E08AE398E31FDB882381F00AE818E3A5
:100B2000F8018289FEDAF8018389FBDAFA940E5F14
:100B30001F4FF110F5CF66E082E01EDB2DDE80E076
:100B400097CF402FC701B6011FDBF8CF21110DC091
:100B500023DE0130110509F09AC040919C38C7018D
:100B6000B60154DB83E047DC90CE16DE84E043DC44
:100B70008111EECFB6CE9801215031092F3F3105BA
:100B800011F008F064CE813B29F0E0F4803209F1E5
:100B90008232E1F4ED9B5FC00930110508F057CEB9
:100BA000EDDD8FE12EDC882309F49BCE01301105A9
:100BB00009F04AC040919C38C701B60127DBDEDD51
:100BC00085E156CF843B60F0843C21F382EA90E0DB
:100BD00027CF202F4CE958E3C701B60154DB55CE8F
:100BE000ED99D8CFEE99D6CFC8018657974C5C01C6
:100BF0000AE818E3F601EA58F8436F01F801828920
:100C000090E089839A83C601800F911F8B839C8318
:100C1000C3DD24E0AE014F5F5F4F66E070E180E02E
:100C200090E031DB882309F45CCE87E0E4DB8823A5
:100C300009F457CEB1DD877009F053CE0F5F1F4F17
:100C40000A151B05D9F620CE202F4CE958E3C70121
:100C5000B60119DBB4CFEE9B15C00330110508F0C7
:100C6000F6CD9ADD83E1CDDB882309F43ACE01305D
:100C7000110509F414CF22E04CE958E3C701B6018D
:100C800002DB5CCF0134110508F462CFE0CD402FC8
:100C9000C701B60179DA66CF809193388111F6CD1C
:100CA000E09B41C06AE08CE298E355DA882309F4BE
:100CB00018CE88E035DC882309F413CE81E024DBEC
:100CC000882309F40ECE80E01FDB882309F409CEC7
:100CD00070E060E081E05EDC10E000E087E08EDA4A
:100CE00083FF07C0F6EAFA95F1F700C00150110939
:100CF000A9F7E29A2DDC882309F4F3CD81E004DB27
:100D0000882309F4EECD80E0FFDA882309F4E9CDE9
:100D100070E060E081E03EDC88E024DCE098E19A6D
:100D200081E08EDCB2CD4DDCBDCF81E0F2DA8823EC
:100D300009F4ABCD80E0EDDAA8CDCF93DF931F921D
:100D4000CDB7DEB784E08983898181508983882388
:100D500011F0E19B07C08CB3869581700F90DF91F5
:100D6000CF91089586E498E3DBD3892B31F58FB7D3
:100D7000F894EAE8FAE0108211822FE130E0ECE822
:100D8000FAE02083318321E0E5E8FAE02083E6E819
:100D9000FAE020832FE0E0E8FAE020838FBF80E0D4
:100DA0004FDC882351F0E19908C070E060E080E2F8
:100DB000F1DBF39B10C0E09AE19AE8DA8981823096
:100DC00008F0C2CF80916038813309F4BDCF5399C8
:100DD000BBCFE49AB9CFF099F0CF87E00FDA84FF68
:100DE0000FC081E091DA882341F380E08DDA882317
:100DF00021F370E060E080E2CDDB88E0B3DBDBCFA5
:100E0000A7DB8111EECFD9CF11241092800A81E0A7
:100E10008093860A62E070E086E498E3A1D31F9293
:100E20000F920FB60F9211242F933F934F935F931E
:100E30006F937F938F939F93AF93BF93EF93FF93A2
:100E4000A8958091090480930904129B1CC0E9991C
:100E500007C085E0A5DA81E05CDA81E0A1DAFFCFA6
:100E6000E89A7CDAFF91EF91BF91AF919F918F91BA
:100E70007F916F915F914F913F912F910F900FBE96
:100E80000F901F901895E89B03C081E089DAFFCF8F
:100E900085E086DAE99A489A49DA81E03ADA219AD5
:100EA000E1CFA89585E07CDA41DA81E032DA88E0AA
:100EB000809306088FEC97E00197F1F700C00000DF
:100EC000019A109211040998219A80915D3883301B
:100ED00099F083E080935D3889EA95E580939C0AD8
:100EE00090939D0A10929A0A10929B0A8FE4809325
:100EF000900A81E08093A90180E052DA309BFECF16
:100F000081E04EDAFFCFCF93DF9300D0CDB7DEB7CD
:100F1000F89424E0E0E1F4E083E098E021939A95EE
:100F2000E9F778968A95C9F788ED41E050E084BFEB
:100F3000409361008CE08093310488EF809301043A
:100F400080E28093210481E0809341048093E00556
:100F500098E09093E10530EA3093050435E0309352
:100F6000E2059093520490935104909311042093BE
:100F7000130444E8409314044DE04093300449E0E6
:100F800040931204909353041CBA1DBA90E19093BD
:100F900090019AE09093910191E1909392019DE4E8
:100FA0009093930192E09093B1019093B3012093B9
:100FB000A0012093A2012093CB0193E09093CA015A
:100FC00020EC2093C9018093C80126E02093CF0133
:100FD0009093CE019AEC9093CD018093CC019FE742
:100FE0009093D7013093D60198E59093D50191E481
:100FF0009093D4019093C001809350018093030A91
:1010000099E89093260A95E49093280A8093270AFA
:101010008093290A80932B0A8FE88093000A87E047
:101020008093910A129B86C099D9EDE9F0E08591F1
:10103000949180932808909329081092250883E0C2
:101040008093270888E88093260880EB90E08093BF
:101050000808909309088AE0809305088BE2809342
:10106000070888EC80930608E6988091400083FF8B
:1010700002C080E04ED98091400080934000809172
:1010800009048093090480915000897F82608093D5
:101090005000789480915000816080935000412CE2
:1010A000512C3201439452E0252E312C6DE1862ED5
:1010B000912CA12CB12C8091240887FFFCCF80912A
:1010C00020088B31C1F780938A38EBE8F8E38091F0
:1010D000240887FFFCCF80912008819328E3E23920
:1010E000F207A9F7809191388E3029F780918D38D9
:1010F00090918E38A0918F38B09190388531924080
:10110000A105B105C0F602E918E368018EEF9FEF73
:1011100020918D3830918E38821793076CF420918E
:10112000240827FFFCCF20912008D6012D936D01C4
:101130000196EECFFBD879CF3AE8E32E38E3F32ED1
:101140008FEF9FEFEC14FD0429F0F70161917F010F
:101150007FD9F8CF892B09F0AECFA895809192382E
:1011600040928D3850928E3860928F3870929038BD
:10117000F0E8F09392388B3009F426C108F04CC0A7
:10118000833009F4C6C008F03DC0813009F468C05E
:1011900008F4B6C180919338853009F046C0D090EC
:1011A00094388EEF8D0D883108F0AFC08D2D90E012
:1011B000FC01EE0FFF1FEB56FF4F059114917801D4
:1011C0000115110509F4A1C0809336389093373882
:1011D00051D98091240886FFFCCF0034110530F4EA
:1011E0008AEC809326087801EE0CFF1CE092280818
:1011F000F092290895E0D91619F0A8E1DA125BCF30
:10120000E59A59CF853009F421C108F426C1883008
:1012100061F080EA90E07BC0863148F4843128F4A4
:101220008C3009F436C18F30A1F724D944CF8633EE
:10123000E1F3853509F44AC1843359F720918B389D
:1012400030918C3880913838909139382817390787
:1012500061F383E0AFDA811110C18DEA90E057C0ED
:101260008BE09ED888E08093120480915D388823BB
:1012700041F010925D3881E88093000A1092A90134
:101280000F9881E046D8219A489A429A10925204C7
:1012900088EC809326081DBA80928D3890928E3803
:1012A000A0928F38B0929038E8E7F0E08491D801AE
:1012B0008D938D0131968FEA98E38A179B07B1F7DA
:1012C000809107119091031189279091041189272A
:1012D00080939C38809108119091051189279091F5
:1012E0000611892780939D388091091180939E383B
:1012F00080910A1180939F3880910B118093A038C0
:1013000080910C118093A13890CF86EA90E08ED81E
:101310008CCF80919338833099F138F4813071F01B
:101320008230D9F081EA90E0F2CF863089F18D31B8
:10133000D9F18530B9F78091363823C082E08093A7
:10134000933880939438E3E0F0E0E0938D38F093A5
:101350008E3881E88093923868CF85E38093933804
:1013600087E08093943882E28093953886E080937A
:10137000963885E090E080938D3890938E38E9CF51
:1013800085E58093933820928D3830928E38E1CF66
:1013900010D88093933890939438A3E0B0E0A09352
:1013A0008D38B0938E38D5CFE09BBCCFEAE6F8E31A
:1013B000A3E9B8E381918D938AE898E38E179F079C
:1013C000C9F7A1E2B0E0EBCFE7992FCF8091933836
:1013D000982F9073903329F480936038813309F00B
:1013E000E49AABDC80915D38E59B1AC0833099F0BC
:1013F00083E080935D38E9EAF5E5E0939C0AF09399
:101400009D0A10929A0A10929B0A8FE48093900A88
:1014100081E08093A90180E00E94D001E79A05CF86
:101420008430E1F384E080935D3885E194E080933B
:101430009C0A90939D0A10929A0A10929B0A8FE43C
:101440008093900A81E08093A901E8CF81E0B2D92E
:101450008111EBCE8BEA90E05ACF20918B383091FE
:101460008C3880913838909139382817390709F429
:10147000DCCE82E09FD9882349F080918B3890910F
:101480008C388093383890933938CFCE85EA90E005
:101490003ECF8091863990918739809362389093BE
:1014A0006338809188398093643890918339292FEB
:1014B0002073203319F490936038B7CE803220F433
:1014C00082E380936038B1CE80E3FBCFA3E9B8E339
:1014D000A983BA8380919338853509F0A6CE90917F
:1014E00094389B3208F0A1CEDE011396E0E6F8E3D3
:1014F00080E0981709F499CE2D9121938F5FF9CF51
:101500000E943A028091240886FFFCCFE19B02C032
:1015100084E050D988ED91E084BF9093410079CE6A
:10152000DC012D923D924D925D926D927D928D9255
:101530009D92AD92BD92CD92DD92ED92FD920D9372
:101540001D93CD93DD93FF91EF918DB78D938EB762
:101550008D938FB78D93ED93FD93882799270994E9
:10156000DC01CB0181309105811D2D903D904D9086
:101570005D906D907D908D909D90AD90BD90CD9043
:10158000DD90ED90FD900D911D91CD91DD91ED914E
:10159000FD910D900FBEEDBFFEBFED91FD91099441
:0415A000F894FFCFED
:1015A40055C800C304554800000000550800000059
:1015B40000550055000055E020676F72504D564E9F
:1015C40055E655E065742673554D564E55E06573E2
:1015D4006172454D564E0400FFFF55A00055045559
:0615E4006A000000000097
:00000001FF
