:1000000067C0000082C0000080C000007EC0000009
:100010007CC000007AC000000C94B8080C94EE0874
:1000200074C0000072C0000070C000006EC000000C
:100030006CC000000C94AD0868C0000066C00000F1
:1000400064C0000062C0000060C000005EC000002C
:100050005CC000005AC0000058C0000056C000003C
:1000600054C0000052C0000050C000004EC000004C
:100070004CC000004AC000008601010102010135A8
:1000800007010000000000004A5441474943452051
:100090006D6B49490000001B418D20471023081259
:1000A00004B6025B01DA0A0401AE0057002B0039E6
:1000B000019C00000000000B01C800A00085006446
:1000C00000500043003C0028001B0014000D0000FD
:1000D00011241FBECFEFCDBFDFE3DEBF18E3A0E0EA
:1000E000B8E3E0E4F9E102C005900D92A833B1074E
:1000F000D9F72AE3A8E3B8E301C01D92A837B207F5
:10010000E1F70E9407090C948F0C7ACF80910408C4
:1001100087FFFCCF8091010880588FBB8091000839
:100120008EBB0895CF93C82F8091040885FFFCCF24
:1001300080E480930408C09302088091040886FF3D
:10014000FCCFE4DF982F81E09C1380E09C13FD9AA4
:10015000CF9108950F931F93CF93DF93EB018C0101
:10016000F80181918F01DEDF882311F02197C1F71B
:1001700081E0CD2B09F080E0DF91CF911F910F91AD
:100180000895EEE1F8E3806C8183628363E070E0C0
:10019000CF01E0CF60E0811169E588E0F2CFCF9335
:1001A000C42F60931238709313388093143890934F
:1001B000153865E070E080E198E3CCDF811102C082
:1001C00090E00BC0A3DF8034D9F78C2FABDF8823FE
:1001D000B9F39CDF91E0803499F7892FCF9108958E
:1001E00040930C3850930D3860930E3870930F384D
:1001F00021502093073884608093093865E070E0CF
:100200008AE098E3A7DF882341F080DF803429F477
:1002100065E070E085E098E39DCF80E00895CF939E
:10022000DF93C0E0D8E080EC94E48887998780E091
:1002300079DF80EB90E088879987DF91CF910895EF
:10024000806880931D3862E070E08CE198E382DF83
:10025000811102C0E4DFF7CF59CF60931838709353
:10026000193865E070E086E198E374DF811102C01F
:10027000D6DFF7CF4BCFCF93C82FD1DF80E0C111AE
:1002800089E58093023865E070E080E098E3CF91E3
:1002900061CF80915038833099F083E0809350385B
:1002A00089EA95E580939C0A90939D0A10929A0A98
:1002B00010929B0A8FE48093900A81E08093A901B9
:1002C000089580915038823099F082E080935038C0
:1002D00089EA98E080939C0A90939D0A10929A0A6A
:1002E00010929B0A8FE48093900A81E08093A90189
:1002F00008958FB7F8941092800A91E09093860A3F
:100300008FBF189508959091010190FDFCCF98ED55
:1003100094BF80930001089581E0809300061092BD
:10032000010684E58093020681E18093080691E34B
:1003300090930C0680930A068091050681FFFCCFFE
:100340002091140630911506C90196958795220FC4
:10035000331F10920006820F931F0895482F60E00C
:1003600070E180E090E01BCFCF93C82F60E070E198
:1003700080E090E072DF8C1303C081E0CF9108959C
:1003800080E0ECDF8823D1F3CC23B9F38C2FCF911D
:10039000E5CF44E050E060E070E040936638509371
:1003A0006738609368387093693880936B38E19947
:1003B0000BC08CB3817080936C388CB380936D3894
:1003C0008DB380936E38089582E0F5CF8627082E8E
:1003D0008295807F8025092E982F82958F70082620
:1003E000869598278927880F880F880F802508957C
:1003F000AF92BF92CF92DF92EF92FF920F931F9333
:10040000CF93DF9300D0CDB7DEB78FEF9FEF898317
:100410009A83E0906638F09067388701085F1F4F35
:1004200083E6C82E88E3D82E560181E0E81AF10849
:10043000A7EFEA16AFEFFA0649F0F50161915F0107
:1004400089819A81C3DF89839A83EFCFF801ED59BF
:10045000F74C898180838A8181832FB7F894329603
:1004600090E4CE16DF0671F42FBF0F900F90DF914E
:10047000CF911F910F91FF90EF90DF90CF90BF90A1
:10048000AF900895D6018D916D013091240835FF0C
:10049000FCCF9093240880932208E3CFE1992FC0EA
:1004A0008BE0CEDE85FDFCCFF39927C0F09B02C028
:1004B00080E0089587E0C4DE84FD0FC06AE070E04C
:1004C00086E399E947DE882399F386EA8A95F1F76E
:1004D00000C087E0B5DE84FFF8CF81E05BDE8823D3
:1004E00039F380E057DE882319F386EA8A95F1F71D
:1004F00000C08BE0A5DE83FFF8CFE09AE19A81E0AF
:10050000089580E38093010A219A8FEC97E0019788
:10051000F1F700C0000021988FEC97E00197F1F708
:1005200000C00000EE9B1BC02D9A8FEC97E0019756
:10053000F1F700C000002D981092010A88EE93E0B8
:10054000809308089093090880E0ECDD80EB90E050
:100550008093080890930908E39AE79808950E9A03
:100560008FEC97E00197F1F700C000000E98E4CF00
:100570000F931F93CF93DF93C82FCEDE8C01C11151
:100580001DC0E49B36C0BDDF6AE070E086E399E9F8
:10059000E1DD811102C080E063C081E0FBDD8823E2
:1005A000D1F380E0F7DD8823B1F32FE986E891E00D
:1005B000215080409040E1F700C00000E0994CC01D
:1005C0000A3920E11207B8F466E082E0DADD882318
:1005D00011F362E070E081E298E3BCDD8823D9F298
:1005E000CFE6D8E388E3CF37D80759F08FDD89937A
:1005F000F9CF15DEE3CF62E089E0C3DD8111E4CFFE
:10060000CACF80916F38813421F070F4803209F0C4
:10061000C2CF80917938833309F4EF9AEE9A80E063
:1006200090E0A0E8B0E00FC08D3641F0843709F0CB
:10063000B2CF80E090E8A0E0B0E005C0ED9A80E0A5
:1006400090E4A0E0B0E08093513890935238A093AA
:100650005338B0935438E09A0A39104130F481E0AD
:10066000DF91CF911F910F91089589E0E9DD8370AB
:100670008230A9F7E79A88E590E080930808909384
:100680000908EDCFCF93DF931F92CDB7DEB783E09C
:100690008983898181508983882391F1E19930C0D0
:1006A0002FE936E881E0215030408040E1F700C07A
:1006B000000088E398E30E944F0C892BE1F48FB788
:1006C000F894EAE8FAE01082118225E230E0ECE8E2
:1006D000FAE02083318321E0E5E8FAE02083E6E8D0
:1006E000FAE020832FE0E0E8FAE020838FBF80E08B
:1006F0003FDF8111D3DEFDDD5399CBCFE49AC9CF23
:100700008CB3869581700F90DF91CF91089566E04C
:1007100070E180E090E0A1DD837029F086EA8A959F
:10072000F1F700C0F4CF8EB30895CF93C82FEFDF59
:100730008C2FCF9119CECF92DF92EF92FF920F9331
:100740001F93CF93DF93EA01D695C7959E01215061
:1007500031092F3F310511F008F059C06B017C01C0
:10076000E29B40C08FE0E1DF882309F450C0C092D3
:100770003238D0923338E0923438F09235388C2FBA
:1007800081508093283865E070E080E398E3E2DCF4
:10079000882309F43CC0BADC803409F038C068E032
:1007A00070E083E298E3D6DC882389F103E618E35E
:1007B000F8018289B7DCF8018389B4DC21970E5FE8
:1007C0001F4F2097A9F766E082E0DBDC8823F9F071
:1007D00084E0DF91CF911F910F91FF90EF90DF9018
:1007E000CF90A3CF809155389091563801978623AA
:1007F0009D21892B09F0B6CF8ADF4FEFC701B601E3
:10080000CEDC882321F088E090DF8111ABCF80E03F
:10081000DF91CF911F910F91FF90EF90DF90CF90DC
:10082000089562E070E180E090E017DD837029F0C8
:1008300086EA8A95F1F700C0F4CF8EB30895CF937E
:10084000C82FEFDF8C2FCF918FCDCF92DF92EF9219
:10085000FF920F931F93CF93DF93EA01D695C7952D
:100860009E01215031092F3F310511F008F058C089
:100870006B017C01E29B40C082E0E1DF882309F448
:100880004FC0C0923238D0923338E0923438F09270
:1008900035388C2F81508093283865E070E080E3F4
:1008A00098E358DC882309F43BC030DC803409F03D
:1008B00037C068E070E083E298E34CDC882381F184
:1008C00003E618E3F80182892DDCF80183892ADC2C
:1008D00021970E5F1F4F2097A9F766E082E051DC59
:1008E0008823F1F080E0DF91CF911F910F91FF906D
:1008F000EF90DF90CF90A3CF8091553890915638EC
:10090000019786239D21892B09F0B6CF88E097DFD8
:10091000882331F04FEFC701B60141DC8111ACCF24
:1009200080E0DF91CF911F910F91FF90EF90DF90CA
:10093000CF900895BF92CF92DF92EF92FF920F93E4
:100940001F93CF93DF93CDB7DEB72697CDBFDEBF22
:100950008E831D8288E398E3A2D7892B09F005C115
:100960009FB7F89410928A0A10928B0A28EE33E00F
:1009700020938C0A30938D0A81E08093850A8093BE
:10098000860A8FE08093800A9FBF2E81233009F46E
:1009900093C3243009F4D9C3223009F4AEC0E3E68E
:1009A000F8E38185028513854685578560897189BD
:1009B00092E8908798012F5F3F4F23833483023062
:1009C000110508F446C0803C09F45CC048F482324A
:1009D00009F465C018F0825B8430D8F180E033C040
:1009E000843C09F45CC088F5813CC1F780915138A2
:1009F00090915238A0915338B0915438169507957C
:100A00009801215031092F3F310509F038F7480F7F
:100A1000591F6A1F7B1F980181E2E2DB8823F1F2F4
:100A200073E6E72E78E3F72E71DBF70181876EDB43
:100A3000F701828701501109F2E0EF0EF11C011558
:100A4000110591F781E08D8390C0853CA9F1863C2A
:100A500029F6C80101978F3F910511F008F0BECF2C
:100A6000980180E2BDDB882309F4B8CF6CE6E62E5E
:100A700068E3F62E4BDBF70181937F0101501109EA
:100A8000C9F7E0CF8091513890915238A0915338F6
:100A9000B0915438481B590B6A0B7B0BA7CF809140
:100AA0005F3890916038A0916138B0916238480FFA
:100AB000591F6A1F7B1FCDCFE59B16C0C801019748
:100AC0008F3F910511F008F089CFE3E6F8E30D5967
:100AD000174CDF01AE5EBE4F8C9181873196E017D7
:100AE000F107B9F7E598AECF80915B3890915C380B
:100AF000A0915D38B0915E38DACFE19930C0809135
:100B00006C38853C91F5E3E6F8E381850285138531
:100B1000C684D784E088F1880230110508F038C017
:100B2000B288823B08F44BC0843B08F49CC1853CEE
:100B300009F045C0EF9B19C28C2D9C2D9F7309F0C5
:100B400000C2FFEFBF12FDC1E2DD4FEFC701B601EA
:100B500026DB882309F475C088E0E7DD86C08BE0DA
:100B60006FDB80FD02C0F399CECFC3DB88EC8093AE
:100B70000608A8958D812696CDBFDEBFDF91CF9167
:100B80001F910F91FF90EF90DF90CF90BF9008954D
:100B9000823C08F050C0803C08F055C0823219F009
:100BA000833B09F04EC080915F3890916038A091EE
:100BB0006138B0916238C80ED91EEA1EFB1EC8010A
:100BC0000197EF9BF9C18F3F910511F008F039C0F3
:100BD00080E0ABDD8823A9F1C0923238D09233385F
:100BE000E0923438F09235388FEF800F80932D38B3
:100BF00065E070E080E398E3ADDA882311F186DAEE
:100C00008034F9F465E070E08BE298E3A3DA88239E
:100C1000C1F025E7E22E28E3F22EF70181917F0152
:100C200081DA882371F072DA803459F401501109A5
:100C3000A1F785E192CF843C09F4B5CF853C09F456
:100C40006AC010E0E1C08091513890915238A09173
:100C50005338B0915438C80ED91EEA1EFB1EEF9BC4
:100C600006C0A801C701B60166DD182FCDC0EE9BF6
:100C700005C0A801C701B601E8DDF7CF16950795B5
:100C8000C80101978F3F910509F0D8F6CADD84E0CD
:100C900065DB8823B1F2C5DDC0923238D09233389B
:100CA000E0923438F09235388FEF800F80932838F7
:100CB00065E070E080E398E34DDA882309F4C1CF62
:100CC00025DA803409F0BDCF68E070E083E298E374
:100CD00041DA882309F4B5CF43E6E42E48E3F42E45
:100CE000F70182891FDAF70183891CDA01501109A3
:100CF000F2E0EF0EF11C0115110591F766E082E0BC
:100D000040DA882309F49DCF83E028DB882309F4A7
:100D100098CF87DD11C1E19979C06AE070E082E285
:100D200099E918DA882309F48CCF81E033DA882333
:100D300009F487CF80E02EDA882309F482CF26EAEF
:100D40002A95F1F700C08BE07BDA82FFF8CF809123
:100D5000573890915838A0915938B0915A388093AB
:100D6000323890933338A0933438B09335388FEFBE
:100D7000800F80932D3865E070E080E398E3EAD936
:100D8000882309F45ECFC2D9803409F05ACF65E0D8
:100D900070E08BE298E3DED9882309F452CF33E682
:100DA000E32E38E3F32E0D59174CF7018289EE5EDE
:100DB000FE4F8083F7018289B5D9882309F441CF9A
:100DC000A5D9803409F03DCFFFEFEF1AFF0AE016F6
:100DD000F10659F762E08AE0D4D926EA2A95F1F7BC
:100DE00000C08BE02DDA82FDF8CF60E287E0C9D940
:100DF00081E0D0D9882309F424CF80E0CBD9182F03
:100E0000882309F41ECFE59A1D83AFCE80915B380D
:100E100090915C38A0915D38B0915E38C80ED91EB3
:100E2000EA1EFB1EEF9B0FC072DC4FEFC701B6013D
:100E3000B6D9882309F405CF88E077DC882309F444
:100E400000CFE29A0ECFEE9BBACE88E0F8DC882382
:100E500009F4F7CE4FEFC701B601A1D9882309F4F1
:100E6000F0CEE29A06CFC701B601F7D9B81204C096
:100E70008FB311E0882341F2EF9B18C080E0DFDCE4
:100E8000882309F4DECEC701B601882799274B2DA8
:100E900086D9882309F4D5CE3ADC807711E009F0B1
:100EA00010E085E142DC8111AFCFCBCEEE9B16C0C6
:100EB00083E1C5DC882309F4C4CEC701B6018827C5
:100EC00099274B2D6CD9882309F4BBCEAADC8077F7
:100ED00011E009F010E080E0B2DCE5CF4B2D50E0EE
:100EE00049835A83CB82DC829CDC24E030E046E0FC
:100EF00050E160E070E080E673D9882309F4A1CE68
:100F00008E010F5F1F4F7E0185E0E80EF11CF80196
:100F100081918F0107D9882309F493CEF7D88034C3
:100F200009F08FCE0E151F0591F787E017DA882399
:100F300009F487CE76DC877011E0882309F464CF4A
:100F400080CE80FF0EC0E3E6F8E3B38A8FEF828B9A
:100F500021E0C21AD108E108F108E29A42E050E02B
:100F600081CE8FEF80937638F8CFEE9B28CE8C2DF4
:100F70009C2D9F7369F49FEFB9120AC088E05FDC73
:100F8000882309F45ECE4FEFC701B60108D96DCEB4
:100F900080FF0EC0E3E6F8E3B38A8FEF828BE1E0D7
:100FA000CE1AD108E108F108E29A42E050E062CEA0
:100FB0008FEF80937638F8CFEE9B3FC08F3F91053F
:100FC00011F008F03ECE83E13ADC882309F439CEF3
:100FD000C0923238D0923338E0923438F0923538BB
:100FE0008FEF800F80932D3865E070E080E398E309
:100FF000B1D8882309F425CE89D8803409F021CED0
:1010000065E070E08BE298E3A5D8882309F419CE57
:1010100095E7E92E98E3F92EF70181917F0182D8B7
:10102000882309F40ECE72D8803409F00ACE01501C
:10103000110991F780E003DC18CE8F3F910511F084
:1010400008F0FFCDEEDB84E089D9882309F4F9CDDF
:10105000E8DBC0923238D0923338E0923438F092E4
:1010600035388FEF800F80932D3865E070E080E396
:1010700098E370D8882309F4E4CD48D8803409F087
:10108000E0CD65E070E08BE298E364D8882309F452
:10109000D8CD85E7E82E88E3F82EF70181917F010E
:1010A00041D8882309F4CDCD31D8803409F0C9CD99
:1010B0000150110991F728CEE3E6F8E3818581110B
:1010C00054CD82859385A485B585892B8A2B8B2B5E
:1010D00009F04BCDE09B31C06AE070E086E399E90E
:1010E00039D8882309F47ACC6AE070E08CE299E977
:1010F00031D8882309F472CC81E04CD8882309F4D4
:101100006DCC80E047D8882309F468CCFFE926E855
:1011100081E0F15020408040E1F700C0000096EAF5
:101120009A95F1F700C08BE08BD880FDF8CFE29A5A
:10113000E09B05C0E198B2D986CCE3D9CDCF81E060
:1011400017DA882309F44ACCF6CF81E094D88823B3
:1011500009F479CC80E08FD876CC11241092800AE3
:1011600081E08093860A62E070E088E398E3B7D379
:101170001F920F920FB60F9211242F933F934F930C
:101180005F936F937F938F939F93AF93BF93EF93EF
:10119000FF938091090480930904129B16C088ED87
:1011A00091E084BF90934100FF91EF91BF91AF9187
:1011B0009F918F917F916F915F914F913F912F916F
:1011C0000F900FBE0F901F9018957BD881E053D8D9
:1011D000219A0000219880E04ED8E6CF72D881E0B5
:1011E0004AD888E0809306088FEC97E00197F1F7E2
:1011F00000C00000019A109211040998219A49D860
:10120000309BFECF88ED91E084BF90934100F8942D
:1012100024E0E0E1F4E083E098E021939A95E9F797
:1012200078968A95C9F788ED41E050E084BF4093F5
:1012300061008CE08093310488EF8093010480E2A8
:101240008093210481E0809341048093E00598E03D
:101250009093E10530EA3093050435E03093E205E0
:10126000909352049093510490931104209313048B
:1012700044E8409314044DE04093300449E0409327
:101280001204909353041CBA1DBA90E190939001FC
:101290009AE09093910191E1909392019DE4909353
:1012A000930192E09093B1019093B3012093A00138
:1012B0002093A2012093CB0193E09093CA0120ECEC
:1012C0002093C9018093C80126E02093CF01909319
:1012D000CE012AEC2093CD018093CC012FE72093FF
:1012E000D7013093D60128E52093D50121E420933E
:1012F000D4012093C001809350018093030A29E810
:101300002093260A25E42093280A8093270A8093B5
:10131000290A80932B0A3FE83093000A37E0309384
:10132000910A129B91C030915038313081F08093F6
:1013300050384AE855E440939C0A50939D0A109215
:101340009A0A10929B0A2093900A9093A901EDE9C2
:10135000F0E0859194918093280890932908109249
:10136000250883E08093270888E88093260880EB8F
:1013700090E080930808909309088AE0809305081C
:101380008BE28093070888EC80930608E7988091A9
:10139000400084FF03C080E00E943B018FEF8093F8
:1013A000400080930904789432E0232E312C43E0EE
:1013B000C42ED12C52E0452E512C612C712C6DE1A4
:1013C000862E912CA12CB12C8091240887FFFCCF74
:1013D000809120088B31C1F780936338E4E6F8E30D
:1013E0008091240887FFFCCF8091200881938BE6B1
:1013F00098E38E179F07A1F780916A388E3021F706
:101400008091663890916738A0916838B0916938BA
:101410008A309240A105B105B8F6CBE6D8E37E014B
:101420008EEF9FEF209166383091673882179307CF
:1014300074F42091240827FFFCCF20912008D701C5
:101440002D937D010196EECF0E94610180CF03E6CE
:1014500018E38FEF9FEF0E151F0531F0F801619132
:101460008F010E94E601F7CF892B09F0ADCFA89537
:1014700080916B38883009F4AEC1D0F5823009F420
:101480009FC048F4882309F4ABC1813009F447C0F8
:1014900080EA90E0D6C0843009F479C108F4D4C061
:1014A0008530B1F780916C38EC992EC190E0E199CC
:1014B00049C1843B09F046C180916D38813009F003
:1014C00041C18091713822E820936B38E0991EC1A8
:1014D0009FB381E0911180E08195409266385092EF
:1014E0006738609268387092693880936C3865C04C
:1014F000843109F4EAC048F48B3050F28D3010F09A
:101500008F3031F680E890E09CC0843309F446C106
:10151000863309F473C1853109F0BACFF3CF88E07F
:10152000809312048BE00E948301809150388823BD
:1015300041F01092503881E88093000A1092A9017E
:101540000F98489A429A1092520488EC8093260889
:101550008092663890926738A0926838B092693865
:10156000E8E7F0E084918993319628E3C838D20700
:10157000C9F7809107119091031189279091041167
:1015800089278093753880910811909105118927DA
:101590009091061189278093763880910911809364
:1015A000773880910A118093783880910B1180935D
:1015B000793880910C1180937A380E94F80104CF19
:1015C000F0906D3880916C388330B1F1853009F03E
:1015D00099CF8EEF8F0D883190F58F2D90E0FC0123
:1015E000EE0FFF1FEB56FF4FC591D4918E01209750
:1015F00031F1809336389093373880E890E00E943C
:10160000C9010E94F8018091240886FFFCCFC034F4
:10161000D10530F48AEC809326088E01000F111F4B
:10162000009328081093290885E0F81619F098E12E
:10163000F912CACEE69AC8CEF0924F3863CF86EA46
:1016400090E00E94C901B9CF80916C38833089F154
:1016500038F4813081F08230B9F081EA90E0F1CF46
:10166000853081F18630C9F70E948C0180936C38F7
:1016700090936D3804C080936C3880936D38C0921D
:101680006638D092673811C091E090936C3880939F
:101690006D3885E380936E3887E080936F38A5E0DE
:1016A000B0E0A0936638B093673881E880936B38D8
:1016B00084CF80914F3880936C3820926638309276
:1016C0006738F3CF80913638F6CFCCB30E9442030F
:1016D00080E890E00E94C901C0FD0EC0E09B0CC0F4
:1016E00084E190E0A0E0B0E08093663890936738A2
:1016F000A0936838B09369380E944901E69B5DCF9A
:1017000080E00E94830159CF90E8D1CE891B81F0FF
:10171000813031F4EE990EC0ED990EC084E7DDCE34
:10172000823081F4EF990AC0EE990AC080E3D5CEE9
:101730008EE1D3CE81E4D1CE8DE6CFCE83E3CDCE84
:1017400082E3CBCEE69917C080915038843099F06F
:1017500084E08093503885E191E080939C0A9093D7
:101760009D0A10929A0A10929B0A8FE48093900A25
:1017700081E08093A901E19905C0E59903C085EA5C
:1017800090E05FCF81E0D6D8811117CFF8CF82E00B
:10179000D1D88111B7CE82EA90E053CFCCB383E0A9
:1017A000C9D8811115C085EA90E00E94C901C0FD29
:1017B00004CFE09B02CF83E190E0A0E0B0E0809313
:1017C000663890936738A0936838B0936938F5CE3F
:1017D00080E890E0EACFE19B95CE84E0ABD892CE52
:1017E00080E890E00E94C9010E94F80180912408DD
:1017F00086FFFCCF81E00E948301FFCF8091773884
:1018000090917838A0917938B0917A3880935F3888
:1018100090936038A0936138B09362388091833898
:1018200090918438A0918538B091863880935B3848
:1018300090935C38A0935D38B0935E3880918B387C
:1018400090918C38A0918D38B0918E388093573814
:1018500090935838A0935938B0935A38809195385E
:1018600090919638809355389093563880915C3893
:10187000833109F447CE80E090E0A0E8B0E08093A7
:10188000513890935238A0935338B0935438EE9A0D
:1018900080915C38823109F035CEEC9A33CEDC0190
:1018A0002D923D924D925D926D927D928D929D9280
:1018B000AD92BD92CD92DD92ED92FD920D931D936E
:1018C000CD93DD93FF91EF918DB78D938EB78D936F
:1018D0008FB78D93ED93FD93882799270994DC01A9
:1018E000CB0181309105811D2D903D904D905D90F3
:1018F0006D907D908D909D90AD90BD90CD90DD9040
:10190000ED90FD900D911D91CD91DD91ED91FD91A9
:101910000D900FBEEDBFFEBFED91FD910994F894BF
:02192000FFCFF7
:1019220055E065742673554D564E55E065736172E8
:0E193200454D564E55E020676F72504D564E93
:1019400055C800C30455A0005504556A00000000A6
:1019500055480000000055080000000055005500E3
:101960000055E555C20E55A000556555A0005564BB
:08197000556A000000000400AC
:00000001FF
