:1000000067C0000081C000007FC000007DC000000C
:100010007BC0000079C00000C7C60000F8C6000021
:1000200073C0000071C000006FC000006DC0000010
:100030006BC00000AEC6000067C0000065C00000D5
:1000400063C0000061C000005FC000005DC0000030
:100050005BC0000059C0000057C0000055C0000040
:1000600053C0000051C000004FC000004DC0000050
:100070004BC0000049C00000860102350702022281
:100080000602000000000000555044493441565219
:10009000000000000000001B418D204710230812C3
:1000A00004B6025B01DA0A0401AE0057002B0039E6
:1000B000019C00000000000B01C800A00085006446
:1000C00000500043003C0028001B0014000D0000FD
:1000D00011241FBECFEFCDBFDFE3DEBF18E3A0E0EA
:1000E000B8E3E4E3F5E102C005900D92AA34B1074C
:1000F000D9F72AE3AAE4B8E301C01D92AE3AB207E9
:10010000E1F7A6D60C94980A7BCF8091040887FF6C
:10011000FCCF8091010880588FBB809100088EBB76
:100120000895CF93C82F8091040885FFFCCF80E409
:1001300080930408C09302088091040886FFFCCFD6
:10014000E4DF982F81E09C1380E09C1711F09FB3AF
:100150009FBBCF9108950F931F93CF93C62F8C0110
:10016000F80181918F01DDDF882311F0C150C1F7C3
:10017000CF911F910F910895E7E1F8E3806C81839F
:10018000628363E0CF01E7CF0F931F93CF93C42F18
:100190006093453870934638809347389093483839
:1001A0008FEF840F8093403884E68093423865E077
:1001B00083E498E3D0DF8823E1F0A7DF8034C9F43B
:1001C0006EE082E0D9DF8823A1F065E08EE398E35A
:1001D000C2DF882371F002EA18E3F80181918F01F0
:1001E000A0DFC150D1F766E082E0CF911F910F915F
:1001F000C3CF80E0CF911F910F91089580688093C5
:10020000163862E085E198E3A6DF7FCFCF93C42F55
:1002100060930B3870930C3880930D3890930E38A0
:1002200065E089E098E397DF811102C090E00BC0A0
:100230006CDF8034D9F78C2F74DF8823B9F365DF46
:1002400091E0803499F7892FCF91089560934538D4
:1002500070934638809347389093483821502093C4
:10026000403844604093423865E083E498E373DFAC
:10027000882339F04ADF803421F465E08EE398E387
:100280006ACF80E00895FF920F931F93CF93DF937F
:10029000F42ED52FC22F40E6D9DF882369F00F2D29
:1002A0001D2FF80181918F013CDF882329F02DDF7C
:1002B000803411F4C150A9F781E0C11180E0DF91D1
:1002C000CF911F910F91FF9008958091040885FFB1
:1002D000FCCF80EC94E4809308089093090880E0B8
:1002E00020DF80EB90E08093080890930908E6985F
:1002F0000895609311387093123865E08FE098E3A9
:100300002ADF811102C0E1DFF8CFFFCE60E081116A
:1003100069E588E031CFCF93119B0CC0C82FD5DFA2
:1003200063E080E098E3C11103C066E083E098E3F6
:10033000CF9111CF80E0CF910895909165389817B3
:1003400081F08093653860939C0A70939D0A1092A7
:100350009A0A10929B0A8FE48093900A81E080931E
:10036000A90108958FB7F8941092800A91E09093B4
:10037000860A8FBF18950895482F60E070E180E0ED
:1003800090E044CFCF93C82F60E070E180E090E030
:10039000B0DF8C1303C081E0CF91089580E0ECDFE3
:1003A0008823D1F3CC23B9F38C2FCF91E5CFE0E9AB
:1003B000F8E324E030E02383348380878CB38187A3
:1003C0008DB382878EB3838708958627082E829502
:1003D000807F8025092E982F82958F70082686951C
:1003E00098278927880F880F880F80250895AF9256
:1003F000BF92CF92DF92EF92FF920F931F93CF9312
:10040000DF9300D0CDB7DEB78FEF9FEF89839A835C
:10041000E0909338F09094388701085F1F4F80E98F
:10042000C82E88E3D82E560181E0E81AF108A7EF1C
:10043000EA16AFEFFA0649F0F50161915F01898193
:100440009A81C3DF89839A83EFCFF801E057F74C95
:10045000898180838A8181832FB7F894329690E4D2
:10046000CE16DF0671F42FBF0F900F90DF91CF9162
:100470001F910F91FF90EF90DF90CF90BF90AF90C2
:100480000895D6018D916D013091240835FFFCCF80
:100490009093240880932208E3CF1F93CF93DF9398
:1004A000182FD0E0C0E087E0A9DE8123181759F0AB
:1004B00086EA8A95F1F700C02197A9F780E0DF91DD
:1004C000CF911F91089581E0FACF6AE08AE198E325
:1004D00042DE882311F080E1E0CF80E008951F9391
:1004E000CF93DF93182FD0E0C0E08BE087DE81232D
:1004F000181759F086EA8A95F1F700C02197A9F7F5
:1005000080E0DF91CF911F91089581E0FACF1F9392
:10051000CF93DF93182FEB018BE070DE812318134C
:100520000BC086EA8A95F1F700C02197A9F780E011
:10053000DF91CF911F91089581E0FACF0F931F9320
:10054000CF9366E082E018DE811102C0C0E049C0AE
:100550008FEF9FEFDC0180936D3890936E38A093FE
:100560006F38B09370388BE049DE85FD2BC062E0B8
:1005700088E398E3F0DDC82F00E718E3882331F320
:10058000C4DDF80181938F01F8E300391F07C1F73B
:1005900090917A38909369388EE180936D3880918C
:1005A000703880936E3890936F38813431F098F4BE
:1005B000803261F681E480936E389333C9F4ED9A0A
:1005C000EE9A0EC080E0A2DE64EF71E080E29FDF71
:1005D0008111CDCFBBCF8D3649F0843709F0B6CF2E
:1005E000E09A8C2FCF911F910F910895EF9AF8CF39
:1005F000953331F7EB9AE3CF809168388D7F803364
:1006000009F038C08093010A219A86EA8A95F1F7A9
:1006100000C021988FEC97E00197F1F700C000002F
:1006200080916838803311F50E9A8FEC97E001972E
:10063000F1F700C00000809168388033C9F40E984B
:100640001092010A88EE93E08093080890930908BD
:1006500080E067DD80EB90E08093080890930908C4
:10066000E698E39A70E060E080E251CF2D9ADDCF0A
:100670002D98E6CF089566E070E180E090E039DEE5
:10068000837029F086EA8A95F1F700C0F4CF8EB323
:10069000089562E070E180E090E02BDE837029F045
:1006A00086EA8A95F1F700C0F4CF8EB30895A89535
:1006B0009091010190FDFCCF98ED94BF80930001D3
:1006C0000895CF93DF9300D0CDB7DEB78A8384E05F
:1006D0008983898181508983882309F44FC0E199F6
:1006E0004DC08981823019F42A81211108C0898185
:1006F000813031F480916838813311F0539BE49A52
:100700008AE498E3D5D6892B09F036C08FB7F894E0
:10071000EAE8FAE0108211822FE130E0ECE8FAE03A
:100720002083318321E0E5E8FAE02083E6E8FAE07F
:1007300020832FE0E0E8FAE020838FBF2198E49B3C
:1007400025C05ADF64EF71E080E2E1DEBEDE88237F
:1007500099F081E0DBDD882379F080E0D7DD882324
:1007600059F070E060E080E2D2DEE09903C0E6DE9E
:10077000882311F0E19B0CC0F5DDABCF8CB38695DF
:1007800081700F900F90DF91CF9108959EDDEDCF96
:10079000F39B03C0E09AE19AEFCFF099EDCF87E0A9
:1007A0002DDD84FF0FC081E0B1DD882329F380E0D7
:1007B000ADDD882309F370E060E080E2A8DE88E028
:1007C0008EDEE8CF82DE8111EECFD6CFAF92BF9220
:1007D000CF92DF92EF92FF920F931F93CF93DF930D
:1007E000CDB7DEB72697CDBFDEBF8E831D828AE4EC
:1007F00098E35ED6892B09F0F1C09FB7F894109268
:100800008A0A10928B0A28EC30E020938C0A3093ED
:100810008D0A81E08093850A8093860A8FE0809319
:10082000800A9FBF8E81833009F41FC2843009F48F
:1008300068C2E0E9F8E3823009F470C022853385AC
:10084000668577858089918942E84087A901415072
:1008500051094115E2E05E0730F42130F1E03F0735
:1008600040F020FF06C083EA90E0A1DD81E08D83A7
:10087000B5C0A0E9B8E3F90131961396ED93FC9366
:1008800014972130310581F4E1990EC01996EC914D
:100890001997E43B49F46370E62FF0E0EA59F74C0E
:1008A000878119968C93E2CFE19908C0E9E9F8E3D2
:1008B0008FEF819321503109E1F7D8CF452F55278C
:1008C000452BE1F036952795F22E41E2BFDC00E999
:1008D00018E3811102C080E0CACF17DCF8018187DC
:1008E00014DCF8018287FA940E5F1F4FF110F5CFE8
:1008F0009FB381E0992309F4BACFEDCF122F40E2E4
:10090000A5DC882341F369E9E62E68E3F62EFDDBDA
:10091000F70181937F011150D1F7EACF81850285DC
:100920001385C684D784E088F1884F2D5527662724
:100930007727452B462B472B19F0EE24FF2480E226
:10094000E09B62C0853C09F05FC00115110529F0EC
:10095000C8018F719927892B29F083EA80939838F1
:1009600011E03BC06AE084E298E3F5DB811102C04C
:1009700010E033C080E291DD8823D1F381E0C6DC52
:100980008823B1F380E0C2DC882391F370E060E05B
:1009900080E2BDDD84E0A3DD402FC701B601F4DBBA
:1009A00063E08AE0E9DB68EC70E084E0B0DD60E2FF
:1009B00087E0E2DBE19926C081E0A8DC8823C1F270
:1009C00080E0A4DC182F882399F270E060E080E2D8
:1009D0009EDDE19B02C088E082DD1D83C3DC88ECE4
:1009E00080930608A8958D812696CDBFDEBFDF9146
:1009F000CF911F910F91FF90EF90DF90CF90BF901C
:100A0000AF90089562DDD8CFE19BB2CF803B39F043
:100A100008F497C090E4980F923008F092C080914B
:100A20006A3890916B389C010217130709F471C161
:100A30003695279522303105B8F780EA90E08AC0D4
:100A40001ADE8FE094C1402FC701B6019DDB9DC126
:100A5000EE9B62C081110FC01CDE82E093DC882314
:100A600009F486CF0130110599F44091A238C701ED
:100A7000B601CCDB49C00DDE88E084DC882309F4B4
:100A800077CF4FEFC701B601C1DB8111E5CF70CF42
:100A9000C8010197892F9927892B09F438C0C09282
:100AA0004538D0924638E0924738F092483816954B
:100AB0000795F02EEEE3F8E30150028385E6848388
:100AC00065E083E498E347DB8823F1F01EDB8034A4
:100AD000D9F46EE082E050DB8823B1F065E08EE36C
:100AE00098E339DB882381F000E918E3F801828973
:100AF00018DBF801838915DBFA940E5F1F4FF110A4
:100B0000F5CF66E082E038DBC4DD80E040C1402FF5
:100B1000C701B60139DBF8CF81110DC0BADD013054
:100B2000110509F09DC04091A238C701B6016EDBE6
:100B300083E022DC3CC0ADDD84E01EDC8111EECF21
:100B400017CF9801215031092F3F310529F020F0AE
:100B500083EA90E02CDC04CF813B29F0D8F480328A
:100B600001F18232D9F4ED9B5FC00930110580F7A5
:100B700082DD8FE107DC882309F4FACE013011050C
:100B800009F04BC04091A238C701B6013FDB73DDCD
:100B900085E1FDC0843B68F0843C29F382EA90E063
:100BA000D9CF202F42EA58E3C701B6016CDB182FDA
:100BB00014CFED99D8CFEE99D6CFC8018057974C76
:100BC0005C0100E918E3F601E059F8436F01F80110
:100BD000828990E089839A83C601800F911F8B835D
:100BE0009C8357DD24E0AE014F5F5F4F66E070E10C
:100BF00080E090E048DB882309F4BACE87E0BCDBD4
:100C0000882309F4B5CE45DD877009F0B1CE0F5FBA
:100C10001F4FA016B106D9F6A3CE202F42EA58E303
:100C2000C701B60130DBB3CFEE9B15C00330110511
:100C300008F08ECF2EDD83E1A5DB882309F498CE62
:100C40000130110509F411CF22E042EA58E3C7014F
:100C5000B60119DB59CF0134110508F45FCF78CF05
:100C6000402FC701B60190DA63CF80919938811186
:100C7000B5CEE09B44C06AE08EE298E36CDA88234C
:100C800009F476CE88E009DC882309F471CE81E08E
:100C90003DDB882309F46CCE80E038DB882309F43F
:100CA00067CE70E060E081E032DC10E000E087E0D9
:100CB000A5DA83FF07C0F6EAFA95F1F700C0015004
:100CC0001109A9F7E29A01DC882309F451CE81E0E9
:100CD0001DDB882309F44CCE80E018DB182F882315
:100CE00009F446CE70E060E081E011DC88E0F7DBDB
:100CF000E098E19A2198E09970CE20DC58CF7CDC16
:100D0000BACF81E008DB882309F4B1CD80E003DBB2
:100D1000AECDE29914C04091613850916238609133
:100D2000633870916438C416D506E606F70639F0C4
:100D300001979C012C213D2181E0232B09F080E0CB
:100D4000C0926138D0926238E0926338F092643891
:100D5000ED9B7ECE882309F473CE8DDC4FEFC70167
:100D6000B60154DA882309F403CE85DC88E00ADB77
:100D7000882309F4FDCD7FDC0130110509F063CE35
:100D80004091A238C701B60141DA75DC84E0FADA95
:100D90000ECF11241092800A81E08093860A62E0CF
:100DA00070E08AE498E3A4D31F920F920FB60F92DB
:100DB00011242F933F934F935F936F937F938F9360
:100DC0009F93AF93BF93EF93FF9385E070DC88E030
:100DD00080931204E0E0F4E081858187489A69EA13
:100DE00078E082E0AADA81E096DA219AFF91EF9129
:100DF000BF91AF919F918F917F916F915F914F9133
:100E00003F912F910F900FBE0F901F90189585E086
:100E10004EDC69EA78E082E090DA81E07CDA88E012
:100E2000809306088FEC97E00197F1F700C000006F
:100E3000019A109211040998219A69EA75E583E0F4
:100E40007CDA80E034DC309BFECF81E030DCFFCF09
:100E5000CF93DF9300D0CDB7DEB7F89424E0E0E184
:100E6000F4E083E098E021939A95E9F778968A95E3
:100E7000C9F788ED41E050E084BF409361008CE009
:100E80008093310488EF8093010480E280932104F1
:100E900081E0809341048093E00598E09093E10520
:100EA00030EA3093050445E04093E2059093520404
:100EB00090935104909311042093130434E83093D9
:100EC00014043DE03093300439E0309312049093E1
:100ED00053041CBA1DBA90E1909390013AE030930C
:100EE000910191E1909392019DE49093930192E09E
:100EF0009093B1019093B3012093A0012093A2019C
:100F00002093CB0193E09093CA0120EC2093C90178
:100F10008093C80126E02093CF019093CE012AEC64
:100F20002093CD018093CC012FE72093D7014093EC
:100F3000D60128E52093D50121E42093D401209304
:100F4000C001809350018093030A29E82093260A68
:100F500025E42093280A8093270A8093290A809306
:100F60002B0A8FE88093000A87E08093910AEDE9CD
:100F7000F0E045915491409328085093290810922D
:100F800025089093270888E88093260880EB90E056
:100F90008093080890930908309305088BE28093AA
:100FA000070888EC80930608E6988091400083FF4C
:100FB00002C080E0B0D980914000809340008091D1
:100FC0005000897F826080935000809109048823BB
:100FD00029F08091090480930904F7CF789412993D
:100FE0000FC069EA78E082E0A8D9129906C0809122
:100FF0005000816080935000F8CF81E058DBFFCF34
:1010000080916538813099F081E0809365388AE875
:1010100095E480939C0A90939D0A10929A0A1092EC
:101020009B0A85E48093900A83E08093A9018091D4
:101030005000816080935000F0E8AF2EBB24B39441
:10104000A2E02A2E312CB3E08B2E912C44244A941A
:10105000542C32018091240887FFFCCF8091200816
:101060008B31C1F780939038E1E9F8E3809124084F
:1010700087FFFCCF80912008819328E3E839F207AD
:10108000A9F7809197388E3029F780919338909105
:101090009438A0919538B091963885319240A10549
:1010A000B105C0F608E918E368018EEF9FEF2091C3
:1010B000933830919438821793075CF42091240878
:1010C00027FFFCCF20912008D6012D936D010196BA
:1010D000EECFE0E9EE2EE8E3FE2E8FEF9FEFEC146B
:1010E000FD0429F0F70161917F016FD9F8CF892BB9
:1010F00009F0B0CFA8958091983821E030E0209396
:10110000933830939438A09298388B3009F447C1C3
:1011100008F04CC0833009F4CBC008F03DC08130EA
:1011200009F468C008F4B5C180919938853009F098
:1011300046C0D0909A388EEF8D0D883108F0B4C03B
:101140008D2D90E0FC01EE0FFF1FEB56FF4F059138
:10115000149178010115110509F4A6C080933A385D
:1011600090933B3844D98091240886FFFCCF00340B
:10117000110530F48AEC809326087801EE0CFF1CF0
:10118000E0922808F092290835E0D31619F088E19A
:10119000D81260CFE59A5ECF853009F420C108F4FB
:1011A00025C1883061F080EA90E080C0863148F443
:1011B000843128F48C3009F435C18F30A1F717D968
:1011C00049CF8633E1F3853509F449C1843359F7B2
:1011D000209191383091923880913C3890913D38EF
:1011E0002817390761F383E0F1DA81110FC18DEA25
:1011F00090E05CC08BE05BDA88E080931204809121
:101200006538882341F01092653881E88093000AA0
:101210001092A9010F9881E07ED8219A489A429AAB
:101220001092520488EC80932608409261385092C4
:10123000623860926338709264388DE190E08093F8
:10124000933890939438E8E7F0E08491D8018D9337
:101250008D01319625EB38E32A173B07B1F78091D2
:101260000711909103118927909104118927809388
:10127000A23880910811909105118927909106114B
:1012800089278093A338809109118093A438809195
:101290000A118093A53880910B118093A638809114
:1012A0000C118093A7388BCF86EA90E080D887CF47
:1012B00080919938833091F138F4813079F082301F
:1012C000B9F081EA90E0F2CF863081F18D3109F4F6
:1012D00052C08530B1F780913A3821C082E08093C6
:1012E000993880939A38809293389092943812C0AB
:1012F00085E38093993887E080939A3882E28093DF
:101300009B3886E080939C38A5E0B0E0A0939338AA
:10131000B093943881E88093983851CF85E58093D5
:1013200099382092933830929438F4CFB0920006D6
:101330001092010684E58093020681E180930806FD
:1013400091E390930C0680930A068091050681FF35
:10135000FCCF80911406909115069C013695279537
:10136000880F991F10920006820F931F809399385F
:1013700090939A38B8CFE09BA4CFE0E7F8E3A9E9CF
:10138000B8E381918D9320E938E32E173F07C9F721
:1013900081E290E08093933890939438BBCFE799A3
:1013A0000ECF90919938892F8073803329F49093D0
:1013B000683881E0913309F480E083D9E59B09C066
:1013C00069EA75E583E00E949D0180E070D9E79AA3
:1013D000F6CE65E174E084E00E949D01F8CF81E0E3
:1013E000F5D98111ECCE8BEA90E060CF2091913855
:1013F0003091923880913C3890913D3828173907C8
:1014000009F4DDCE82E0E2D9882349F08091913859
:101410009091923880933C3890933D38D0CE85EAB5
:1014200090E044CF80918C3990918D3980936A38C7
:1014300090936B3880918E3980936C389091893974
:10144000292F2073203319F490936838B8CE803256
:1014500020F482E380936838B2CE80E3FBCFA9E921
:10146000B8E3A983BA8380919938853509F0A7CE6E
:1014700090919A38993208F0A2CEDE011396E8E6F0
:10148000F8E380E0891709F49ACE2D9121938F5FBC
:10149000F9CF0E94F7018091240886FFFCCFE19BE1
:1014A00002C084E093D988ED84BFB09241007BCE26
:1014B000DC012D923D924D925D926D927D928D92C6
:1014C0009D92AD92BD92CD92DD92ED92FD920D93E3
:1014D0001D93CD93DD93FF91EF918DB78D938EB7D3
:1014E0008D938FB78D93ED93FD938827992709945A
:1014F000DC01CB0181309105811D2D903D904D90F7
:101500005D906D907D908D909D90AD90BD90CD90B3
:10151000DD90ED90FD900D911D91CD91DD91ED91BE
:10152000FD910D900FBEEDBFFEBFED91FD910994B1
:04153000F894FFCF5D
:1015340055C85955C80055C3045548000000005506
:101544000800000000550055000055E020676F7248
:10155400504D564E55E065742673554D564E55E024
:1015640065736172454D564E55E60400FFFF55A064
:0A157400005504556A000000000055
:00000001FF
