:1000000067C0000082C0000080C000007EC0000009
:100010007CC000007AC000000C949E080C94D408A8
:1000200074C0000072C0000070C000006EC000000C
:100030006CC000000C94930868C0000066C000000B
:1000400064C0000062C0000060C000005EC000002C
:100050005CC000005AC0000058C0000056C000003C
:1000600054C0000052C0000050C000004EC000004C
:100070004CC000004AC000008601010102010135A8
:1000800007010000000000004A5441474943452051
:100090006D6B49490000001B418D20471023081259
:1000A00004B6025B01DA0A0401AE0057002B0039E6
:1000B000019C00000000000B01C800A00085006446
:1000C00000500043003C0028001B0014000D0000FD
:1000D00011241FBECFEFCDBFDFE3DEBF18E3A0E0EA
:1000E000B8E3EEE2F9E102C005900D92A833B10742
:1000F000D9F72AE3A8E3B8E301C01D92A837B207F5
:10010000E1F70E94ED080C94860C7ACF80910408E8
:1001100087FFFCCF8091010880588FBB8091000839
:100120008EBB0895CF93C82F8091040885FFFCCF24
:1001300080E480930408C09302088091040886FF3D
:10014000FCCFE4DF982F81E09C1380E09C13FD9AA4
:10015000CF9108950F931F93CF93DF93EB018C0101
:10016000F80181918F01DEDF882311F02197C1F71B
:1001700081E0CD2B09F080E0DF91CF911F910F91AD
:100180000895E5E3F8E382EC818386E0828363E00F
:1001900070E0CF01DFCF0F931F93CF9362E070E049
:1001A00081E398E3D7DFC82F882361F10EE618E3D7
:1001B00088E30E37180729F0A9DFF80181938F0132
:1001C000F7CF80916E388D3679F0843701F1813424
:1001D00019F580917838833309F4EA9AE99A80E036
:1001E00090E0A0E8B0E005C0E89A80E090E4A0E0EC
:1001F000B0E08093513890935238A0935338B09325
:100200005438E09A8C2FCF911F910F91089580E080
:1002100090E8A0E0B0E0EDCFC0E0F4CF811189E537
:1002200098EC909336388093373863E070E085E33C
:1002300098E390CFCF93C42F609312387093133804
:10024000809314389093153865E070E080E198E36E
:1002500081DF811102C090E00BC058DF8034D9F7F4
:100260008C2F60DF8823B9F351DF91E0803499F758
:10027000892FCF91089540930C3850930D38609397
:100280000E3870930F382150209307388460809384
:10029000093865E070E08AE098E35CDF882341F08C
:1002A00035DF803429F465E070E085E098E352CFD3
:1002B00080E00895CF93DF93C0E0D8E080EC94E431
:1002C0008887998780E02EDF80EB90E08887998788
:1002D000DF91CF910895CF93C62F806880931D380A
:1002E00062E070E08CE198E335DF811102C0E2DF6B
:1002F000F7CF0CDF982F9C2381E09C1380E0CF91F7
:100300000895609318387093193865E070E086E1BD
:1003100098E320DF811102C0CDDFF7CFF7CECF9376
:10032000C82FC8DF80E0C11189E58093023865E0FD
:1003300070E080E098E3CF910DCF8091503883300A
:1003400099F083E08093503889EA95E580939C0A80
:1003500090939D0A10929A0A10929B0A8FE48093C0
:10036000900A81E08093A9010895809150388230ED
:1003700099F082E08093503889EA98E080939C0A53
:1003800090939D0A10929A0A10929B0A8FE4809390
:10039000900A81E08093A90108958FB7F894109294
:1003A000800A91E09093860A8FBF189508959091E6
:1003B000010190FDFCCF98ED94BF8093000108955A
:1003C000482F60E070E180E090E034CFCF93C82FF9
:1003D00060E070E180E090E094DF8C1303C081E086
:1003E000CF91089580E0ECDF8823D1F3CC23B9F3DB
:1003F0008C2FCF91E5CF44E050E060E070E0409377
:100400006638509367386093683870936938809382
:100410006B38E1990BC08CB3817080936C388CB3CE
:1004200080936D388DB380936E38089582E0F5CF58
:100430008627082E8295807F8025092E982F829509
:100440008F700826869598278927880F880F880F30
:1004500080250895AF92BF92CF92DF92EF92FF92E4
:100460000F931F93CF93DF9300D0CDB7DEB78FEFFD
:100470009FEF89839A83E0906638F0906738870110
:10048000085F1F4F83E6C82E88E3D82E560181E00F
:10049000E81AF108A7EFEA16AFEFFA0649F0F501FE
:1004A00061915F0189819A81C3DF89839A83EFCF4C
:1004B000F801ED59F74C898180838A8181832FB7B8
:1004C000F894329690E4CE16DF0671F42FBF0F90A9
:1004D0000F90DF91CF911F910F91FF90EF90DF90E0
:1004E000CF90BF90AF900895D6018D916D0130915E
:1004F000240835FFFCCF9093240880932208E3CF93
:10050000CF93E19936C060E28BE0E5DEC82F811120
:10051000FACFF3992CC0F0992DC060E187E0DBDEC3
:10052000811112C06AE070E084E299E913DE882349
:1005300009F189EF90E00197F1F700C0000060E158
:1005400087E0C9DE8823A9F381E068DE882391F083
:1005500080E064DE882371F089EF90E00197F1F785
:1005600000C0000068E08BE0B6DE8823A9F3E09AC3
:10057000E19AC1E08C2FCF91089580E38093010A26
:10058000219A87E893E10197F1F700C000002198D4
:1005900087E893E10197F1F700C00000E99B1AC0DA
:1005A0002D9A8FEC97E00197F1F700C000002D988D
:1005B0001092010A88EE93E080930808909309084E
:1005C00080E0B0DD80EB90E080930808909309080C
:1005D000E39A08950E9A8FEC97E00197F1F700C027
:1005E00000000E98E5CFCF93DF931F92CDB7DEB713
:1005F00083E08983898181508983882309F452C0EB
:10060000E19950C02FE33DE083E02150304080402D
:10061000E1F700C0000088E398E30E94460C892BB4
:1006200009F03BC08FB7F894EAE8FAE01082118233
:1006300025E230E0ECE8FAE02083318321E0E5E8D0
:10064000FAE02083E6E8FAE020832FE0E0E8FAE031
:1006500020838FBFE49B2DC090DF6AE070E084E2CE
:1006600099E978DD8823C9F081E0D8DD8823A9F0F5
:1006700080E0D4DD882389F03FE986E891E03150BD
:1006800080409040E1F700C00000E09905C079DDAE
:10069000882319F080DD811133DF7FDE5399AACFE3
:1006A000E49AA8CF8CB3869581700F90DF91CF919B
:1006B000089500DEEACF66E070E180E090E021DEA0
:1006C000837029F086EA8A95F1F700C0F4CF8EB3E3
:1006D0000895CF93C82FEFDF8C2FCF9177CECF9295
:1006E000DF92EF92FF920F931F93CF93DF93EA0174
:1006F000D695C7959E01215031092F3F310511F044
:1007000008F057C06B017C01E29B3EC08FE0E1DF47
:10071000882309F44EC0C0922D38D0922E38E09232
:100720002F38F09230388C2F81508093233865E039
:1007300070E08BE298E30EDD882309F43AC0E6DC32
:10074000803409F036C068E070E08EE198E302DDA5
:10075000882379F103E618E3F8018289E3DCF801E4
:100760008389E0DC21970E5F1F4F2097A9F709DDF1
:100770008823F9F084E0DF91CF911F910F91FF90D2
:10078000EF90DF90CF90A5CF80915538909156385B
:10079000019786239D21892B09F0B8CF8CDF4FEF7D
:1007A000C701B60147DD882321F088E092DF81117F
:1007B000ADCF80E0DF91CF911F910F91FF90EF902F
:1007C000DF90CF90089562E070E180E090E099DDE5
:1007D000837029F086EA8A95F1F700C0F4CF8EB3D2
:1007E0000895CF93C82FEFDF8C2FCF91EFCDCF920D
:1007F000DF92EF92FF920F931F93CF93DF93EA0163
:10080000D695C7959E01215031092F3F310511F032
:1008100008F055C06B017C01E29B3DC082E0E1DF46
:10082000882309F44CC0C0922D38D0922E38E09223
:100830002F38F09230388C2F81508093233865E028
:1008400070E08BE298E386DC882309F438C05EDC34
:100850008034A9F568E070E08EE198E37BDC8823C2
:1008600071F103E618E3F80182895CDCF801838901
:1008700059DC21970E5F1F4F2097A9F782DC882350
:10088000F1F080E0DF91CF911F910F91FF90EF90F9
:10089000DF90CF90A6CF8091553890915638019730
:1008A00086239D21892B09F0B9CF88E09ADF882320
:1008B00031F04FEFC701B601BDDC8111AFCF80E051
:1008C000DF91CF911F910F91FF90EF90DF90CF902C
:1008D0000895BF92CF92DF92EF92FF920F931F93F2
:1008E000CF93DF93CDB7DEB72697CDBFDEBF8E8324
:1008F0001D8288E398E3CAD7892B09F006C19FB708
:10090000F89410928A0A10928B0A28EE33E0209312
:100910008C0A30938D0A81E08093850A8093860A41
:100920008FE08093800A9FBF8E81833009F4A6C335
:10093000843009F4F0C3823009F4AEC0E3E6F8E392
:10094000818502851385468557856089718992E87E
:10095000908798012F5F3F4F238334830230110526
:1009600008F446C0803C09F45CC048F4823209F4C3
:1009700065C018F0825B8430D8F180E033C0843CDD
:1009800009F45CC088F5813CC1F7809151389091A1
:100990005238A0915338B091543816950795980164
:1009A000215031092F3F310509F038F7480F591F01
:1009B0006A1F7B1F980181E25EDC8823F1F273E6F7
:1009C000E72E78E3F72EA2DBF70181879FDBF701A3
:1009D000828701501109F2E0EF0EF11C011511059B
:1009E00091F781E08D8391C0853CA9F1863C29F681
:1009F000C80101978F3F910511F008F0BECF980113
:100A000080E239DC882309F4B8CF6CE6E62E68E38F
:100A1000F62E7CDBF70181937F0101501109C9F7A4
:100A2000E0CF8091513890915238A0915338B091D5
:100A30005438481B590B6A0B7B0BA7CF80915F384A
:100A400090916038A0916138B0916238480F591F79
:100A50006A1F7B1FCDCFE59B16C0C80101978F3F52
:100A6000910511F008F089CFE3E6F8E30D59174C32
:100A7000DF01AE5EBE4F8C91818731960E171F0746
:100A8000B9F7E598AECF80915B3890915C38A09132
:100A90005D38B0915E38DACFE19930C080916C3822
:100AA000853C99F5E3E6F8E3818502851385C684E4
:100AB000D784E088F1880230110508F039C0B28887
:100AC000823B08F44CC0843B08F4AFC1853C09F07C
:100AD00046C0EA9B2CC28C2D9C2D9F7309F013C23B
:100AE000FFEFBF1210C2E7DD4FEFC701B601A2DB77
:100AF000882309F476C088E0ECDD87C061E08BE0F4
:100B0000EADB811102C0F399CDCF47DC88EC8093FA
:100B10000608A8958D812696CDBFDEBFDF91CF91C7
:100B20001F910F91FF90EF90DF90CF90BF900895AD
:100B3000823C08F050C0803C08F055C0823219F069
:100B4000833B09F04EC080915F3890916038A0914E
:100B50006138B0916238C80ED91EEA1EFB1EC8016A
:100B60000197EA9B0BC28F3F910511F008F039C045
:100B700080E0AFDD8823A9F1C0922D38D0922E38C5
:100B8000E0922F38F09230388FEF800F8093283822
:100B900065E070E08BE298E3DDDA882311F1B6DAE4
:100BA0008034F9F465E070E086E298E3D3DA8823D4
:100BB000C1F025E7E22E28E3F22EF70181917F01B3
:100BC000B1DA882371F0A2DA803459F401501109A6
:100BD000A1F785E191CF843C09F4B5CF853C09F4B8
:100BE00068C010E0F3C08091513890915238A091C4
:100BF0005338B0915438C80ED91EEA1EFB1EEA9B2A
:100C000006C0A801C701B6016ADD182FDFC0E99B45
:100C100005C0A801C701B601EADDF7CF1695079513
:100C2000C80101978F3F910509F0D8F6CCDD84E02B
:100C3000C7DB8823B1F2C7DDC0922D38D0922E38A1
:100C4000E0922F38F09230388FEF800F8093233866
:100C500065E070E08BE298E37DDA882309F4C1CF88
:100C600055DA803409F0BDCF68E070E08EE198E39A
:100C700071DA882309F4B5CF43E6E42E48E3F42E75
:100C8000F70182894FDAF70183894CDA01501109A3
:100C9000F2E0EF0EF11C0115110591F772DA8823CD
:100CA00009F49FCF83E08CDB882309F49ACF8BDD96
:100CB00025C1E1998DC06AE070E080E199E94ADAE6
:100CC000882309F48ECF81E0A9DA882309F489CF3B
:100CD00080E0A4DA882309F484CF89EF90E00197BB
:100CE000F1F700C0000064E08BE0F5DA8823A9F397
:100CF0008091573890915838A0915938B0915A380E
:100D000080932D3890932E38A0932F38B09330389D
:100D10008FEF800F8093283865E070E08BE298E3D6
:100D200019DA882309F45DCFF1D9803409F059CF5D
:100D300065E070E086E298E30DDA882309F451CF8C
:100D400033E6E32E38E3F32E0D59174CF701828971
:100D5000EE5EFE4F8083F7018289E4D9882309F48F
:100D600040CFD4D9803409F03CCFFFEFEF1AFF0A0F
:100D70000E151F0559F7E5E3F8E38AEC818382E05D
:100D8000828363E070E0CF01E5D989EF90E00197BD
:100D9000F1F700C0000064E08BE09DDA8111F5CF2F
:100DA000E5E3F8E387EC818380E2828363E070E02F
:100DB000CF01D0D981E032DA882309F412CF80E064
:100DC0002DDA182F882309F40CCFE59A1D839DCEC8
:100DD00080915B3890915C38A0915D38B0915E381D
:100DE000C80ED91EEA1EFB1EEA9B0FC064DC4FEF43
:100DF000C701B6011FDA882309F4F3CE88E069DC65
:100E0000882309F4EECEE29AFCCEE99BA8CE88E0D6
:100E1000E8DC882309F4E5CE4FEFC701B6010ADA12
:100E2000882309F4DECEE29AF4CEC701B60169DA6E
:100E3000B81204C08FB311E0882341F2EA9B18C0B6
:100E400080E0CFDC882309F4CCCEC701B601882727
:100E500099274B2DEFD9882309F4C3CE2CDC80775A
:100E600011E009F010E085E134DC8111AFCFB9CE9B
:100E7000E99B16C083E1B5DC882309F4B2CEC70133
:100E8000B601882799274B2DD5D9882309F4A9CEF7
:100E90009ADC807711E009F010E080E0A2DCE5CF79
:100EA0004B2D50E049835A83CB82DC828CDC24E0DA
:100EB00030E046E050E160E070E080E6DCD9882375
:100EC00009F48FCE8E010F5F1F4F7E0195E0E90E72
:100ED000F11CF80181918F0125D9882309F481CE75
:100EE00015D9803409F07DCEE016F10691F787E040
:100EF00067DA882309F475CE66DC877011E08823F1
:100F000009F464CF6ECE80FF0EC0E3E6F8E3B38A47
:100F10008FEF828B81E0C81AD108E108F108E29ACC
:100F200042E050E06FCE8FEF80937638F8CFE99BA8
:100F300016CE8C2D9C2D9F7369F49FEFB9120AC0B9
:100F400088E04FDC882309F44CCE4FEFC701B6018F
:100F500071D95BCE80FF0EC0E3E6F8E3B38A8FEF72
:100F6000828BE1E0CE1AD108E108F108E29A42E072
:100F700050E050CE8FEF80937638F8CFE99B3FC09A
:100F80008F3F910511F008F02CCE83E12ADC8823F5
:100F900009F427CEC0922D38D0922E38E0922F3807
:100FA000F09230388FEF800F8093283865E070E042
:100FB0008BE298E3CFD8882309F413CEA7D88034E6
:100FC00009F00FCE65E070E086E298E3C3D888238D
:100FD00009F407CE95E7E92E98E3F92EF701819100
:100FE0007F01A0D8882309F4FCCD90D8803409F083
:100FF000F8CD0150110991F780E0F3DB06CE8F3F69
:10100000910511F008F0EDCDDEDB84E0D9D988231D
:1010100009F4E7CDD8DBC0922D38D0922E38E0927B
:101020002F38F09230388FEF800F8093283865E0AA
:1010300070E08BE298E38ED8882309F4D2CD66D88D
:10104000803409F0CECD65E070E086E298E382D886
:10105000882309F4C6CD85E7E82E88E3F82EF7014A
:1010600081917F015FD8882309F4BBCD4FD88034AC
:1010700009F0B7CD0150110991F714CEE3E6F8E37A
:101080008185811142CD82859385A485B585892B83
:101090008A2B8B2B09F039CDE09B31C06AE070E0E0
:1010A00084E299E957D8882309F467CC6AE070E0B4
:1010B0008AE199E94FD8882309F45FCC81E0AED862
:1010C000882309F45ACC80E0A9D8882309F455CCA8
:1010D00087EA91E60197F1F700C00000E9EFF0E040
:1010E0003197F1F700C0000061E08BE0F4D8811186
:1010F000F5CFE29AE09B05C0E19802DA73CC3DDAC5
:10110000CDCFE099FACF3DD8882309F436CC43D827
:101110008111F3CF32CC81E002D9882309F462CC6B
:1011200080E0FDD85FCC11241092800A81E080938A
:10113000860A62E070E088E398E3C8D31F920F92BA
:101140000FB60F9211242F933F934F935F936F939A
:101150007F938F939F93AF93BF93EF93FF93809170
:10116000090480930904129B16C088ED91E084BFA6
:1011700090934100FF91EF91BF91AF919F918F911B
:101180007F916F915F914F913F912F910F900FBE83
:101190000F901F901895E9D881E0C1D8219A0000DE
:1011A000219880E0BCD8E6CFE0D881E0B8D888E0CC
:1011B0008093060883EC99E00197F1F700C00000E6
:1011C000019A109211040998219AB7D8309BFECF4A
:1011D00088ED91E084BF90934100F89424E0E0E131
:1011E000F4E083E098E021939A95E9F778968A9560
:1011F000C9F788ED41E050E084BF409361008CE086
:101200008093310488EF8093010480E2809321046D
:1012100081E0809341048093E00598E09093E1059C
:1012200030EA3093050435E03093E20590935204A0
:1012300090935104909311042093130444E8409335
:1012400014044DE04093300449E04093120490931D
:1012500053041CBA1DBA90E1909390019AE09093C8
:10126000910191E1909392019DE49093930192E01A
:101270009093B1019093B3012093A0012093A20118
:101280002093CB0193E09093CA0120EC2093C901F5
:101290008093C80126E02093CF019093CE012AECE1
:1012A0002093CD018093CC012FE72093D701309379
:1012B000D60128E52093D50121E42093D401209381
:1012C000C001809350018093030A29E82093260AE5
:1012D00025E42093280A8093270A8093290A809383
:1012E0002B0A3FE83093000A37E03093910A129BB3
:1012F00090C030915038313081F0809350384AE8B6
:1013000055E440939C0A50939D0A10929A0A1092B9
:101310009B0A2093900A9093A901EDE9F0E0859152
:10132000949180932808909329081092250883E0CF
:101330008093270888E88093260880EB90E08093CC
:101340000808909309088AE0809305088BE280934F
:10135000070888EC809306088091400084FF03C052
:1013600080E00E948F018FEF8093400080930904FA
:101370007894E3E18E2E912CA12CB12CF2E02F2E4B
:10138000312CA3E0CA2ED12CBDE14B2E512C612C67
:10139000712C8091240887FFFCCF809120088B312D
:1013A000C1F780936338E4E6F8E38091240887FF6F
:1013B000FCCF8091200881932BE638E32E173F075E
:1013C000A1F780916A388E3021F78091663890912C
:1013D0006738A0916838B09169388A309240A10589
:1013E000B105B8F6CBE6D8E37E018EEF9FEF2091F2
:1013F0006638309167388217930774F42091240877
:1014000027FFFCCF20912008D7012D937D01019665
:10141000EECF0E94B50181CF03E618E38FEF9FEF77
:101420000E151F0529F0F80161918F0101D8F8CF41
:10143000892B09F0AECFA89580916B38883009F4DC
:10144000C7C1D8F5823009F4A1C048F4882309F453
:10145000C4C1813009F448C080EA90E0D8C084302B
:1014600009F496C108F4D6C08530B1F780916C3884
:10147000E19969C1843B09F066C180916D38813082
:1014800009F061C18091713892E890936B38E099CE
:101490003EC19FB381E0911180E0819522E030E070
:1014A00040E050E0209366383093673840936838C6
:1014B0005093693880936C3866C0843109F40CC14C
:1014C00048F48B3048F28D3010F08F3029F680E8E8
:1014D00090E09DC0843309F462C1863309F48BC166
:1014E000853109F0B9CFF3CF88E0809312048BE007
:1014F0000E94D70180915038882341F010925038D3
:1015000081E88093000A1092A9010F98489A429AA4
:101510001092520488EC80932608409266385092CC
:1015200067386092683870926938E8E7F0E088E8D8
:1015300098E32491299331968C179D07D1F78091D8
:1015400007119091031189279091041189278093A5
:101550007538809108119091051189279091061195
:10156000892780937638809109118093773880910C
:101570000A118093783880910B118093793880918B
:101580000C1180937A380E942A0203CFF0906D38B4
:1015900080916C388330B1F1853009F098CF8EEFAF
:1015A0008F0D883190F58F2D90E0FC01EE0FFF1F1D
:1015B000EB56FF4FC591D4918E01209731F1809366
:1015C00033389093343880E890E00E94FB010E9409
:1015D0002A028091240886FFFCCFC034D10530F464
:1015E0008AEC809326088E01000F111F00932808B3
:1015F00010932908F5E0FF1619F028E1F212C9CE80
:10160000E69AC7CEF0924F3862CF86EA90E00E9409
:10161000FB01B9CF80916C38833009F451C038F4A4
:10162000813081F18230B9F181EA90E0F0CF8530EC
:1016300009F44FC08630C1F781E080930006109214
:10164000010684E58093020681E18093080691E318
:1016500090930C0680930A068091050681FFFCCFCB
:1016600080911406909115069C0136952795880F58
:10167000991F10920006820F931F80936C389093ED
:101680006D3804C080936C3880936D38C092663892
:10169000D092673811C091E090936C3880936D3888
:1016A00085E380936E3887E080936F3845E050E0A3
:1016B000409366385093673881E880936B3863CFE6
:1016C00080914F3880936C3820926638309267381A
:1016D000F3CF80913338F6CFCCB30E94F30280E889
:1016E00090E00E94FB01C0FD0AC0E09B08C0809210
:1016F000663890926738A0926838B09269380E9434
:101700009D01E69B40CF80E00E94D7013CCF88231B
:1017100081F0813031F4E9990EC0E8990EC084E778
:10172000BDCE823081F4EA990AC0E9990AC080E30B
:10173000B5CE8EE1B3CE81E4B1CE8DE6AFCE83E3FC
:10174000ADCE82E3ABCEE69917C08091503884309D
:1017500099F084E08093503845E151E040939C0A31
:1017600050939D0A10929A0A10929B0A8FE48093DC
:10177000900A81E08093A901E19905C0E59903C031
:1017800085EA90E044CF81E0A4D88111FCCEF8CF67
:1017900082E09FD881119BCE82EA90E038CFCCB313
:1017A00083E097D8811111C085EA90E00E94FB0187
:1017B000C0FDE9CEE09BE7CE809266389092673814
:1017C000A0926838B0926938DECE80E890E0EECF23
:1017D000E19B7DCE84E07DD87ACE80E890E00E94C7
:1017E000FB010E942A028091240886FFFCCF81E041
:1017F0000E94D701FFCF8091773890917838A091DF
:101800007938B0917A3880935F3890936038A0939C
:101810006138B09362388091833890918438A09178
:101820008538B091863880935B3890935C38A0936C
:101830005D38B0935E3880918B3890918C38A09150
:101840008D38B0918E388093573890935838A09344
:101850005938B0935A388091953890919638809342
:1018600055389093563880915B38803809F02FCEE8
:1018700080E090E0A0E8B0E0809351389093523837
:10188000A0935338B0935438E99A21CEDC012D92BD
:101890003D924D925D926D927D928D929D92AD9210
:1018A000BD92CD92DD92ED92FD920D931D93CD935D
:1018B000DD93FF91EF918DB78D938EB78D938FB799
:1018C0008D93ED93FD93882799270994DC01CB0133
:1018D00081309105811D2D903D904D905D906D90D2
:1018E0007D908D909D90AD90BD90CD90DD90ED90D0
:1018F000FD900D911D91CD91DD91ED91FD910D909A
:101900000FBEEDBFFEBFED91FD910994F894FFCF9E
:1019100055E065742673554D564E55E065736172FA
:0E192000454D564E55E020676F72504D564EA5
:10192E0055C800C30455A0005504556A00000000B8
:10193E00554800000000550800000000550055C233
:10194E000E55A000556555A0005564556A0000005F
:08195E000055E50400550000EE
:00000001FF
